:020000040800F2
:10000000D006002091010008990100089B0100081A
:100010009D0100089F010008A101000800000000E8
:10002000000000000000000000000000A301000824
:10003000A501000800000000A7010008890C0008C5
:10004000AB010008AB010008AB010008AB010008E0
:10005000AB010008AB01000881050008DD050008C0
:10006000FD0500081D0600083D060008AB0100085C
:10007000AB010008AB010008AB010008AB010008B0
:10008000AB0100087105000841040008AB0100083D
:10009000AB010008AB010008AB0100085D060008D9
:1000A000AB010008AB010008AB010008AB01000880
:1000B000AB010008AB010008AB010008AB01000870
:1000C000AB010008AB010008AB0100083D0B0008C4
:1000D0004D0B0008AB010008AB010008AB010008A4
:1000E000A1050008AB010008AB01000800F002F810
:1000F00000F03FF80AA090E8000C82448344AAF183
:100100000107DA4501D100F034F8AFF2090EBAE880
:100110000F0013F0010F18BFFB1A43F0010318473B
:10012000FC2100001C220000103A24BF78C878C1CE
:10013000FAD8520724BF30C830C144BF04680C60ED
:10014000704700000023002400250026103A28BF35
:1001500078C1FBD8520728BF30C148BF0B60704739
:10016000642900F07D80002070471FB51FBD10B5C9
:1001700010BD00F02AF91146FFF7F7FF01F032F940
:1001800000F048F903B4FFF7F2FF03BC00F050F9A8
:100190000948804709480047FEE7FEE7FEE7FEE71B
:1001A000FEE7FEE7FEE7FEE7FEE7FEE70448054957
:1001B000054A064B70470000CD0C0008ED00000812
:1001C000D0000020D0060020D0020020D002002065
:1001D0000FB41CB5074B06AA7B44694600900598EE
:1001E00000F0DBF80020694600F0EAF81CBC5DF87E
:1001F00014FB0000E50100002DE9F0410E46044625
:10020000002020622046E168884730B3252805D0C9
:10021000D4E901219047206A401CF2E7E1682046BA
:1002200000278847050018D0A5F14100192802D8F9
:1002300020354FF400673246294620462760FFF7F5
:100240008FFF40B1012804D0F61D26F007060836BE
:10025000D8E7361DD6E72846DAE7206ABDE8F08100
:100260002DE9F0410646002410687529314616A58F
:1002700010D0AFF30080002802DA404213A507E057
:1002800031688A0701D512A502E0490704D511A5F6
:10029000012401E0AFF3008000210A2206F12407C7
:1002A00009E0B0FBF2FCB0FBF2F302FB1C003030C3
:1002B00078541846491C0028F3D123462A46304674
:1002C000BDE8F04100F00BB8000000002D00000078
:1002D0002B000000200000007047704770472DE998
:1002E000F0470D4699469246044600F124080168FD
:1002F000880604D5E06921F01001216000E00120AA
:10030000A84201DD471B00E00027A1697A1902EB32
:100310000900081AA0612078C00602D42046AFF375
:100320000080002608E0D4E901211AF80600904771
:10033000206A401C761C20624E45F4DB2078C00603
:100340000AD52046AFF3008006E0D4E90121302031
:100350009047206A401C2062381EA7F10107F4DC98
:1003600007E0D4E9012118F805009047206A401CF5
:100370002062281EA5F10105F3DC2046AFF30080C2
:100380002078000602D50220BDE8F0870120FBE7B7
:1003900001694A1C02610878704700B58FB0CDE949
:1003A00001310021059105497944CDE90310114639
:1003B0006846FFF721FF0FB000BD0000E5FFFFFF1B
:1003C0000A6802F8010B0A607047754600F02CF8C5
:1003D000AE4605006946534620F00700854618B032
:1003E00020B5FFF7E3FEBDE820404FF000064FF0D8
:1003F00000074FF000084FF0000B21F00701AC465A
:10040000ACE8C009ACE8C009ACE8C009ACE8C00978
:100410008D46704710B50446AFF300802046BDE816
:100420001040FFF7AFBE000000487047700000208A
:1004300001491820ABBEFEE726000200704700000D
:1004400010B50548006828B10348006880471220AD
:1004500000F0F0FA10BD00001C00002070B5002470
:1004600000250421002000F0B1F9044605210020F8
:1004700000F0ACF90546AC4209D10A48D0E9003099
:100480005A1C40F100000749C1E9002008E0054876
:10049000D0E90020521E60F100000249C1E90020AD
:1004A00070BD00000000002070B5002400250C2164
:1004B000012000F08BF904460D21012000F086F99F
:1004C0000546AC4209D10A48D0E900305A1C40F137
:1004D00000000749C1E9002008E00548D0E90020F4
:1004E000521E60F100000249C1E9002070BD000009
:1004F000080000202DE9F84F00200090144903C99E
:1005000001F068FA80460022124B01F0F1FA06462B
:100510000022114B01F0D6F8044600220F4B01F0E7
:10052000E7FA824601F026FA40B2009004220CA1BC
:10053000032000F06DFC02226946032000F068FCF5
:1005400004220AA1032000F063FCBDE8F88F00003C
:10055000000000200000F03F00F9E54000807640F8
:10056000414E474C45203D2020000000200A00005D
:1005700010B502480068804710BD00002C00002024
:1005800010B50549086880470448006840F001003C
:100590000249086010BD0000300000201404014032
:1005A00070B500250A240CE00A480068E04000F01D
:1005B00001051DB1084951F8240080470025601C41
:1005C000C4B20F2CF0DD0348006840F47C400149C0
:1005D000086070BD140401403000002010B50549CA
:1005E000486880470448006840F0020002490860FB
:1005F00010BD0000300000201404014010B5054972
:10060000886880470448006840F004000249086098
:1006100010BD0000300000201404014010B5054951
:10062000C86880470448006840F008000249086034
:1006300010BD0000300000201404014010B5054931
:10064000086980470448006840F0100002490860CB
:1006500010BD0000300000201404014070B50025DA
:10066000052412E00A480068E04000F001051DB1D1
:10067000084951F82400804700250548006840F4E7
:10068000787003490860601CC4B2092CEADD70BDB3
:1006900014040140300000200748006840F00100C9
:1006A0000549086004480C38006820F00100024940
:1006B0000C390860704700000C040140014A42F800
:1006C000201070473000002021B101290AD00229F2
:1006D00022D111E0164A1268012383401A43144BB9
:1006E0001A6019E0124A121D1268012383401A434E
:1006F0000F4B1B1D1A600FE00D4A13680122824048
:1007000013430B4A1360121D1268012383401A43DE
:10071000074B1B1D1A6000BF00BF054A083A13684B
:10072000012282401343024A083A136070470000D6
:100730000804014070B5002400250421002000F0C9
:1007400045F804460521002000F040F80546AC427B
:1007500009D00A48D0E900305A1C40F1000007498E
:10076000C1E9002008E00548D0E90020521E60F1F0
:1007700000000249C1E9002070BD00000000002017
:1007800070B5002400250C21012000F01FF804465C
:100790000D21012000F01AF80546AC4209D00A48A4
:1007A000D0E900305A1C40F100000749C1E900209F
:1007B00008E00548D0E90020521E60F1000002491F
:1007C000C1E9002070BD00000800002002460020A2
:1007D00022B1012A08D0022A12D10BE00A4B1B6871
:1007E000CB4003F001000CE0084B1B68CB4003F04A
:1007F000010006E0064B9B68CB4003F0010000E0DF
:1008000000BF00BF7047000008080140080C01400D
:100810000010014030B520B101282FD002287CD132
:1008200059E0072910DC434B1B688D000F24AC40B6
:10083000A343404C236023461B688C0002FA04F457
:1008400023433C4C236018E00F2916DC394B1B1D59
:100850001B68A1F10804A5000F24AC40A343354C4C
:10086000241D236023461B68A1F10804A40002FA9A
:1008700004F423432F4C241D236059E0072910DC86
:100880002D4B1B688D000F24AC40A3432A4C2360E2
:1008900023461B688C0002FA04F42343264C236091
:1008A00018E00F2916DC244B1B1D1B68A1F108045E
:1008B000A5000F24AC40A3431F4C241D23602346F6
:1008C0001B68A1F10804A40002FA04F423431A4CA3
:1008D000241D23602CE0072910DC184B1B688D00B9
:1008E0000F24AC40A343154C236023461B688C00A7
:1008F00002FA04F42343114C236017E00F2915DC9E
:100900000E4B5B68A1F10804A5000F24AC40A34383
:100910000A4C636023465B6800E008E0A1F108042C
:10092000A40002FA04F42343044C636000E000BF17
:1009300000BF30BD00080140000C01400010014024
:1009400010B520B1012815D0022839D125E03AB9D7
:100950001D4B1B6801248C4023431B4C236008E083
:10096000012A06D1184B1B6801248C40A343164C66
:10097000236026E03AB9154B1B6801248C402343C1
:10098000124C236008E0012A06D1104B1C68012399
:100990008B409C430D4B1C6013E03AB90C4BDC6858
:1009A00001238B401C430A4BDC6008E0012A06D17E
:1009B000074BDB6801248C40A343054CE36000E057
:1009C00000BF00BF10BD00000C0801400C0C01402E
:1009D0000010014030B50A460021032800DC12E077
:1009E000072803DC0121031FD8B20CE00B2804DC2C
:1009F0000221A0F10803D8B205E00F2803DC03218F
:100A0000A0F10C03D8B20A4B53F8213085000F2413
:100A1000AC4023EA0404064B43F8214053F821304C
:100A2000840002FA04F41C43014B43F8214030BD1A
:100A3000080001401F2804DC01218140064A1160A2
:100A400009E03B2807DCA0F12001C8B20121814068
:100A5000014A121D1160704780E100E01F2804DC8C
:100A600001218140064A116009E03B2807DCA0F122
:100A70002001C8B201218140014A121D1160704756
:100A800000E100E01F291EDC20B101280AD0022865
:100A900018D10FE00C4A526901238B401A430A4BCC
:100AA0005A610FE0084AD36901228A401343064A7B
:100AB000D36107E0044A926901238B401A43024B39
:100AC0009A6100BF00BF7047001002401A4840689A
:100AD00020F00100184948600846406840F00200D4
:100AE00048600846406820F4701048600846406836
:100AF00040F4E01048600846006840F48030086028
:100B00000846406840F4803048600846406820F459
:100B1000003048600846406840F4806048600846FD
:100B2000006840F08070086000BF03480068C0F3B0
:100B300040600028F9D070470010024010B502480C
:100B40000068804710BD00002000002010B502485A
:100B50000068804710BD00002400002000204FF0F6
:100B6000E0210861704700004FF0E02250611269F7
:100B700042F001024FF0E0231A61074A116001229E
:100B8000064B1A704FF0E022126942F002024FF059
:100B9000E0231A61704700001000002014000020BC
:100BA00010B500F001F810BD0CB5002001900090C8
:100BB0003348006840F480303149086000BF304855
:100BC000006800F4003000900198401C01900098EB
:100BD00018B90198B0F5A06FF1D12948006800F468
:100BE000003010B10120009001E00020009000983A
:100BF000012843D12348006840F0100021490860D3
:100C00000846006820F0030008600846006840F0CD
:100C1000020008601A484068194948600846406860
:100C200048600846406840F4806048600846406874
:100C300020F47C1048600846406840F4E8104860A2
:100C40000846006840F08070086000BF0C480068EB
:100C500000F000700028F9D00948406820F0030037
:100C6000074948600846406840F00200486000BFFD
:100C70000348406800F00C000828F9D10CBD0000C2
:100C8000001002400020024010B50E48007878B9EC
:100C90004FF0E020006920F002004FF0E0210861F1
:100CA0000846006920F00100086100204861886161
:100CB0000548006880474FF0E0200069C0F3004419
:100CC00010BD0000140000201000002010B51348D3
:100CD000006840F00100114908600846406810496A
:100CE00008400E494860084600680E4908400B4914
:100CF00008600846006820F48020086008464068C4
:100D000020F4FE0048604FF41F008860FFF748FFA2
:100D10004FF000600449086010BD00000010024060
:100D20000000FFF8FFFFF6FE08ED00E0012804D008
:100D300002281FD0032859D13BE02E4A126822F422
:100D40007F622C4B1A601A46126842F40B621A60DA
:100D5000284A0832126842F48062264B08331A602F
:100D600042F20C02244B1A60244AB2FBF1F21B1F20
:100D70001A603CE01F4A121F126822F47F421D4B8A
:100D80001B1F1A601A46126842F40B421A60194A75
:100D90000832126842F00802164B08331A6042F219
:100DA0000C02174B1A60174AB2FBF1F21B1F1A60B4
:100DB0001DE0154A126822F47F42134B1A601A464E
:100DC000126842F40B421A600F4A0832126842F469
:100DD00000620D4B08331A6042F20C020B4B1A6092
:100DE000084AB2FBF1F21B1F1A6000E000BF00BF0F
:100DF00070470000040801400C38014000A24A047A
:100E00000C44004000512502040C01400C480040F5
:100E10002DE9F04F89B081460D4616460024B9F100
:100E2000010F06D0B9F1020F7ED0B9F1030F7CD1CA
:100E30008BE1022E2CD1F8A104A82A68FFF7C8F98B
:100E4000002020E000E0641CF449096801F0800102
:100E500011B9F3498C42F6D304A9095CEF4A121D7B
:100E60001160002400E0641CEC49096801F04001B5
:100E700011B9EB498C42F6D3E849096821F04001E9
:100E8000E64A1160401C04A9095C0029DAD196E009
:100E9000032E4BD1286801F055F8CDE9000100F090
:100EA00033FA074600F028FB82465146286801F0D5
:100EB000BFF90390504601F0D3F80290D948039946
:100EC00001F0EAF8074601F0CBF883465B46D6A16D
:100ED00004A8029AFFF77CF9002020E000E0641CDF
:100EE000CE49096801F0800111B9CD498C42F6D391
:100EF00004A9095CC94A121D1160002400E0641CA9
:100F0000C649096801F0400111B9C5498C42F6D3C0
:100F1000C249096821F04001C04A1160401C04A97F
:100F2000095C0029DAD14AE04AE0E4E1042E25D147
:100F300000201FE000E0641CB849096801F080014E
:100F400011B9B7498C42F6D3295CB44A121D11601D
:100F5000002400E0641CB149096801F0400111B9A6
:100F6000AF498C42F6D3AD49096821F04001AB4A44
:100F70001160401C295C0029DCD120E0012E1ED12B
:100F800000E0641CA548006800F0800010B9A44887
:100F90008442F6D32878A149091D0860002400E0A6
:100FA000641C9E48006800F0400010B99C488442D0
:100FB000F6D39A48006820F04000984908609BE109
:100FC000022E2CD194A104A82A68FFF701F9002071
:100FD00020E000E0641C9649096801F0800111B925
:100FE0008F498C42F6D304A9095C914A121D116005
:100FF000002400E0641C8E49096801F0400111B929
:1010000087498C42F6D38A49096821F04001884A11
:101010001160401C04A9095C0029DAD194E0032E78
:1010200049D1286800F08EFFCDE9000100F06CF98D
:10103000074600F061FA82465146286801F0F8F848
:101040000390504601F00CF802907648039901F0A5
:1010500023F8074601F004F883465B4672A104A812
:10106000029AFFF7B5F8002020E000E0641C704908
:10107000096801F0800111B969498C42F6D304A9CD
:10108000095C6B4A121D1160002400E0641C684971
:10109000096801F0400111B961498C42F6D36449F5
:1010A000096821F04001624A1160401C04A9095CF2
:1010B0000029DAD148E0042E25D100201FE000E00D
:1010C000641C5B49096801F0800111B954498C42E4
:1010D000F6D3295C564A121D1160002400E0641CFE
:1010E0005349096801F0400111B94D498C42F6D3CA
:1010F0004F49096821F040014D4A1160401C295CAC
:101100000029DCD120E0012E1ED100E0641C4848FB
:10111000006800F0800010B941488442F6D3287876
:101120004349091D0860002400E0641C4048006831
:1011300000F0400010B93A488442F6D33C480068B9
:1011400020F040003A490860D6E0022E2CD132A1AE
:1011500004A82A68FFF73CF8002020E000E0641CA7
:101160003449096801F0800111B92D498C42F6D348
:1011700004A9095C2F4A121D1160002400E0641CC0
:101180002C49096801F0400111B925498C42F6D378
:101190002849096821F04001264A1160401C04A931
:1011A000095C0029DAD1A5E0032E5AD1286800F0A5
:1011B000C9FE074600F0A8F8CDE9000100F09CF94F
:1011C00082465146286801F033F80390504600F0FB
:1011D00047FF02901348039900F05EFF074600F0B6
:1011E0003FFF83465B4610A104A8029AFEF7F0FF7A
:1011F000002031E000E0641C0E49096801F0800124
:1012000011B907498C42F6D304A9095C094A121D99
:101210001160002411E00000256400000038014046
:10122000A086010000007A4425642E256400000099
:101230000044004000480040641C3149096801F046
:10124000400111B92F498C42F6D32D49096821F08C
:1012500040012B4A1160401C04A9095C0029C9D136
:1012600048E0042E25D100201FE000E0641C244942
:10127000096801F0800111B922498C42F6D3295C3A
:101280001F4A121D1160002400E0641C1C490968FB
:1012900001F0400111B91B498C42F6D31849096885
:1012A00021F04001164A1160401C295C0029DCD164
:1012B00020E0012E1ED100E0641C1148006800F0FF
:1012C000800010B90F488442F6D328780C49091DD4
:1012D0000860002400E0641C0948006800F0400039
:1012E00010B908488442F6D30548006820F0400051
:1012F0000349086000E000BF00BF09B0BDE8F08FFF
:1013000000480040A08601002DE9F041C1F30A52D7
:10131000A2F2FF362F4A304B0D460446142E2FDA28
:10132000002E12DA00F01AF90022134600F0DEFC5B
:101330004CD2002DA4BF0024254647DA25F00040FA
:10134000204318BF254D41D018E0DFF894C02CFA97
:1013500006F705EA070C5CEA040C08BFBDE8F0815B
:1013600000F0FCF80022134600F0C0FC2ED2002D45
:1013700003DA4FF48010F0400544BD43002425E01B
:10138000332EC8BFBDE8F081A6F1140C4FF0FF3733
:1013900027FA0CF73C4208BFBDE8F08100F0DCFC06
:1013A0000022134600F0A2FC10D2002D0DDA142EFC
:1013B00008BF6D1C09D0C6F13400012101FA00F00C
:1013C0002044A04238BF6D1C0446BC432946204639
:1013D000BDE8F0819C7500883CE4377E0000F0BFDA
:1013E000FFFF0F0000F074F8FFF756F9FFF7B6FBA8
:1013F0004FF416510320FFF799FC08220421002026
:10140000FFF708FA082205210020FFF703FA082257
:101410000C210020FFF7FEF908220D210020FFF724
:10142000F9F9002204211046FFF78AFA002205216B
:101430001046FFF785FA00220C210120FFF780FA01
:1014400000220D210120FFF77BFA0C210120FFF77C
:10145000C1FA0D210120FFF7BDFA17490420FFF75B
:101460002DF916490520FFF729F902210420FFF77D
:101470002BF902210520FFF727F911490C20FFF76E
:101480001DF910490D20FFF719F902210C20FFF773
:101490001BF902210D20FFF717F90A20FFF7DEFAEA
:1014A0001720FFF7DBFA2820FFF7D8FA064907488C
:1014B000FFF75AFB00BFFEE7350700085D04000890
:1014C00081070008A9040008F5040008A0BB0D006E
:1014D00010B5FFF7FBFA00210220FFF7D3FA022133
:1014E0000846FFF7CFFA03210220FFF7CBFA1221BB
:1014F0000120FFF7C7FA10BD21F00042A2F16052AF
:10150000B2F5801F01F0004328BFD2F17F6C0BD9E8
:101510005FEA001C43EAC20242EB507018BF7047FA
:1015200028BF20F001007047B2F5801FBCBF1846ED
:1015300070474FEA410C1CF5001F02D2084600F02C
:1015400072BE70B500F07EFB00000089FFF7F6BFA9
:101550004FF00040A0F580007047000010B591EA00
:10156000030F48BF83F0004300F10A84841A71EB33
:10157000030C05D2121943EB0C03001B61EB0C01A9
:10158000DFF824E14FEA1154A4EB135C1EEA430F89
:1015900018BF9EEA445F73D023EA0E03DCF1200EED
:1015A00021EA045143F4801332D322FA0CFE10EBEB
:1015B0000E0023FA0CFE41EB0E01CCF1200E03FAD3
:1015C0000EFE10EB0E0051F10001B1F5801FCCF1C1
:1015D000200E32D201EB045112FA0EF2BDE8104097
:1015E00058BF7047401C38BF5FEA420218BF7047BF
:1015F000002814BF20F0010041F100014FEA41032F
:1016000013F5001F38BF7047A1F1C04100F068BB5F
:10161000012A43EB0302ACF1200CDCF11F0E32BFB8
:101620004FF0000E23FA0CF310EB030041EB0451D2
:10163000B4EB115FD0D0A1EB045101F58011490842
:101640005FEA300001EB04510ED350F1000038BFC7
:1016500012FA0EFE08D1BDE81040C9E7401C38BFA1
:101660005FEA4202CAD1C3E7BDE810404FEA410336
:1016700013F5001F38BF7047A1F1C04100F030BB27
:101680009EEA445F08D011EA5E0FBDE8104004BF37
:1016900001F0004100207047BDE8104070B500F037
:1016A000D1FA00BF64FBBE3E0000E0FF491058BF06
:1016B000C1F140415B1058BFC3F140438B42EFF38F
:1016C000008070472DE9C04130B4DFF8A0C23CEA89
:1016D000111418BF3CEA131400F0EC8081EA0305F2
:1016E0001CEA111444EAD57418BF1CEA131500F063
:1016F000C780A4EB05044FF0004545EAC12145EA47
:10170000C32341EA505143EA525304F17F74994292
:1017100004F500344FEAC0204FEAC22208BF9042CD
:1017200000F09C804FEA13650FF24016765D4FEA99
:10173000134506FB05F7C7F1807706FB07F74FEA6D
:10174000D737A7FB03687642C8F58038A7FB06CEDB
:1017500038BFA8F1010807FB08E64FF0000EA6FB12
:10176000028CE6FB03CEDCF1000CCEF1004E38BF5C
:10177000AEF1010EA6FB0C584FF000074FF000052C
:10178000E6FB0E87A1FB08C6A0FB07CE16EB0E06F4
:1017900045F10005E1FB076515F1E04E7EBFA4F5BC
:1017A00080345FEA46066D4116F1800745F1000579
:1017B0004FEA17274FEA066647EA0567A6F1DE46B5
:1017C000B6F1805F4FEA15251FD9384624F0010C89
:1017D00005EBC471BCF1FE6F01EB0C1102D8F0BC3B
:1017E000BDE8008124425CBF01F5801E9EEAC47FF3
:1017F00002D4F0BCBDE80081244238D4F0BCA1F191
:10180000C041BDE8004100F06BBA4FEAD22242EA83
:1018100043524FEAD323A7FB02864FEAD02040EA87
:10182000415007FB03661EEA0E0F4FEAD12105FB6C
:10183000026658BFA6EB0056B6EB00564FEA520EB2
:101840004EEAC37E18EB0E0E56EB530EBDD518EBC9
:1018500002085E417F1C55F10005B6E74FF4801584
:101860004FF000074FF000064FF00008ADE7F0BC66
:101870004FF0000001F1C04101F00041BDE80081DE
:1018800011EA0C1F0CEA131500D00CE013EA0C1F30
:1018900000F025804FF00000F0BC81EA030101F068
:1018A0000041BDE80081F0BCBDE8004181EA0301D0
:1018B00000F016BAF0BCBDE8004170B500F0C2F906
:1018C000097EFC3E00F007B881EA03014FF00000FA
:1018D00001F00041704781EA030100F001BAF0BC59
:1018E000BDE800414FF0000021497047FFFDFBF9C2
:1018F000F7F5F4F2F0EEEDEBE9E8E6E4E3E1E0DE43
:10190000DDDBDAD8D7D5D4D3D1D0CFCDCCCBCAC8B4
:10191000C7C6C5C4C2C1C0BFBEBDBCBBBAB9B8B7DB
:10192000B6B5B4B3B2B1B0AFAEADACABAAA9A8A8CE
:10193000A7A6A5A4A3A3A2A1A09F9F9E9D9C9C9B9C
:101940009A99999897979695959493939291919047
:101950008F8F8E8E8D8C8C8B8B8A898988888787D8
:101960008685858484838382828181800000FF074D
:101970000000F87F4FEA41034FEA5353A3F5806319
:10198000D3F11E03C8BFD3F1210C0CDD4FF0004290
:1019900042EAC12242EA505232FA03FC8CEAE17C6C
:1019A000ACEBE1707047102BC4BF0020704703F50B
:1019B000787CBCF1FF3F04D06FF0004282EA210046
:1019C000704770B500F03EF94992248000207047BE
:1019D000F2E700007FEAE17202D1101A62EB010126
:1019E000B1FA81F30B3B24D3994012D1B0FA80F3C2
:1019F00010FA03F108BF7047C3F11D0303F54063FC
:101A000003EBC2234FEAD1224FEA415002EB0351CC
:101A10007047C3F1200C20FA0CFC9840C3F132034C
:101A200003F5406303EBC22341EA0C0101EB0351D0
:101A3000704710B5C3F1320CC3F10004C4F1200E9D
:101A40000CF5406C0CEBC22201FA0EFC21FA04F1F9
:101A500000FA0EF3E040BDE8104040EA0C0001EB54
:101A6000025138BF7047401C41F100015B0008BFC4
:101A700020F001007047000051EA030C17D41CF558
:101A8000801F58BFBCF5801F00F10680994218BF27
:101A9000704708BF9042704707D711F5801F58BFA5
:101AA00013F5801F19D499427047894270471CF57D
:101AB000801F08D5BCF5801FF7D58B4218BF704733
:101AC00008BF824270474FF4001C1CEB410F38BF27
:101AD0001CEB430F01D28B42704770B500F0B2F897
:101AE000922449004FF000514FF08053FFF7DEBDC4
:101AF000DFF848C170B51CEA111E1EBF1CEA1315A1
:101B00009EEA0C0F95EA0C0F00F06F8081EA030447
:101B100023EA4C134EEAD47E21EA4C1141F48011A1
:101B200043F48013AE44A1FB024CA0FB0365AEF16D
:101B30007F7E361955EB0C05A1FB034C4CF10003DD
:101B4000A0FB021C16EB0C06654153F10003094291
:101B500018BF46F0010613F4007F0BD14FEA0331A2
:101B60004FEA0530340341EA155140EA16506FF050
:101B700003020AE04FEAC3214FEAC520F40241EA1A
:101B8000555140EA56506FF0020202EB2E4201EB33
:101B9000025585EACE710AD05FEA440C18BF24F0E2
:101BA000004450F1000041F1000120EAD47040F2FD
:101BB000FE7C624500D270BDA84214BF4FF0804445
:101BC0004FF04044002E08BF0024BEF1806FA8BF34
:101BD000A1F1C041BDE8704080F282804FF000006A
:101BE00001F1C04101F0004170479EEA0C0F0CEA80
:101BF000131518BF95EA0C0F06D04FF0000081EACC
:101C0000030E0EF0004170BD00F01CF88900013E8B
:101C100000F007B800F009B84FEA430C5FEA5C5CDB
:101C200008D081EA030100F05BB84FEA410C5FEA9B
:101C30005C5CF6D14FF00000014970470000FF07DF
:101C40000000F87F0EF1020E2EF0030E5EF8046B1A
:101C5000364205D4012A43EB030515F5001F12D8BF
:101C6000012841EB010C1CF5001F0CD80ED14FEAE6
:101C7000D17C15F5001F0CEB4C0C0CF1020C08BFCD
:101C80004CEBD37C04E04FF0080C01E04FEAD37C2E
:101C90000CEB4C0526FA05F606F00706B6F1040C27
:101CA00006D20EEB860CBDE870404CF0010C60478C
:101CB000DFE80CF0090B02024FF000414FF000008A
:101CC000A1F5002170BD19461046012851EB010411
:101CD00018BFD4F5001484BF002001F0004170BD8E
:101CE0000808A0F500114FEA3101704753EA010CD2
:101CF00017D41CF5801F58BFBCF5801F00F106806B
:101D00008B4218BF704708BF8242704707D713F550
:101D1000801F58BF11F5801F19D48B4270479B421A
:101D200070471CF5801F08D5BCF5801FF7D5994278
:101D300018BF704708BF904270474FF4001C1CEB5F
:101D4000430F38BF1CEB410F01D2994270470FB4CB
:101D50000CBC03BCFFF7C1BE91EA030F10B581F0C4
:101D600000413FF503AC83F0004300F009B80000E8
:101D700010B591EA030F48BF83F000433FF5F6AB7F
:101D8000841A71EB030C07D212198CF0004C43EB50
:101D90000C03001B61EB0C01DFF8A4E14FEA1154C6
:101DA000A4EB135C1EEA430F18BF9EEA445F00F0E9
:101DB000B08023EA6E03524221EA0451C3EB6E0362
:101DC00038BF5B1EDCF1200E25D322FA0CFE10EB8F
:101DD0000E0043FA0CFE41EB0E01CCF1200E03FA8B
:101DE0000EFE10EB0E0051F10001CCF1200E29D4B3
:101DF00012FA0EF201EB0451BDE8104058BF7047D3
:101E0000401C1CBFB2F1004F704700280CBF491C9A
:101E100020F00100704712EB020E43EB030218BFE3
:101E20004FF0010E4EEA4202ACF1200CDCF11E0E26
:101E300054D943FA0CFE10EB0E0051F1FF31CCF1F6
:101E40001E0ED5D50EF1010E12FA0EFE404141EBE9
:101E5000010101EB445C5FEA5C5C10D910EBDE70C1
:101E600001EB045138BFBEF1004FBDE8104018BF70
:101E7000704700280CBF491C20F00100704730D289
:101E80004FEAD42C11F5001124F400641BD0B1FAF0
:101E900081F20B3AA41AA41ED2F12003914030FA29
:101EA00003F31943904001EBCC71002C01EB04517A
:101EB000BDE81040A8BF704701F1C0414FF00000DD
:101EC00001F000417047B0FA80F310FA03F100D13D
:101ED00010BDE41A173C4805C90AE4E701EB0451B8
:101EE00010BD491001EB0451BDE810404FEA30002D
:101EF00002E04FF0000170474A0008BF0042F8D0EE
:101F0000B2F5001F28BF704701F000414FF00000FC
:101F100070479EEA445F07D011EA5E0FBDE81040AB
:101F200004BF002100207047BDE8104070B5FFF7E6
:101F300089FE00BF40DFF63E83F000411046704747
:101F40000000E0FF43004FEAD30C4FEA3C0C434053
:101F50001FBF40070CF1605113F0FE4F70471CF09B
:101F6000006F03D100200CF0004170470CF00043DB
:101F700043EA507010B540EACC0000F00EF900BF03
:101F8000000000924FEA0001FFF7AABE4FF00041A7
:101F90004FF00000A1F500217047000090EA010F0A
:101FA00048BF81F0004100F14A81421A3CBF801ACB
:101FB00089184FEAD0524FF07F4C1CEA410FA2EB38
:101FC000D15318BF9CEA026F00F03B804FF0004CE9
:101FD0004CEA00204CEA012121FA03FC10EB0C0C26
:101FE0001ED202F1FF325FEA1C2040EBC25038BF24
:101FF00070471CF07F0F4FEA400C18BFBCF17F4FB9
:1020000038BF7047C3F12003994008BF20F001009A
:10201000BCF17F4F38BF7047A0F1C04000F003B95A
:102020004FEA3C00000A40EBC25028BF1CF0FF0FF3
:102030004FEA400CE6D018BFBCF17F4F38BF704765
:10204000EAE79CEA026F05D010EA5C0F08BF00F0D7
:102050000040704710B500F0A0F800BF64FBBE3E22
:1020600041000B0ED3F19E0208D950F400034FEA51
:10207000032323FA02F048BF4042704710B500F036
:102080008CF800BF49922480002070476FF0004216
:1020900082EA2000704700004FF47F0C1CEAD01247
:1020A0001EBF1CEAD11392EA0C0F93EA0C0F00F04A
:1020B000478090EA010F48BF42F480724FF0004C15
:1020C0004CEA00204CEA012102EB0302A0FB0113C1
:1020D000A2F50002002918BF43F001035B0028BFEE
:1020E0004FEA330342EB22425FEA132C4CEBC2501F
:1020F0002EBFBCEB436FB2F57C0F70474FEA036C09
:10210000BCF1004F08BF20F00100B2F57C0F38BFD2
:1021100070470BD582F0FF0212F5803FC8BF7047B1
:1021200000F1C040D8BF00F00040704700F5000C3F
:102130005FEA4C0C48BF7047B0F1C04000F073B884
:1021400090EA010F0CEAD11348BF42F48072624555
:1021500038BF634504D280EA010000F000407047B8
:1021600010B500F01AF800BF8900013E00F007B872
:1021700000F009B85FEA410C5FEA1C6C08D080EA05
:10218000010000F050B85FEA400C5FEA1C6CF6D129
:102190004FF00040A0F5800070470EF1020E2EF0C7
:1021A000030E5EF8044B244204D44FEA4102B2F11C
:1021B0007F4F11D84FEA4003B3F17F4F0CD80ED1B7
:1021C0004FEAD07CB2F17F4F0CEB4C0C0CF1020CBF
:1021D00008BF4CEBD17C04E04FF0080C01E04FEA63
:1021E000D17C0CEB4C0324FA03F404F00704B4F1A3
:1021F000040C06D20EEB840CBDE810404CF0010C30
:102200006047DFE80CF0070802024FF00040A0F53D
:10221000800010BD0846420018BFD2F1807288BF0E
:1022200000F0004010BDFF2141EAD050C0057047CA
:1022300090EA010F48BF81F000413FF5B6AE421A67
:1022400004D882F00042A0EB020011444FEAD052C1
:102250004FF07F4C1CEA410FA2EBD15318BF9CEA10
:10226000026F4AD04FF0004C4CEA00204CEA0121AA
:1022700021FA03FCB0EB0C0C0FD412F0FE0F36D099
:102280005FEA4C001DD5001240EBC25038BF7047CA
:102290001CF03F0F18BF70470BE0A2F101025FEA8C
:1022A0001C2040EBC25038BF70471CF07F0F18BF96
:1022B0007047C3F12003994014BF401E20F0010075
:1022C000704780084FEA122308BF7047B0FA80FCBD
:1022D000A2EB0C02CCF1280C60FA0CF093EA122F5E
:1022E00004BF00EBC25070474FEAC3707047130A37
:1022F0005FEADC1008BF7047F6E79CEA026F04D083
:1023000010EA5C0F08BF0020704710B5FFF745FFCB
:1023100040DFF63E81F00040704700003C2300089B
:102320000000002030000000280100086C23000895
:1023300030000020A006000044010008000000005A
:10234000000000000000000000000000000000008D
:10235000000000000000000000000000000000007D
:0C23600000000000000000000000000071
:04000005080000ED02
:00000001FF
