:100000000C9433000C9478030C949F030C94C60357
:100010000C9450000C9450000C9450000C949306D7
:100020000C9450000C9450000C9450000C94500010
:100030000C9450000C9450000C9450000C94500000
:100040000C9450000C9450000C9450000C945000F0
:100050000C945000D211D211011206121C12D211AE
:10006000D2110112061211241FBECFE5D8E0DEBF67
:10007000CDBF10E0A0E6B0E0E4EDFAE202C00590EA
:100080000D92A238B107D9F724E0A2E8B0E001C090
:100090001D92A336B207E1F70E945D140C94681517
:1000A0000C940000883008F05EC06932D1F44AB385
:1000B0009DEC899F912D1124969596959695990F73
:1000C000292F220F220F920F891B21E030E0B90166
:1000D00002C0660F771F8A95E2F7CB01842B8ABB9B
:1000E00008956832D9F44AB39DEC899F912D11246B
:1000F000969596959695990F292F220F220F920F7C
:10010000891B21E030E0B90102C0660F771F8A9594
:10011000E2F7CB01809584238ABB08956A3209F007
:1001200049C14AB39DEC899F912D112496959695CE
:100130009695990F292F220F220F920F891B21E0EC
:1001400030E0B90102C0660F771F8A95E2F7CB0154
:10015000962F909594239ABB90B79B7F90BF9BB3AB
:10016000892B8BBB089596EF980F983008F05EC0EE
:100170006932D1F447B39DEC899F912D1124969556
:1001800096959695990F292F220F220F920F891B72
:1001900021E030E0B90102C0660F771F8A95E2F7CF
:1001A000CB01842B87BB08956832D9F447B39DEC0B
:1001B000899F912D1124969596959695990F292FA3
:1001C000220F220F920F891B21E030E0B90102C0FB
:1001D000660F771F8A95E2F7CB018095842387BB52
:1001E00008956A3209F0E6C047B39DEC899F912DCE
:1001F0001124969596959695990F292F220F220FE7
:10020000920F891B21E030E0B90102C0660F771F11
:100210008A95E2F7CB01962F9095942397BB90B7E0
:100220009B7F90BF98B3892B88BB08959CEE980F55
:10023000983008F05EC06932D1F444B39DEC899FD8
:10024000912D1124969596959695990F292F220F09
:10025000220F920F891B21E030E0B90102C0660F26
:10026000771F8A95E2F7CB01842B84BB089568320F
:10027000D9F444B39DEC899F912D112496959695C0
:100280009695990F292F220F220F920F891B21E09B
:1002900030E0B90102C0660F771F8A95E2F7CB0103
:1002A0008095842384BB08956A3209F083C044B3E7
:1002B0009DEC899F912D1124969596959695990F71
:1002C000292F220F220F920F891B21E030E0B90164
:1002D00002C0660F771F8A95E2F7CB01962F9095A3
:1002E000942394BB90B79B7F90BF95B3892B85BB1C
:1002F000089592EE980F983008F05CC06932D1F4FE
:1003000041B39DEC899F912D1124969596959695D4
:10031000990F292F220F220F920F891B21E030E025
:10032000B90102C0660F771F8A95E2F7CB01842BD3
:1003300081BB08956832D9F441B39DEC899F912D1A
:100340001124969596959695990F292F220F220F95
:10035000920F891B21E030E0B90102C0660F771FC0
:100360008A95E2F7CB018095842381BB08956A3298
:1003700009F541B39DEC899F912D11249695969591
:100380009695990F292F220F220F920F891B21E09A
:1003900030E0B90102C0660F771F8A95E2F7CB0102
:1003A000962F9095942391BB90B79B7F90BF92B36B
:1003B000892B82BB0895883008F046C09DEC699F68
:1003C000912D1124969596959695990F292F220F88
:1003D000220F920F691B6130D1F44BB39DEC899FC2
:1003E000912D1124969596959695990F292F220F68
:1003F000220F920F891B21E030E0B90102C0660F85
:10040000771F8A95E2F7CB01842B8BBB089561118E
:10041000FBC04BB39DEC899F912D11249695969529
:100420009695990F292F220F220F920F891B21E0F9
:1004300030E0B90102C0660F771F8A95E2F7CB0161
:10044000809584238BBB089596EF980F983008F021
:1004500046C09DEC699F912D112496959695969591
:10046000990F292F220F220F920F691B6130D1F4AF
:1004700048B39DEC899F912D11249695969596955C
:10048000990F292F220F220F920F891B21E030E0B4
:10049000B90102C0660F771F8A95E2F7CB01842B62
:1004A00088BB08956111B0C048B39DEC899F912D20
:1004B0001124969596959695990F292F220F220F24
:1004C000920F891B21E030E0B90102C0660F771F4F
:1004D0008A95E2F7CB018095842388BB08959CEE32
:1004E000980F983008F046C09DEC699F912D11241B
:1004F000969596959695990F292F220F220F920F78
:10050000691B6130D1F445B39DEC899F912D112475
:10051000969596959695990F292F220F220F920F57
:10052000891B21E030E0B90102C0660F771F8A9570
:10053000E2F7CB01842B85BB0895611165C045B3FB
:100540009DEC899F912D1124969596959695990FDE
:10055000292F220F220F920F891B21E030E0B901D1
:1005600002C0660F771F8A95E2F7CB01809584233E
:1005700085BB089592EE980F983008F045C09DEC29
:10058000699F912D1124969596959695990F292FEF
:10059000220F220F920F691B6130D1F442B39DEC00
:1005A000899F912D1124969596959695990F292FAF
:1005B000220F220F920F891B21E030E0B90102C007
:1005C000660F771F8A95E2F7CB01842B82BB0895D3
:1005D00061111AC042B39DEC899F912D112496950B
:1005E00096959695990F292F220F220F920F891B0E
:1005F00021E030E0B90102C0660F771F8A95E2F76B
:10060000CB018095842382BB08958830C8F429B338
:100610009DEC899F912D1124969596959695990F0D
:10062000392F330F330F930F891B30E002C03595FC
:1006300027958A95E2F781E020FD59C080E0089572
:1006400096EF980F9830C8F426B39DEC899F912DB2
:100650001124969596959695990F392F330F330F50
:10066000930F891B30E002C0359527958A95E2F7F4
:1006700081E020FD3CC080E008959CEE980F98300A
:10068000C8F423B39DEC899F912D112496959695DE
:100690009695990F392F330F330F930F891B30E045
:1006A00002C0359527958A95E2F781E020FD1FC0AD
:1006B00080E0089592EE980F9830C8F420B39DEC36
:1006C000899F912D1124969596959695990F392F7E
:1006D000330F330F930F891B30E002C035952795F8
:1006E0008A95E2F781E020FD02C080E00895089538
:1006F0001F920F920FB60F9211242F933F934F9397
:100700005F936F937F938F939F93AF93BF93EF9379
:10071000FF93E0918600F09187000995FF91EF919A
:10072000BF91AF919F918F917F916F915F914F9109
:100730003F912F910F900FBE0F901F9018951F9211
:100740000F920FB60F9211242F933F934F935F9305
:100750006F937F938F939F93AF93BF93EF93FF9389
:10076000E0918400F09185000995FF91EF91BF9190
:10077000AF919F918F917F916F915F914F913F9139
:100780002F910F900FBE0F901F9018951F920F92F0
:100790000FB60F9211242F933F934F935F936F9354
:1007A0007F938F939F93AF93BF93EF93FF93E091CA
:1007B0008200F09183000995FF91EF91BF91AF9175
:1007C0009F918F917F916F915F914F913F912F9169
:1007D0000F900FBE0F901F901895ADE8B0E0E1E9C3
:1007E000F0E01196FC93EE9313961C921E921297D2
:1007F000A9E8B0E08FE193E013969C938E93129753
:1008000011961C921E9293838283B183A0830895D4
:10081000EF92FF920F931F93CF93DF93EC010E940F
:10082000720C80918800811105C00E94ED0381E067
:1008300080938800209771F0CE010496C817D907DD
:1008400038F425968C179D0728F0C0E0D0E002C050
:10085000C0E0D0E0209709F45EC0209160003091A4
:1008600061002C173D0708F459C0E0918D00F0910C
:100870008E00ADE8B0E002C0DF01FC01828193810F
:100880008C179D0720F4808191810097A9F780E063
:10089000E938F80709F445C00D911C9111970C5FD8
:1008A0001F4F808191818D939C93828193818C1BBA
:1008B0009D0B8930910530F1BF016C0F7D1FDB016D
:1008C00013969C938E931297D383C28312964D9165
:1008D0005C9113970F2EFDE8EF2EF0E0FF2EF02D28
:1008E00001C07D01E701A881B98112968D919C918B
:1008F000139784179507A8F3EB01B983A883D70151
:100900006D937C9382819381281B390B3093610016
:100910002093600008C000E010E005C000E010E097
:1009200002C000E010E00E94860DC801DF91CF9167
:100930001F910F91FF90EF9008950F931F93CF9306
:10094000DF93009741F1EC018C01045011090E94E2
:10095000720CF80142815381ADE8B0E001C0DF01C3
:10096000ED91FC9111972281338124173507B8F35B
:100970002497F983E8830D931C938A819B812091AE
:10098000600030916100820F931F9093610080930B
:1009900060000E94860DDF91CF911F910F91089505
:1009A000FC010396928381832FEF3FEF34832383EF
:1009B000968385839087878310820895FC01118632
:1009C00010860895CF93DF93EB01488159814F3F03
:1009D0002FEF520721F4FC01A781B0850DC0DC0187
:1009E000139601C0DF011296ED91FC9113972081BF
:1009F000318142175307B0F71296ED91FC9113978E
:100A0000FB83EA83D583C483BD83AC831396DC93D5
:100A1000CE93129799878887FC0120812F5F2083CE
:100A2000DF91CF910895CF93DF93FC01A085B1852D
:100A3000C281D381848195819D838C83C481D5813A
:100A4000828193819B838A8311968D919C911297C9
:100A5000E817F90731F48481958112969C938E935F
:100A60001197118610868C9181508C938C91DF9117
:100A7000CF9108951BBC8CE78ABD8BE08EBD89B7F2
:100A8000806189BF089531E1FC013083319722E212
:100A900020833197A3E3A0833197608331977083DC
:100AA00031971082319760E86083319710823197D7
:100AB00062E06083319763E06083319764E0608334
:100AC000319765E06083319766E06083319767E036
:100AD0006083319768E06083319769E06083319784
:100AE00060E1608331973083319732E13083319711
:100AF00033E13083319734E13083319735E130830E
:100B0000319736E13083319737E13083319738E1DF
:100B10003083319739E13083319730E23083319738
:100B200031E2308331972083319723E2208331975C
:100B3000408331975083319726E22083319727E213
:100B40002083319728E22083319729E2208331974F
:100B500020E32083319721E32083869708950E9424
:100B60003A05A0911F04B0912004CD91CDBFDD9135
:100B7000DEBFFF91EF91DF91CF91BF91AF919F9138
:100B80008F917F916F915F914F913F912F911F9125
:100B90000F91FF90EF90DF90CF90BF90AF909F901C
:100BA0008F907F906F905F904F903F902F901F900D
:100BB0000F900FBE0F90089581E008950F920FB629
:100BC000F8940F921F9211242F923F924F925F92AE
:100BD0006F927F928F929F92AF92BF92CF92DF924D
:100BE000EF92FF920F931F932F933F934F935F9337
:100BF0006F937F938F939F93AF93BF93CF93DF9325
:100C0000EF93FF93A0911F04B09120040DB60D92B5
:100C10000EB60D920E945B0EA0911F04B0912004AD
:100C2000CD91CDBFDD91DEBFFF91EF91DF91CF91EF
:100C3000BF91AF919F918F917F916F915F914F91F4
:100C40003F912F911F910F91FF90EF90DF90CF90E8
:100C5000BF90AF909F908F907F906F905F904F90DC
:100C60003F902F901F900F900FBE0F9008950F92FE
:100C70000FB6F8940F921F9211242F923F924F9229
:100C80005F926F927F928F929F92AF92BF92CF921C
:100C9000DF92EF92FF920F931F932F933F934F9307
:100CA0005F936F937F938F939F93AF93BF93CF93F4
:100CB000DF93EF93FF93A0911F04B09120040DB632
:100CC0000D920EB60D920E94820C81110E945B0E55
:100CD000A0911F04B0912004CD91CDBFDD91DEBF66
:100CE000FF91EF91DF91CF91BF91AF919F918F9144
:100CF0007F916F915F914F913F912F911F910F9134
:100D0000FF90EF90DF90CF90BF90AF909F908F902B
:100D10007F906F905F904F903F902F901F900F901B
:100D20000FBE0F9008950E94370618950FB6F894DD
:100D30000F92FC01828D811102C081E001C080E030
:100D40000F900FBE08950FB6F8940F92FC01228DFC
:100D5000838D281302C081E001C080E00F900FBE98
:100D600008950F931F93CF93DF93EC01042F1A8DF7
:100D70004C8D41110CC088819981892B09F042C0AA
:100D80008C819D810E9423101D821C8242C0011112
:100D900017C050E08A819B810E9458152C8D8A8152
:100DA0009B81820F911D9B838A832C813D818217B9
:100DB000930750F1888199819B838A8380E029C0C1
:100DC00050E08E819F810E9458158C8D90E0919506
:100DD000819591092E813F81280F391F3F832E83F2
:100DE000488159812417350730F42C813D81820FC9
:100DF000931F9F838E83023049F4112349F01150D1
:100E000080E007C080E005C080E003C080E001C052
:100E100080E01F5F1A8FDF91CF911F910F9108958E
:100E2000FC01448D4423A9F050E026813781240F32
:100E3000351F37832683848195812817390720F051
:100E40008081918197838683CB01668177810E941F
:100E5000581508951F93CF93DF93EC010FB6F894C4
:100E60000F921E8D0BC08989882351F0CE014196C7
:100E70000E940A0F81110E941110115011169CF34B
:100E80008FEF8E8F0F900FBE0FB6F8940F921D8DBF
:100E90000BC08885882351F0CE0108960E940A0F66
:100EA00081110E941110115011169CF38FEF8D8F3C
:100EB0000F900FBEDF91CF911F9108950F931F9355
:100EC000CF93DF93FC01362F892B09F44DC0238D7E
:100ED000222309F44BC0022F10E08FEF9FEFB801DF
:100EE0000E94B414448D842F90E06817790708F4A9
:100EF0003FC0EF010FB6F8940F9260817181FB0142
:100F0000249FE00DF11D1124FD83EC831A8E7B8359
:100F10006A8301501109809FA001819F500D909F0D
:100F2000500D1124CB01840F951F9F838E838FEF6B
:100F30008D8F8E8F31110CC08885882389F0CE016A
:100F400008960E940A0F882359F00E94DE0508C007
:100F5000CE0108960E94D004CE0141960E94D00492
:100F60000F900FBE81E005C080E003C080E001C0AB
:100F700080E0DF91CF911F910F910895FF920F9321
:100F80001F93CF93DF93F22EE801611103C0198301
:100F9000088302C0598348838B8F6C8F61E0CE0138
:100FA0000E945E07F9A2DF91CF911F910F91FF90F0
:100FB0000895DF92EF92FF920F931F93CF93DF93E9
:100FC000382FE62F882339F1682F70E08FEF9FEFDD
:100FD0000E94B4148E2F90E068177907F8F03E9FB6
:100FE000C00111248E3D2FEF9207D8F4D42EDE2FAE
:100FF000C32F82960E9408047C010097A1F0FC0197
:10100000178E8C012D2DAC014E5D5F4F6D2F8C2FF7
:101010000E94BE0708C0E12CF12C05C0E12CF12C88
:1010200002C0E12CF12CC701DF91CF911F910F91EC
:10103000FF90EF90DF900895CF92DF92EF92FF92B2
:101040000F931F93CF93DF9300D000D01F92CDB7A3
:10105000DEB78C017B015D834C83C22ED12C0FB691
:10106000F8940F92F801928D838D981718F0F2E0A2
:10107000CF1219C04C2DB701C8010E94B106F8016A
:101080009189992349F0C80141960E940A0F88234B
:1010900031F00E94DE0503C081110E94DE050F9031
:1010A0000FBE81E04DC08C819D81892B21F40F9072
:1010B0000FBE80E045C0D11006C0CE0101960E944F
:1010C000C70FDD24D3940F900FBE0E94720C0FB691
:1010D000F8940F92F801858D8F3F09F4158EF80171
:1010E000868D8F3F09F4168E0F900FBEBE016C5F88
:1010F0007F4FCE0101960E94D20F81111BC0C80103
:101100000E94A306882381F06C817D81C801089626
:101110000E94AF0EC8010E942A070E94860D81110D
:101120009ECF0E94DE059BCFC8010E942A070E9425
:10113000860D95CFC8010E942A070E94860D80E087
:101140000F900F900F900F900F90DF91CF911F9104
:101150000F91FF90EF90DF90CF900895EF92FF9264
:101160000F931F93CF93DF938A01FC01528D338D30
:10117000531710F0223001F5422F7801EC011E8D3B
:101180008A8DCE010E94B1061F3F81F48989882390
:10119000A9F0CE0141960E940A0F882389F0E1143C
:1011A000F10481F081E0F70180830DC0FF24F39406
:1011B000F10EFE8E81E007C080E005C081E003C033
:1011C00081E001C081E0DF91CF911F910F91FF90ED
:1011D000EF900895CF92DF92EF92FF920F931F93BB
:1011E000CF93DF9300D000D01F92CDB7DEB78C0134
:1011F0006B015D834C83E12C0FB6F8940F92F801DC
:10120000F28CFF20A9F0B601C8010E941007FA94E1
:10121000F801F28E8085882339F0C80108960E9473
:101220000A0F81110E94DE050F900FBE81E053C0AE
:101230008C819D81892B21F40F900FBE80E04BC0E3
:10124000E11006C0CE0101960E94C70FEE24E39480
:101250000F900FBE0E94720C0FB6F8940F92F80117
:10126000858D8F3F09F4158EF801868D8F3F09F427
:10127000168E0F900FBEBE016C5F7F4FCE010196A0
:101280000E94D20F81111BC0C8010E9496068823BC
:1012900081F06C817D81C80141960E94AF0EC8012A
:1012A0000E942A070E94860D8111A6CF0E94DE05AA
:1012B000A3CFC8010E942A070E94860D9DCFC801B6
:1012C0000E942A070E94860DC8010E949606882364
:1012D00009F492CF80E00F900F900F900F900F9035
:1012E000DF91CF911F910F91FF90EF90DF90CF9002
:1012F0000895CF93DF93EC016115710519F5A0E016
:10130000B0E025C0292F30E0F901EE0FFF1FEE0FEE
:10131000FF1FE15CFB4F428153814C175D0711F4C5
:10132000DF0115C0109761F4F901EE0FFF1FEE0FFA
:10133000FF1FE15CFB4F40815181452B09F4DF0128
:101340009F5F03C0A0E0B0E090E09830D8F2109723
:1013500039F011967C936E931396DC93CE9312978B
:10136000DF91CF910895CF93DF93EC010FB6F894FE
:101370000F928D8D8F3F09F41D8E8E8D8F3F09F456
:101380001E8E0F900FBE8A8D811104C0CE01419632
:101390000E94C10ECE010E942A07DF91CF910895CD
:1013A000E091DE03F091DF038081811107C08FEFB0
:1013B0009FEF9093B5038093B4030895E091DE030B
:1013C000F091DF030580F681E02D8081918190937B
:1013D000B5038093B4030895CF93DF93EC018F8915
:1013E000988D0E949D04CE010E949D04DF91CF91B3
:1013F00008952F923F924F925F926F927F928F92B9
:101400009F92AF92BF92CF92DF92EF920F931F9372
:10141000CF93DF93CDB7DEB71C014B0129013A0111
:10142000A90165EA70E0D50157968D919C91589776
:101430000E946115F5018789908DF1E04F1A5108DE
:10144000480E591E8114910489F417C0822F90E030
:10145000F401E80FF91F3081D501A80FB91F599683
:101460003C938081882329F02F5F01C020E02A303F
:1014700068F3D50192961C9202C0F501118EF4E03A
:10148000FE1518F46894EE24E2F8D5015696EC9215
:1014900056979596EC92959796961C92C501029652
:1014A0000E94DE04C5010C960E94DE04F501B1869F
:1014B000A08685E090E08E19910995878487B38A8C
:1014C000A28A84E0B796DF011D928A95E9F7F501BB
:1014D00013A6A801B101C2010E944305D5018D9355
:1014E0009C93C114D10419F0F601B182A082DF915E
:1014F000CF911F910F91EF90DF90CF90BF90AF9061
:101500009F908F907F906F905F904F903F902F9023
:101510000895CF93C0E010C08C2F90E09C01220F63
:10152000331F220F331F220F331F820F931F8E5042
:101530009C4F0E94D004CF5FC53070F389EE93E0DA
:101540000E94D00480EE93E00E94D00483ED93E0EB
:101550000E94D0048AEC93E00E94D00480EC93E0D7
:101560000E94D00489EE93E09093DF038093DE0322
:1015700080EE93E09093DD038093DC03CF91089598
:10158000CF93DF93EC010FB6F8940F928091BF03D5
:101590008F5F8093BF0380911F0490912004892B5B
:1015A00059F4D0932004C0931F048091BF0381306D
:1015B00099F40E94890A10C08091BB0381110CC06C
:1015C000E0911F04F091200496898E89891720F0FC
:1015D000D0932004C0931F048091B6038F5F809343
:1015E000B6038BA38E899091BC03981710F4809357
:1015F000BC0390E0FC01EE0FFF1FEE0FFF1FEE0F8C
:10160000FF1F8E0F9F1FFC01EE50FC4F0180F281E7
:10161000E02DFD83EC83848195819F838E83A4815B
:10162000B581CE01029613969C938E931297958363
:101630008483EE89F0E0CF01880F991F880F991FEE
:10164000880F991FE80FF91FEE50FC4FFB87EA87C0
:1016500080818F5F80830F900FBE8091BB038823B2
:1016600051F0E0911F04F091200496898E8998171B
:1016700010F40E94DE05DF91CF910895CF93DF93A0
:101680001CC00FB6F8940F92E091CF03F091D003F5
:10169000C681D781CE0102960E9413058091BF03B7
:1016A00081508093BF038091C90381508093C90307
:1016B0000F900FBECE010E94EC098091C9038111E9
:1016C000E0CFDF91CF9108950E943E0B8091F2030D
:1016D0008230D0F30E94DE05F7CFFF920F931F9365
:1016E000CF93DF93EC01F62E0091BD031091BE0362
:1016F00080911F049091200402960E941305CF3F11
:101700008FEFD807B1F5FF20A1F1E0ECF3E0A18164
:10171000B281C0911F04D0912004BD83AC83C091DD
:101720001F04D091200414968D919C9115979F834E
:101730008E831496CD91DC91159780911F04909122
:10174000200402969B838A8380911F049091200439
:10175000029615969C938E931497A0911F04B091B6
:1017600020041B96FC93EE931A9780818F5F8083F1
:101770002FC0C00FD11FE0911F04F0912004D3832C
:10178000C283C017D10768F460911F0470912004D0
:101790008091DC039091DD036E5F7F4F0E94E20435
:1017A00017C060911F04709120048091DE03909116
:1017B000DF036E5F7F4F0E94E2048091B40390913B
:1017C000B503C817D90720F4D093B503C093B40369
:1017D000DF91CF911F910F91FF9008952F923F922B
:1017E0004F925F926F927F928F929F92AF92BF9231
:1017F000CF92DF92EF92FF920F931F93CF93DF93DD
:101800003C011B015A012901CA010E9408046C0114
:10181000892B71F08CE290E00E940804EC01892B86
:1018200019F0D88ECF8A06C0C6010E949D0402C05E
:10183000C0E0D0E0209791F0950140E050E0812C8D
:10184000912C5E016701E02E8201B101C3010E946B
:10185000F909CE010E94C00A81E001C08FEFDF913B
:10186000CF911F910F91FF90EF90DF90CF90BF909D
:10187000AF909F908F907F906F905F904F903F9030
:101880002F900895EF92FF920F930F2EF2EBEF2E11
:10189000F3E0FF2EF02D00E020E030E048EC50E0D7
:1018A00065E670E084E69BE00E94EE0B813011F467
:1018B0000E94B112813081F4F8948FEF9FEF9093E2
:1018C000B5038093B40381E08093BB031092BE0301
:1018D0001092BD030E94AF05809162000F91FF90AE
:1018E000EF9008958091B1038F5F8093B1030895C5
:1018F0000FB6F8940F928091BD039091BE030F90A4
:101900000FBE08950F931F93CF93DF938091B10380
:101910008111EBC0C091BD03D091BE038E010F5F5A
:101920001F4F1093BE030093BD0301151105B9F4B9
:101930008091DE039091DF032091DC033091DD0381
:101940003093DF032093DE039093DD038093DC0369
:101950008091B7038F5F8093B7030E94D009809175
:10196000B4039091B5030817190720F480E0B8C0BC
:1019700081E001C080E0E091DE03F091DF0390811F
:10198000911107C02FEF3FEF3093B5032093B403BD
:10199000A7C0E091DE03F091DF030580F681E02D22
:1019A0000680F781E02D228133810217130728F486
:1019B0003093B5032093B40393C0A285B3852481EB
:1019C000358146815781E9015D834C8326813781CA
:1019D00044815581E9015B834A8311962D913C91A5
:1019E0001297AF014E5F5F4F2417350731F4268100
:1019F000378112963C932E931197138612869C91F1
:101A000091509C93A489B589109719F12685378543
:101A100060897189E9017D836C83208931896685BC
:101A20007785E9017B836A8311966D917C9112978A
:101A30009F01245F3F4F6217730731F4208931897A
:101A400012963C932E931197158A148A9C9191506B
:101A50009C9326899091BC03921710F42093BC03A9
:101A600030E0D901AA0FBB1FAA0FBB1FAA0FBB1FD3
:101A70002A0F3B1FD901AE50BC4F11960D90BC915F
:101A8000A02DB583A48314962D913C91159737838F
:101A9000268314962D913C911597E9015B834A8327
:101AA00015965C934E931497A689B0E09D01220F82
:101AB000331F220F331F220F331FA20FB31FAE504D
:101AC000BC4FB387A2879C919F5F9C932689E0912E
:101AD0001F04F09120049689291708F049CF4BCFB5
:101AE0009091B80391110CC00CC08091B9039091F2
:101AF000BA0301969093BA038093B90380E001C0C2
:101B000081E0DF91CF911F910F910895CF93DF93E3
:101B10000FB6F8940F928091B10381508093B10376
:101B20008091B1038111BFC08091BF03811196C024
:101B3000BDC0E091D803F091D9030680F781E02D74
:101B4000A489B589C685D785808991899D838C8331
:101B5000C089D189868597859B838A8311962D912B
:101B60003C911297CF010C962817390731F48089E0
:101B7000918912969C938E931197158A148A8C9151
:101B800081508C93A285B385C481D581868197814C
:101B90009D838C83C681D781848195819B838A8331
:101BA00011968D919C9112979F012E5F3F4F821746
:101BB000930731F48681978112969C938E931197A7
:101BC000138612868C9181508C9386899091BC03E8
:101BD000981710F48093BC0390E0DC01AA0FBB1FA0
:101BE000AA0FBB1FAA0FBB1F8A0F9B1FDC01AE50A1
:101BF000BC4F11960D90BC91A02DB583A483149673
:101C00008D919C911597978386831496CD91DC9145
:101C100015973B832A8315963C932E931497A68998
:101C2000B0E0CD01880F991F880F991F880F991F69
:101C3000A80FB91FAE50BC4FB387A2878C918F5F9E
:101C40008C939689A0911F04B091200456968C9194
:101C5000981730F081E08093B80302C0E0E0F0E034
:101C60008091D303811165CFEF2B11F00E94D00931
:101C7000C091B903D091BA03209769F00E94820CF9
:101C8000882319F081E08093B8032197B9F7109267
:101C9000BA031092B9038091B803882331F00E94EF
:101CA000DE0581E003C080E001C080E00F900FBE40
:101CB000DF91CF9108958091B103882321F081E0D5
:101CC0008093B80308951092B8032091BC0301C01B
:101CD0002150822F90E0FC01EE0FFF1FEE0FFF1F3F
:101CE000EE0FFF1FE80FF91FEE50FC4F308133233A
:101CF00079F3AC01440F551F440F551F440F551F76
:101D0000480F591FDF010180F281E02D0280F3812D
:101D1000E02D1296FC93EE9311974B505C4FE41715
:101D2000F50729F442815381FD0152834183FC016F
:101D3000EE0FFF1FEE0FFF1FEE0FFF1F8E0F9F1FF7
:101D4000FC01EE50FC4F0180F281E02D86819781ED
:101D50009093200480931F042093BC030895CF9395
:101D6000DF93EB0160911F0470912004645F7F4F4B
:101D70000E94E20461E0CE010E946D0BDF91CF91E1
:101D800008950F931F93CF93DF93FC018B01A181E3
:101D9000B28180911F0490912004EC01BF87AE872F
:101DA00080911F049091200414962D913C911597D9
:101DB000EC01398B288B14968D919C91159720916D
:101DC0001F0430912004245F3F4FEC013B832A83A2
:101DD00020911F0430912004245F3F4F15963C93BF
:101DE0002E931497A0911F04B09120045596FC9354
:101DF000EE93549790819F5F9083442311F00FEFEF
:101E00001FEF642FC8010E946D0BDF91CF911F91CE
:101E10000F910895CF93DF93DC011596ED91FC911E
:101E200016970680F781E02DA489B589C685D785E8
:101E3000808991899D838C83C089D1898685978586
:101E40009B838A8311968D919C9112979F01245FA9
:101E50003F4F8217930731F48089918912969C93A2
:101E60008E931197158A148A8C9181508C9380914E
:101E7000B103811160C0A285B385C481D5818681FB
:101E800097819D838C83C681D781848195819B8333
:101E90008A8311968D919C9112979F012E5F3F4FDF
:101EA0008217930731F48681978112969C938E93C3
:101EB0001197138612868C9181508C93868990910C
:101EC000BC03981710F48093BC0390E0DC01AA0FC8
:101ED000BB1FAA0FBB1FAA0FBB1F8A0F9B1FDC01D2
:101EE000AE50BC4F11960D90BC91A02DB583A4832C
:101EF00014968D919C911597978386831496CD9116
:101F0000DC9115973B832A8315963C932E93149767
:101F1000A689B0E0CD01880F991F880F991F880FFF
:101F2000991FA80FB91FAE50BC4FB387A2878C91E1
:101F30008F5F8C931CC043ED53E0DA011196CD9175
:101F4000DC911297D787C6878C819D81918B808B7E
:101F50008C819D81DC0113963C932E9312973D83D7
:101F60002C83558B448BDA018C918F5F8C939689EF
:101F7000E0911F04F09120048689891720F481E004
:101F80008093B80301C080E0DF91CF910895209144
:101F9000B703FC0120832091BD033091BE0332833F
:101FA000218308951F93CF93DF930FB6F8940F9278
:101FB000E091BD03F091BE03DC0111964D915C915F
:101FC0001297DF01A41BB50BEB01288139812F3F4C
:101FD000DFEF3D07F9F0EC011881C091B7031C1742
:101FE00041F0E417F50728F0FB011182108281E02F
:101FF00012C0A217B30748F4FB012A1B3B0B318325
:1020000020830E94C70F80E006C0DB011D921C9256
:1020100081E001C080E00F900FBEDF91CF911F9152
:10202000089581E08093B80308958091BB038823CD
:1020300031F08091B103811104C082E0089581E004
:10204000089580E008950F931F93CF93DF93FC01D1
:10205000892B09F451C086A1815086A3268995A1B8
:10206000291709F44BC081114BC0EF018F010E5F9E
:102070001F4FC8010E9413058DA18E8B25E030E013
:10208000281B31093D872C879091BC03981710F4C9
:102090008093BC0390E0FC01EE0FFF1FEE0FFF1FCB
:1020A000EE0FFF1F8E0F9F1FFC01EE50FC4F0180B3
:1020B000F281E02DFD83EC83848195819F838E8363
:1020C000A481B58113961C930E93129715830483F4
:1020D000EE89F0E0CF01880F991F880F991F880FB4
:1020E000991FE80FF91FEE50FC4FFB87EA878081AC
:1020F0008F5F808381E005C080E003C080E001C085
:1021000080E0DF91CF911F910F910895DC01E09164
:102110002904F0912A04808191E0811190E09C9340
:10212000911106C00580F681E02D8081918108958E
:1021300080E090E00895FC0173836283918780873B
:102140004617570790F0421B530B84859585481717
:102150005907E0F4BF016E5F7F4F80912704909193
:1021600028040E94E20480E008954217530718F4FF
:102170006217730768F4BF016E5F7F4F8091290477
:1021800090912A040E94E20480E0089581E008957D
:1021900081E00895EF92FF920F931F93CF93DF9307
:1021A000EC018B017A0108C08C859D85080F191FF1
:1021B000E889F989CE0109956C857D85600F711FCD
:1021C0009801A701CE010E949B108111EDCFDF91F4
:1021D000CF911F910F91FF90EF900895EF92FF9292
:1021E0000F931F93CF93DF938C017B01E091290420
:1021F000F0912A040580F681E02DC681D781CE01B9
:1022000002960E9413058B8982FF06C0A701B801C0
:10221000CE010E94CA1002C08E7F8B8BE889F9899B
:10222000CE010995DF91CF911F910F91FF90EF9013
:10223000089509C00580F681E02D6FEF7FEF808162
:1022400091810E94EE10E0912904F0912A0480818E
:102250008111F0CF809127049091280490932A0453
:1022600080932904F0932804E093270408950F93A2
:102270001F93CF93DF938C010E94780CEC01809127
:10228000210490912204C817D90730F40E94191133
:1022900081E0F801808302C0F8011082D09322040B
:1022A000C0932104CE01DF91CF911F910F9108952A
:1022B000CF92DF92EF92FF921F93CF93DF931F9203
:1022C000CDB7DEB77C01162F0E94720CCE010196AD
:1022D0000E9437116C018981811127C011110AC038
:1022E000CE14DF0438F00E94860DB601C7010E94AB
:1022F000EE101DC0112341F0E0912704F091280455
:10230000808111E0811110E0B7016C197D09412F26
:1023100080912504909126040E94B3090E94860DA5
:10232000811105C00E94DE0502C00E94860D0F903B
:10233000DF91CF911F91FF90EF90DF90CF900895A4
:10234000EF92FF920F931F93CF93DF9300D000D0B3
:1023500000D0CDB7DEB77AC0898188230CF476C06F
:102360000C811D81D8011A968D919C911B97892B08
:1023700021F0C80102960E941305CE0106960E9424
:1023800037117C01E9818E2FEE0F990BAA0BBB0B45
:10239000FC013197E930F10508F058C0E65DFF4FC8
:1023A0000C94C814F80183898160838B2A813B8156
:1023B00064857585620F731FA701C8010E949B1079
:1023C000882309F443C0D80153968C91539782FF18
:1023D0000DC06A817B811C968D919C911D97680F21
:1023E000791FA701C8010E94CA1003C08E7FF8019F
:1023F000838BD8015096ED91FC915197C8010995B6
:1024000025C0F80183898E7F838B20C0D801539625
:102410008C915397816053968C9353976A817B81FB
:102420001D967C936E931C976E0D7F1D9701A701DF
:10243000C8010E949B100AC0F801838981FD04C075
:10244000C8010E949D0402C08E7F838B40E050E053
:10245000BE016F5F7F4F80912504909126040E94FA
:10246000EA08811179CF26960FB6F894DEBF0FBE29
:10247000CDBFDF91CF911F910F91FF90EF90089505
:10248000CF93DF931F92CDB7DEB7CE0101960E94A6
:10249000861069810E9458110E94A011F6CF0FB6D4
:1024A000F8940F928091250490912604892B19F5B8
:1024B00084E394E00E94D0048BE294E00E94D00474
:1024C00084E394E090932A04809329048BE294E0BF
:1024D000909328048093270440E065E085E00E9403
:1024E000D9079093260480932504009721F06AE68B
:1024F00070E00E9479090F900FBE08957F928F922D
:102500009F92AF92BF92CF92DF92EF92FF920F9382
:102510001F93CF93DF934C015B01742E6901E70198
:102520000E944F1299828882BD86AC86DF86CE8655
:10253000198B088BC70102960E94DE04772019F0E0
:102540008B8984608B8BDF91CF911F910F91FF90CE
:10255000EF90DF90CF90BF90AF909F908F907F9043
:102560000895EF92FF920F930E944F1280912504DD
:1025700090912604892B91F00F2EF3E2EF2EF4E0D8
:10258000FF2EF02D04E020E030E048EC50E06FE654
:1025900070E080E492E10E94EE0B01C080E00F91B8
:1025A000FF90EF9008957F928F929F92AF92BF928B
:1025B000CF92DF92EF92FF920F931F93CF93DF930F
:1025C0006C015B01742E490184E190E00E940804D3
:1025D000EC01009741F01B8A7C019401472DB50165
:1025E000C6010E947E12CE01DF91CF911F910F9103
:1025F000FF90EF90DF90CF90BF90AF909F908F9023
:102600007F9008950F931F93CF93DF9300D000D056
:102610001F92CDB7DEB7E0912504F09126043097E4
:1026200071F1D90169835B834A839D838C83663012
:10263000ECF40E941510823061F420E0A801BE0184
:102640006F5F7F4F80912504909126040E941C08A3
:1026500017C020E040E050E0BE016F5F7F4F8091E7
:102660002504909126040E941C080AC020E0AD01B8
:10267000BE016F5F7F4FCF010E94AE0801C080E0B6
:102680000F900F900F900F900F90DF91CF911F91AF
:102690000F91089580913D04811108C063E384E0A7
:1026A0000E94DB0181E080933D040895813031F484
:1026B00062E384E00E94DB0110923D04089580E013
:1026C0000E940503811116C080913E04811112C041
:1026D0000E94780C00E010E020E030E0AC0162E005
:1026E00080916104909162040E94021381E08093C2
:1026F0003E04E5CF81E00E940503811115C0809161
:102700003E04811111C000E010E020E030E040E024
:1027100050E063E080916104909162040E94021392
:1027200081E080933E04CBCF82E00E9405038111BB
:1027300051C080913E0481114DC0209063003090C3
:102740006400220C331C3092640020926300222D1E
:10275000332D40E050E060E070E090E002E00E9445
:102760002D15A22EB32EC42ED52EE62EF72EE82F31
:10277000192F05E00E942D150E2F0E944F15A22C37
:10278000B32CC12CD12CE12CF12C00E010E00E94E4
:10279000461503E00E942D150F2EF8EEAF2EF02DFA
:1027A0000F2EF3E0BF2EF02D00E00E94D014922FE8
:1027B000832F00E010E020E030E0492F582F64E044
:1027C00080916104909162040E94021381E08093E1
:1027D0003E0475CF83E00E940503811153C08091B0
:1027E0003E0481114FC02090630030906400369405
:1027F00027943092640020926300222D332D40E014
:1028000050E060E070E090E002E00E942D15A22E02
:10281000B32EC42ED52EE62EF72EE82F192F05E065
:102820000E942D150E2F0E944F15A22CB32CC12CE7
:10283000D12CE12CF12C00E010E00E94461503E0C1
:102840000E942D150F2EF8EEAF2EF02D0F2EF3E077
:10285000BF2EF02DF12C00E010E00E94D014922F3A
:10286000832F00E010E020E030E0492F582F64E093
:1028700080916104909162040E94021381E0809330
:102880003E041DCF80E00E940503882309F417CF82
:1028900081E00E940503882309F411CF82E00E94A1
:1028A0000503882309F40BCF83E00E9405038823E6
:1028B00009F405CF10923E0402CFEF92FF920F93DE
:1028C0001F936AE280E00E9452006AE281E00E9467
:1028D00052006AE282E00E9452006AE283E00E94B3
:1028E000520069E284E00E94520069E285E00E94A1
:1028F00052000AE413E120E030E041E068EE73E0CA
:1029000087E790E00E94D312909362048093610461
:10291000E0905F04F090600400E020E030E044E6E6
:1029200050E06DE770E08FE593E10E94EE0B81309F
:1029300021F063E385E00E94DB010E94780C00E057
:1029400010E020E030E0AC0161E080916104909102
:1029500062040E9402130E94420C80E090E01F91EA
:102960000F91FF90EF900895AA1BBB1B51E107C088
:10297000AA1FBB1FA617B70710F0A61BB70B881F0F
:10298000991F5A95A9F780959095BC01CD0108959E
:10299000EE0FFF1F0590F491E02D0994689401C09B
:1029A000E8948F929F92CF93DF930E94DC14DF9183
:1029B000CF919F908F90089588249924F401E40189
:1029C000B0E49F93AA279A158B049C04ED05FE059D
:1029D000CF05D007A10798F4AD2FDC2FCF2FFE2F06
:1029E000E92D982C892E982F872F762F652F542F1D
:1029F000432F322F2227B85031F7BF9127C01B2E0B
:102A0000BF91BB27220F331F441F551F661F771F1F
:102A1000881F991F881C991CEE1FFF1FCC1FDD1FEC
:102A2000AA1FBB1F8A149B04EC05FD05CE05DF051C
:102A3000A007B10748F08A189B08EC09FD09CE09E8
:102A4000DF09A00BB10B21601A94E1F62EF494017A
:102A5000AF01BE01CD01000C08950F93083090F036
:102A6000982F872F762F652F542F432F322F222711
:102A70000850F4CF220F331F441F551F661F771FC6
:102A8000881F991F0A95B2F70F9108952A0D3B1DD3
:102A90004C1D5D1D6E1D7F1D801F911F08952A19FD
:102AA0003B094C095D096E097F09800B910B089564
:102AB000FB01DC0102C001900D9241505040D8F75B
:102AC0000895DC0101C06D9341505040E0F7089536
:042AD000F894FFCFA8
:102AD4001F0304E80349444C4500546D72510054EB
:102AE4006D722053766300746172656B006F6D6163
:022AF40072006E
:00000001FF
