:100000000C942A000C9434000C9434000C943400AA
:100010000C9434000C9434000C9434000C94340090
:100020000C9434000C9434000C9434000C94340080
:100030000C9434000C9434000C9434000C94340070
:100040000C9434000C9434000C9434000C94340060
:100050000C94340011241FBECFE5D8E0DEBFCDBF25
:100060000E9475000C94CA000C9400000F931F931B
:10007000FB01DA01B19922C04D915C9111974F5F5C
:100080005F4F11965C934E93118210824D915C915B
:10009000119761E04D3256072CF11D921C92DC0144
:1000A0004D915C91119741155105E1F441E050E00B
:1000B0004D935C93C801F901099514C020813181E9
:1000C0002F5F3F4F3183208311961C921E92208117
:1000D00031812536310534F0DC0111961C921E92D7
:1000E000118210821F910F9108958F929F92AF926B
:1000F000BF92CF92DF92EF92FF920F931F93DF9305
:10010000CF9300D000D000D0CDB7DEB7B998C19A58
:10011000BA9A0E94B2001A8219821C821B821E8225
:100120001D820F2EF3E0CF2EDD24F02DCC0EDD1E30
:100130000F2EF5E0AF2EBB24F02DAC0EBD1E0F2E02
:10014000F2EC8F2EF0E09F2EF02D7E010894E11C42
:10015000F11CC701B601A50194010FE010E00E9457
:100160003600F7CF80B58F7B80BD8AB188618AB9B0
:1001700080B5886080BD80B5866880BD10BC89E18F
:1001800089B908955D9BFECF8CB908955F9BFECF22
:080190008CB10895F894FFCF33
:00000001FF
