S013000052544F53205175657565732E7372656331
S11300000C942A000C946F030C9496030C94BD0377
S11300100C9447000C9447000C9447000C944C0932
S11300200C9447000C9447000C9447000C94470030
S11300300C9447000C94F7040C941E050C94470090
S11300400C9447000C9447000C9447000C94470010
S11300500C94470011241FBECFE5D8E0DEBFCDBF0E
S113006010E0A0E6B0E0E2E6F1E302C005900D92F4
S1130070A63DB107D9F724E0A6EDB0E001C01D927A
S1130080A338B207E1F70E9431060C94AF180C9420
S11300900000883008F05EC06932D1F44AB39DECA8
S11300A0899F912D1124969596959695990F292FB0
S11300B0220F220F920F891B21E030E0B90102C008
S11300C0660F771F8A95E2F7CB01842B8ABB0895CC
S11300D06832D9F44AB39DEC899F912D11249695E9
S11300E096959695990F292F220F220F920F891B0F
S11300F021E030E0B90102C0660F771F8A95E2F76C
S1130100CB01809584238ABB08956A3209F049C1E2
S11301104AB39DEC899F912D1124969596959695B9
S1130120990F292F220F220F920F891B21E030E013
S1130130B90102C0660F771F8A95E2F7CB01962FAB
S1130140909594239ABB90B79B7F90BF9BB3892BC8
S11301508BBB089596EF980F983008F05EC0693213
S1130160D1F447B39DEC899F912D112496959695D2
S11301709695990F292F220F220F920F891B21E0A8
S113018030E0B90102C0660F771F8A95E2F7CB0110
S1130190842B87BB08956832D9F447B39DEC899FBB
S11301A0912D1124969596959695990F292F220FA6
S11301B0220F920F891B21E030E0B90102C0660FC3
S11301C0771F8A95E2F7CB018095842387BB089536
S11301D06A3209F0E6C047B39DEC899F912D112442
S11301E0969596959695990F292F220F220F920F87
S11301F0891B21E030E0B90102C0660F771F8A95A0
S1130200E2F7CB01962F9095942397BB90B79B7FF1
S113021090BF98B3892B88BB08959CEE980F9830B3
S113022008F05EC06932D1F444B39DEC899F912DEE
S11302301124969596959695990F292F220F220FA2
S1130240920F891B21E030E0B90102C0660F771FCD
S11302508A95E2F7CB01842B84BB08956832D9F4E4
S113026044B39DEC899F912D11249695969596956E
S1130270990F292F220F220F920F891B21E030E0C2
S1130280B90102C0660F771F8A95E2F7CB0180950A
S1130290842384BB08956A3209F083C044B39DEC7F
S11302A0899F912D1124969596959695990F292FAE
S11302B0220F220F920F891B21E030E0B90102C006
S11302C0660F771F8A95E2F7CB01962F90959423BA
S11302D094BB90B79B7F90BF95B3892B85BB089542
S11302E092EE980F983008F05CC06932D1F441B3B3
S11302F09DEC899F912D1124969596959695990F2D
S1130300292F220F220F920F891B21E030E0B9011F
S113031002C0660F771F8A95E2F7CB01842B81BB5D
S113032008956832D9F441B39DEC899F912D11242D
S1130330969596959695990F292F220F220F920F35
S1130340891B21E030E0B90102C0660F771F8A954E
S1130350E2F7CB018095842381BB08956A3209F5C5
S113036041B39DEC899F912D112496959695969570
S1130370990F292F220F220F920F891B21E030E0C1
S1130380B90102C0660F771F8A95E2F7CB01962F59
S11303909095942391BB90B79B7F90BF92B3892B88
S11303A082BB0895883008F046C09DEC699F912D6A
S11303B01124969596959695990F292F220F220F21
S11303C0920F691B6130D1F44BB39DEC899F912D41
S11303D01124969596959695990F292F220F220F01
S11303E0920F891B21E030E0B90102C0660F771F2C
S11303F08A95E2F7CB01842B8BBB08956111FBC076
S11304004BB39DEC899F912D1124969596959695C5
S1130410990F292F220F220F920F891B21E030E020
S1130420B90102C0660F771F8A95E2F7CB01809568
S113043084238BBB089596EF980F983008F046C03C
S11304409DEC699F912D1124969596959695990FFB
S1130450292F220F220F920F691B6130D1F448B368
S11304609DEC899F912D1124969596959695990FBB
S1130470292F220F220F920F891B21E030E0B901AE
S113048002C0660F771F8A95E2F7CB01842B88BBE5
S113049008956111B0C048B39DEC899F912D11243A
S11304A0969596959695990F292F220F220F920FC4
S11304B0891B21E030E0B90102C0660F771F8A95DD
S11304C0E2F7CB018095842388BB08959CEE980FB6
S11304D0983008F046C09DEC699F912D11249695A3
S11304E096959695990F292F220F220F920F691B2B
S11304F06130D1F445B39DEC899F912D11249695DB
S113050096959695990F292F220F220F920F891BEA
S113051021E030E0B90102C0660F771F8A95E2F747
S1130520CB01842B85BB0895611165C045B39DEC57
S1130530899F912D1124969596959695990F292F1B
S1130540220F220F920F891B21E030E0B90102C073
S1130550660F771F8A95E2F7CB018095842385BBCC
S1130560089592EE980F983008F045C09DEC699F6D
S1130570912D1124969596959695990F292F220FD2
S1130580220F920F691B6130D1F442B39DEC899F15
S1130590912D1124969596959695990F292F220FB2
S11305A0220F920F891B21E030E0B90102C0660FCF
S11305B0771F8A95E2F7CB01842B82BB08956111E2
S11305C01AC042B39DEC899F912D1124969596955E
S11305D09695990F292F220F220F920F891B21E044
S11305E030E0B90102C0660F771F8A95E2F7CB01AC
S11305F08095842382BB08958830C8F429B39DEC88
S1130600899F912D1124969596959695990F392F3A
S1130610330F330F930F891B30E002C035952795B4
S11306208A95E2F781E020FD59C080E0089596EFB5
S1130630980F9830C8F426B39DEC899F912D11240E
S1130640969596959695990F392F330F330F930FEF
S1130650891B30E002C0359527958A95E2F781E041
S113066020FD3CC080E008959CEE980F9830C8F4BB
S113067023B39DEC899F912D11249695969596957B
S1130680990F392F330F330F930F891B30E002C0BA
S1130690359527958A95E2F781E020FD1FC080E01B
S11306A0089592EE980F9830C8F420B39DEC899F7A
S11306B0912D1124969596959695990F392F330F70
S11306C0330F930F891B30E002C0359527958A9527
S11306D0E2F781E020FD02C080E0089508951F92B2
S11306E00F920FB60F9211242F933F934F935F9362
S11306F06F937F938F939F93AF93BF93EF93FF93E6
S1130700E091DA00F091DB000995FF91EF91BF9140
S1130710AF919F918F917F916F915F914F913F9195
S11307202F910F900FBE0F901F9018951F920F924C
S11307300FB60F9211242F933F934F935F936F93B0
S11307407F938F939F93AF93BF93EF93FF93E09126
S1130750D800F091D9000995FF91EF91BF91AF9125
S11307609F918F917F916F915F914F913F912F91C5
S11307700F900FBE0F901F9018951F920F920FB6F7
S11307800F9211242F933F934F935F936F937F9313
S11307908F939F93AF93BF93EF93FF93E091D60012
S11307A0F091D7000995FF91EF91BF91AF919F917F
S11307B08F917F916F915F914F913F912F910F9006
S11307C00FBE0F901F9018954F925F926F927F9279
S11307D08F929F92AF92BF92CF92DF92EF92FF924D
S11307E0CF93DF93CDB7DEB760970FB6F894DEBF33
S11307F00FBECDBFDC01693239F511968C9111978A
S11308008F938C918F9382E790E09F938F93CE0187
S113081001969F938F930E94C5150F900F900F9090
S11308200F900F900F9080E090E004C05D9BFECF8E
S11308302CB90196E1E0F0E0EC0FFD1FE80FF91F81
S113084020812111F3CF5FC0683209F046C0CD90FA
S1130850DD90ED90FC90C701B6010E9469142B0154
S11308603C019B01AC01C701B6010E94C6134B01B8
S11308705C01C301B2010E943314F62EE72E20E07E
S113088030E04AE754E4C501B4010E9412150E9405
S113089033147F936F93EF92FF928FE690E09F93D0
S11308A08F93CE0101969F938F930E94C5150FB627
S11308B0F894DEBF0FBECDBF80E090E004C05D9B26
S11308C0FECF2CB90196E1E0F0E0EC0FFD1FE80F3C
S11308D0F91F20812111F3CF16C06A3219F48C91CB
S11308E08CB911C06B3279F406C05D9BFECF9CB904
S11308F02F5F3F4F02C020E030E0FD01E20FF31F05
S113090090819111F2CF60960FB6F894DEBF0FBEBE
S1130910CDBFDF91CF91FF90EF90DF90CF90BF904C
S1130920AF909F908F907F906F905F904F900895BD
S1130930CF92DF92EF92FF9290937A04809379049E
S1130940092E000CAA0BBB0B880F991FAA1FBB1FF3
S1130950880F991FAA1FBB1F9C01AD01220F331FD3
S1130960441F551F220F331F441F551F0F2EC12C28
S1130970F2E1DF2EFAE7EF2EF12CF02DC701B601DC
S11309800E949315DA01C9010197A109B109892FC0
S11309909A2FAB2FBB2780BD2091790430917A0424
S11309A0C901330FAA0BBB0B880F991FAA1FBB1FCA
S11309B0880F991FAA1FBB1F9C01AD01220F331F73
S11309C0441F551F220F331F441F551FC701B60173
S11309D00E949315215029B98AB188618AB980B5DA
S11309E0866880BDFF90EF90DF90CF9008951F92AE
S11309F00F920FB60F9211242F933F934F935F934F
S1130A006F937F938F939F93AF93BF93EF93FF93D2
S1130A10E091DE00F091DF000995FF91EF91BF9125
S1130A20AF919F918F917F916F915F914F913F9182
S1130A302F910F900FBE0F901F9018951F920F9239
S1130A400FB60F9211242F933F934F935F936F939D
S1130A507F938F939F93AF93BF93EF93FF93E09113
S1130A60DC00F091DD000995FF91EF91BF91AF910A
S1130A709F918F917F916F915F914F913F912F91B2
S1130A800F900FBE0F901F90189500E010E080E0CB
S1130A900E94FC0281112DC08091810490918204F6
S1130AA00097A9F1C12FD0E0BE0168597F4F22E021
S1130AB040E050E00E94D30A80917B0490917C0432
S1130AC00097E9F0BE01660F771F605A7F4F22E05E
S1130AD040E050E00E94D30A133028F4011103C00F
S1130AE01F5F01E014C0133060F0002361F001E0E7
S1130AF00EC080E00E94FC02811108C008C001E021
S1130B0006C001E004C001E010E001C000E080E0A4
S1130B1090E00E94E511BBCFCF93DF93CDB7DEB752
S1130B202B970FB6F894DEBF0FBECDBF198241E0FC
S1130B3050E0BE016F5F7F4F8091810490918204E9
S1130B400E94650B813009F07BC041E050E0BE019A
S1130B506E5F7F4F80917B0490917C040E94650BB3
S1130B60813009F06DC089818130A9F463E30E946A
S1130B70D20162E382E00E94D20162E383E00E9438
S1130B80D20162E384E00E94D2016BE285E790E047
S1130B900E94E40355C08230A9F463E30E94D201A9
S1130BA062E381E00E94D20162E383E00E94D20109
S1130BB062E384E00E94D2016BE28FE790E00E943E
S1130BC0E4033EC08330A9F463E30E94D20162E3EC
S1130BD081E00E94D20162E382E00E94D20162E3DA
S1130BE084E00E94D2016BE28CE890E00E94E4036E
S1130BF027C08430A9F463E30E94D20162E381E058
S1130C000E94D20162E382E00E94D20162E383E0A7
S1130C100E94D2016BE287E990E00E94E40310C0D5
S1130C2062E381E00E94D20162E382E00E94D20189
S1130C3062E383E00E94D20162E384E00E94D20175
S1130C4063E080E090E00E94810E80917D049091A9
S1130C507E040E94200F61E080E090E00E94810EFB
S1130C6066CFEF92FF920F9380E895E20E9498047A
S1130C706AE280E00E94490069E281E00E94490042
S1130C8069E282E00E94490069E283E00E9449002F
S1130C9069E284E00E94490040E064E081E00E944F
S1130CA0920A909382048093810440E068E081E09A
S1130CB00E94920A90937C0480937B04E0907D04CC
S1130CC0F0907E0402E020E030E04AEF50E063EA76
S1130CD070E085E495E00E942D0EE0907F04F09092
S1130CE0800401E020E030E04AEF50E06FEA70E079
S1130CF08CE895E00E942D0E0E94860F80E090E023
S1130D000F91FF90EF900895FFCFA5EEB0E0E9EECC
S1130D10F0E01196FC93EE9313961C921E92129798
S1130D20A1EEB0E08FE193E013969C938E9312971B
S1130D3011961C921E9293838283B183A08308959B
S1130D40EF92FF920F931F93CF93DF93EC010E94D6
S1130D50B20F8091E000811105C00E94850681E0F8
S1130D608093E000209771F0CE010496C817D9074C
S1130D7038F425968C179D0728F0C0E0D0E002C017
S1130D80C0E0D0E0209709F45EC020916C0030915F
S1130D906D002C173D0708F459C0E091E500F0916F
S1130DA0E600A5EEB0E002C0DF01FC018281938180
S1130DB08C179D0720F4808191810097A9F780E02A
S1130DC0E13EF80709F445C00D911C9111970C5FA1
S1130DD01F4F808191818D939C93828193818C1B81
S1130DE09D0B8930910530F1BF016C0F7D1FDB0134
S1130DF013969C938E931297D383C28312964D912C
S1130E005C9113970F2EF5EEEF2EF0E0FF2EF02DF0
S1130E1001C07D01E701A881B98112968D919C9151
S1130E20139784179507A8F3EB01B983A883D70117
S1130E306D937C9382819381281B390B30936D00D1
S1130E4020936C0008C000E010E005C000E010E052
S1130E5002C000E010E00E94BC10C801DF91CF91F5
S1130E601F910F91FF90EF9008950F931F93CF93CD
S1130E70DF93009741F1EC018C01045011090E94A9
S1130E80B20FF80142815381A5EEB0E001C0DF0149
S1130E90ED91FC9111972281338124173507B8F322
S1130EA02497F983E8830D931C938A819B81209175
S1130EB06C0030916D00820F931F90936D008093AE
S1130EC06C000E94BC10DF91CF911F910F91089587
S1130ED0FC010396928381832FEF3FEF34832383B6
S1130EE0968385839087878310820895FC011186F9
S1130EF010860895CF93DF939C01FB01DC011196CA
S1130F00CD91DC911297D383C2838C819D8195838B
S1130F1084838C819D81DC0113967C936E9312975C
S1130F207D836C8331872087F90180818F5F808383
S1130F30DF91CF910895CF93DF93EB0148815981DD
S1130F404F3F2FEF520721F4FC01A781B0850DC05C
S1130F50DC01139601C0DF011296ED91FC91139709
S1130F602081318142175307B0F71296ED91FC911D
S1130F701397FB83EA83D583C483BD83AC83139621
S1130F80DC93CE93129799878887FC0120812F5F89
S1130F902083DF91CF910895CF93DF93FC01A08547
S1130FA0B185C281D381848195819D838C83C481E1
S1130FB0D581828193819B838A8311968D919C91A3
S1130FC01297E817F90731F48481958112969C935E
S1130FD08E931197118610868C9181508C938C91ED
S1130FE0DF91CF9108951BBC8CE78ABD8BE08EBD49
S1130FF089B7806189BF089531E1FC01308331975D
S113100022E220833197A3E3A08331976083319751
S1131010708331971082319760E860833197108232
S1131020319762E06083319763E06083319764E0D5
S11310306083319765E06083319766E06083319720
S113104067E06083319768E06083319769E060838B
S1131050319760E1608331973083319732E1308397
S1131060319733E13083319734E13083319735E17F
S11310703083319736E13083319737E130833197CC
S113108038E13083319739E13083319730E230836E
S1131090319731E2308331972083319723E22083E3
S11310A03197408331975083319726E220833197DB
S11310B027E22083319728E22083319729E2208395
S11310C0319720E32083319721E320838697089585
S11310D00E94F307A0917704B0917804CD91CDBF1D
S11310E0DD91DEBFFF91EF91DF91CF91BF91AF9181
S11310F09F918F917F916F915F914F913F912F912C
S11311001F910F91FF90EF90DF90CF90BF90AF9021
S11311109F908F907F906F905F904F903F902F9013
S11311201F900F900FBE0F90089581E008950F92C5
S11311300FB6F8940F921F9211242F923F924F9260
S11311405F926F927F928F929F92AF92BF92CF9253
S1131150DF92EF92FF920F931F932F933F934F933E
S11311605F936F937F938F939F93AF93BF93CF932B
S1131170DF93EF93FF93A0917704B09178040DB6B9
S11311800D920EB60D920E949111A0917704B09128
S11311907804CD91CDBFDD91DEBFFF91EF91DF915A
S11311A0CF91BF91AF919F918F917F916F915F91FB
S11311B04F913F912F911F910F91FF90EF90DF90EE
S11311C0CF90BF90AF909F908F907F906F905F90E3
S11311D04F903F902F901F900F900FBE0F90089547
S11311E00F920FB6F8940F921F9211242F923F92F0
S11311F04F925F926F927F928F929F92AF92BF9223
S1131200CF92DF92EF92FF920F931F932F933F930E
S11312104F935F936F937F938F939F93AF93BF93FA
S1131220CF93DF93EF93FF93A0917704B091780469
S11312300DB60D920EB60D920E94B80F81110E9448
S11312409111A0917704B0917804CD91CDBFDD9137
S1131250DEBFFF91EF91DF91CF91BF91AF919F914D
S11312608F917F916F915F914F913F912F911F913A
S11312700F91FF90EF90DF90CF90BF90AF909F9031
S11312808F907F906F905F904F903F902F901F9022
S11312900F900FBE0F9008950E94F00818950FB696
S11312A0F8940F92FC01828D811102C081E001C08B
S11312B080E00F900FBE08950FB6F8940F92FC01D2
S11312C0228D838D281302C081E001C080E00F903D
S11312D00FBE08950F931F93CF93DF93EC01042F58
S11312E01A8D4C8D41110CC088819981892B09F08C
S11312F042C08C819D810E9463131D821C8242C066
S1131300011117C050E08A819B810E94B5152C8D74
S11313108A819B81820F911D9B838A832C813D81CD
S11313208217930750F1888199819B838A8380E097
S113133029C050E08E819F810E94B5158C8D90E06C
S11313409195819591092E813F81280F391F3F8303
S11313502E83488159812417350730F42C813D812F
S1131360820F931F9F838E83023049F4112349F027
S1131370115080E007C080E005C080E003C080E039
S113138001C080E01F5F1A8FDF91CF911F910F91F1
S11313900895FC01448D4423A9F050E0268137814F
S11313A0240F351F378326838481958128173907B5
S11313B020F08081918197838683CB016681778138
S11313C00E94B51508951F93CF93DF93EC010FB6D8
S11313D0F8940F921E8D0BC08989882351F0CE0199
S11313E041960E94581281110E945F1311501116E8
S11313F09CF38FEF8E8F0F900FBE0FB6F8940F9261
S11314001D8D0BC08885882351F0CE0108960E945B
S1131410581281110E945F13115011169CF38FEF23
S11314208D8F0F900FBEDF91CF911F9108950F9371
S11314301F93CF93DF93FC01362F892B09F44DC002
S1131440238D222309F44BC0022F10E08FEF9FEF6E
S1131450B8010E947F15448D842F90E068177907A6
S113146008F43FC0EF010FB6F8940F9260817181C8
S1131470FB01249FE00DF11D1124FD83EC831A8EE2
S11314807B836A8301501109809FA001819F500DC5
S1131490909F500D1124CB01840F951F9F838E8341
S11314A08FEF8D8F8E8F31110CC08885882389F042
S11314B0CE0108960E945812882359F00E9497087A
S11314C008C0CE0108960E946807CE0141960E948A
S11314D068070F900FBE81E005C080E003C080E084
S11314E001C080E0DF91CF911F910F910895FF9289
S11314F00F931F93CF93DF93F22EE801611103C082
S11315001983088302C0598348838B8F6C8F61E0F1
S1131510CE010E94170AF8A2DF91CF911F910F917B
S1131520FF900895DF92EF92FF920F931F93CF9352
S1131530DF93382FE62F882329F1682F70E08FEF8F
S11315409FEF0E947F158E2F90E068177907E8F0CF
S11315503E9FC00111248F3D2FEF9207C8F4D42E73
S1131560DE2FC32F81960E94A0067C01009791F084
S11315708C012D2DAC014F5D5F4F6D2F8C2F0E9480
S1131580770A08C0E12CF12C05C0E12CF12C02C033
S1131590E12CF12CC701DF91CF911F910F91FF90A6
S11315A0EF90DF900895CF92DF92EF92FF920F9326
S11315B01F93CF93DF9300D000D01F92CDB7DEB737
S11315C08C017B015D834C83C22ED12C0FB6F89421
S11315D00F92F801928D838D981718F0F2E0CF12D4
S11315E019C04C2DB701C8010E946A09F8019189FC
S11315F0992349F0C80141960E945812882331F07A
S11316000E94970803C081110E9497080F900FBE93
S113161081E04DC08C819D81892B21F40F900FBEF8
S113162080E045C0D11006C0CE0101960E9415137A
S1131630DD24D3940F900FBE0E94B20F0FB6F8941E
S11316400F92F801858D8F3F09F4158EF801868D70
S11316508F3F09F4168E0F900FBEBE016C5F7F4F53
S1131660CE0101960E94201381111BC0C8010E9463
S11316705C09882381F06C817D81C80108960E94F1
S11316804612C8010E94E3090E94BC1081119ECF3A
S11316900E9497089BCFC8010E94E3090E94BC10D6
S11316A095CFC8010E94E3090E94BC1080E00F900E
S11316B00F900F900F900F90DF91CF911F910F918A
S11316C0FF90EF90DF90CF900895CF92DF92EF924A
S11316D0FF920F931F93CF93DF9300D000D01F92FC
S11316E0CDB7DEB78C017B015D834C83D12C0FB663
S11316F0F8940F92F801828D8823B9F0C680D780C0
S1131700B701C8010E94C909F801D782C68281893C
S1131710882339F0C80141960E94581281110E9411
S113172097080F900FBE81E053C08C819D81892B57
S113173021F40F900FBE80E04BC0D11006C0CE0143
S113174001960E941513DD24D3940F900FBE0E94BE
S1131750B20F0FB6F8940F92F801858D8F3F09F4FC
S1131760158EF801868D8F3F09F4168E0F900FBEEB
S1131770BE016C5F7F4FCE0101960E942013811140
S11317801BC0C8010E944F09882381F06C817D81B0
S1131790C80141960E944612C8010E94E3090E94B2
S11317A0BC108111A4CF0E949708A1CFC8010E9448
S11317B0E3090E94BC109BCFC8010E94E3090E9468
S11317C0BC10C8010E944F09882309F490CF80E01F
S11317D00F900F900F900F900F90DF91CF911F916A
S11317E00F91FF90EF90DF90CF900895FC01228538
S11317F033852851344059F4FC0184899589F4E0F7
S11318008B329F0731F0892B31F080E0089580E01E
S1131810089580E0089581E00895E0913604F09100
S113182037048081811107C08FEF9FEF90930D04DF
S113183080930C040895E0913604F09137040580F8
S1131840F681E02D8081918190930D0480930C04A6
S11318500895CF93DF93EC018F89988D0E9435070B
S1131860CE010E943507DF91CF9108952F923F92C8
S11318704F925F926F927F928F929F92AF92BF929C
S1131880CF92DF92EF920F931F93CF93DF93CDB755
S1131890DEB71C014B0129013A01A90165EA70E098
S11318A0D50157968D919C9158970E94BE15F501CC
S11318B08789908DF1E04F1A5108480E591E811402
S11318C0910489F417C0822F90E0F401E80FF91F06
S11318D03081D501A80FB91F59963C938081882384
S11318E029F02F5F01C020E02A3068F3D5019296D9
S11318F01C9202C0F501118EF4E0FE1518F46894F0
S1131900EE24E2F8D5015696EC9256979596EC9211
S1131910959796961C92C50102960E947607C5017A
S11319200C960E947607F501B186A08685E090E0CA
S11319308E19910995878487B38AA28A84E0B79621
S1131940DF011D928A95E9F7F50113A6A801B101FB
S1131950C2010E94FC07D5018D939C93C114D1044C
S113196019F0F601B182A082DF91CF911F910F91FE
S1131970EF90DF90CF90BF90AF909F908F907F902B
S11319806F905F904F903F902F900895CF93C0E059
S113199010C08C2F90E09C01220F331F220F331FA5
S11319A0220F331F820F931F865B9B4F0E94680791
S11319B0CF5FC53070F381E494E00E94680788E348
S11319C094E00E9468078BE294E00E94680782E238
S11319D094E00E94680788E194E00E94680781E42B
S11319E094E0909337048093360488E394E09093D2
S11319F0350480933404CF910895CF93DF93EC01A1
S1131A000FB6F8940F92809117048F5F8093170498
S1131A108091770490917804892B59F4D0937804B9
S1131A20C093770480911704813099F40E94C60C06
S1131A3010C08091130481110CC0E0917704F091DF
S1131A40780496898E89891720F0D0937804C093FE
S1131A50770480910E048F5F80930E048BA38E898C
S1131A6090911404981710F48093140490E0FC01EE
S1131A70EE0FFF1FEE0FFF1FEE0FFF1F8E0F9F1FB6
S1131A80FC01E65BFB4F0180F281E02DFD83EC83DA
S1131A90848195819F838E83A481B581CE01029632
S1131AA013969C938E93129795838483EE89F0E02A
S1131AB0CF01880F991F880F991F880F991FE80F6E
S1131AC0F91FE65BFB4FFB87EA8780818F5F80838A
S1131AD00F900FBE80911304882351F0E091770496
S1131AE0F091780496898E89981710F40E949708CB
S1131AF0DF91CF910895CF93DF931CC00FB6F89474
S1131B000F92E0912704F0912804C681D781CE0179
S1131B1002960E94CC078091170481508093170489
S1131B20809121048150809321040F900FBECE0137
S1131B300E94290C809121048111E0CFDF91CF9183
S1131B400895FF920F931F93CF93DF93EC01F62E2A
S1131B5000911504109116048091770490917804F3
S1131B6002960E94CC07CF3F8FEFD807B1F5FF2034
S1131B70A1F1E8E1F4E0A181B281C0917704D091B0
S1131B807804BD83AC83C0917704D0917804149613
S1131B908D919C9115979F838E831496CD91DC91A2
S1131BA01597809177049091780402969B838A8399
S1131BB08091770490917804029615969C938E9365
S1131BC01497A0917704B09178041B96FC93EE933C
S1131BD01A9780818F5F80832FC0C00FD11FE0913F
S1131BE07704F0917804D383C283C017D10768F4D3
S1131BF06091770470917804809134049091350455
S1131C006E5F7F4F0E949B0717C0609177047091AD
S1131C10780480913604909137046E5F7F4F0E9460
S1131C209B0780910C0490910D04C817D90720F4E8
S1131C30D0930D04C0930C04DF91CF911F910F91A9
S1131C40FF9008950E947B0D80914A04823010F029
S1131C500E9497080E948406F5CF2F923F924F92DC
S1131C605F926F927F928F929F92AF92BF92CF9228
S1131C70DF92EF92FF920F931F93CF93DF933C0178
S1131C801B015A012901CA010E94A0066C01892B7B
S1131C9071F08CE290E00E94A006EC01892B19F00F
S1131CA0D88ECF8A06C0C6010E94350702C0C0E0A4
S1131CB0D0E0209791F0950140E050E0812C912CE8
S1131CC05E016701E02E8201B101C3010E94360C5E
S1131CD0CE010E94FD0C81E001C08FEFDF91CF9116
S1131CE01F910F91FF90EF90DF90CF90BF90AF9036
S1131CF09F908F907F906F905F904F903F902F9028
S1131D000895EF92FF921F93CF93DF93EC01653018
S1131D1008F064E00FB6F8940F92209721F4C09174
S1131D207704D09178049DA1691709F481C09617AE
S1131D3080F42091770430917804C217D30791F08E
S1131D40E0917704F09178048689681768F410E0CC
S1131D500EC02091770430917804C217D30731F074
S1131D6010E005C010E003C011E001C011E08E894D
S1131D70981301C06E8B6DA32C853D85332334F0FD
S1131D8025E030E0261B31093D872C872A853B85D9
S1131D9090E0AC01440F551F440F551F440F551FCD
S1131DA0840F951F865B9B4F28173907F1F57E0139
S1131DB082E0E80EF11CC7010E94CC078E89909145
S1131DC01404981710F48093140490E0FC01EE0FAF
S1131DD0FF1FEE0FFF1FEE0FFF1F8E0F9F1FFC0153
S1131DE0E65BFB4F0180F281E02DFD83EC8384816F
S1131DF095819F838E83A481B5811396FC92EE9284
S1131E001297F582E4828E8990E0FC01EE0FFF1FA9
S1131E10EE0FFF1FEE0FFF1FE80FF91FE65BFB4FEE
S1131E20FB87EA8780818F5F808311110E94970866
S1131E300F900FBEDF91CF911F91FF90EF90089507
S1131E400F931F93CF93DF932091770430917804FD
S1131E508217930709F455C0009709F452C0EC01A6
S1131E600FB6F8940F920E94F60B882309F447C02A
S1131E708E010E5F1F4FC8010E94CC078E8990917E
S1131E801404981710F48093140490E0FC01EE0FEE
S1131E90FF1FEE0FFF1FEE0FFF1F8E0F9F1FFC0192
S1131EA0E65BFB4F0180F281E02DFD83EC838481AE
S1131EB095819F838E83A481B58113961C930E9381
S1131EC0129715830483EE89F0E0CF01880F991FE0
S1131ED0880F991F880F991FE80FF91FE65BFB4FC6
S1131EE0FB87EA8780818F5F80839E89E0917704F6
S1131EF0F09178048689981710F00E9497080F9043
S1131F000FBEDF91CF911F910F910895EF92FF9231
S1131F100F930F2EFAE0EF2EF4E0FF2EF02D00E0E9
S1131F2020E030E048EC50E060ED70E082E29EE0BA
S1131F300E942D0E813081F4F8948FEF9FEF9093DF
S1131F400D0480930C0481E0809313041092160412
S1131F50109215040E94680880916E000F91FF9002
S1131F60EF900895809109048F5F80930904089588
S1131F700F931F93CF93DF93809109048111EBC0DA
S1131F80C0911504D09116048E010F5F1F4F10935A
S1131F9016040093150401151105B9F48091360453
S1131FA090913704209134043091350430933704F0
S1131FB020933604909335048093340480910F0465
S1131FC08F5F80930F040E940D0C80910C049091FC
S1131FD00D040817190720F480E0B8C081E001C09F
S1131FE080E0E0913604F09137049081911107C0AC
S1131FF02FEF3FEF30930D0420930C04A7C0E09122
S11320003604F09137040580F681E02D0680F781CF
S1132010E02D228133810217130728F430930D0435
S113202020930C0493C0A285B38524813581468115
S11320305781E9015D834C83268137814481558131
S1132040E9015B834A8311962D913C911297AF016C
S11320504E5F5F4F2417350731F42681378112967E
S11320603C932E931197138612869C9191509C93C6
S1132070A489B589109719F12685378560897189F6
S1132080E9017D836C832089318966857785E9013F
S11320907B836A8311966D917C9112979F01245FD3
S11320A03F4F6217730731F42089318912963C93AC
S11320B02E931197158A148A9C9191509C9326898A
S11320C090911404921710F42093140430E0D90171
S11320D0AA0FBB1FAA0FBB1FAA0FBB1F2A0F3B1FB0
S11320E0D901A65BBB4F11960D90BC91A02DB58371
S11320F0A48314962D913C911597378326831496C7
S11321002D913C911597E9015B834A8315965C9365
S11321104E931497A689B0E09D01220F331F220F1E
S1132120331F220F331FA20FB31FA65BBB4FB3870E
S1132130A2879C919F5F9C932689E0917704F091FC
S113214078049689291708F049CF4BCF9091100451
S113215091110CC00CC0809111049091120401964D
S1132160909312048093110480E001C081E0DF9118
S1132170CF911F910F910895CF93DF930FB6F894E9
S11321800F9280910904815080930904809109047D
S11321908111BFC080911704811196C0BDC0E09128
S11321A03004F09131040680F781E02DA489B589CB
S11321B0C685D785808991899D838C83C089D1897F
S11321C0868597859B838A8311962D913C911297DE
S11321D0CF010C962817390731F48089918912961A
S11321E09C938E931197158A148A8C9181508C93A9
S11321F0A285B385C481D581868197819D838C8393
S1132200C681D781848195819B838A8311968D9120
S11322109C9112979F012E5F3F4F8217930731F4D1
S11322208681978112969C938E93119713861286BA
S11322308C9181508C93868990911404981710F492
S11322408093140490E0DC01AA0FBB1FAA0FBB1FEC
S1132250AA0FBB1F8A0F9B1FDC01A65BBB4F119605
S11322600D90BC91A02DB583A48314968D919C915F
S11322701597978386831496CD91DC9115973B83AC
S11322802A8315963C932E931497A689B0E0CD012A
S1132290880F991F880F991F880F991FA80FB91FBE
S11322A0A65BBB4FB387A2878C918F5F8C93968973
S11322B0A0917704B091780456968C91981730F0D9
S11322C081E08093100402C0E0E0F0E080912B04F0
S11322D0811165CFEF2B11F00E940D0CC0911104F8
S11322E0D0911204209769F00E94B80F882319F046
S11322F081E0809310042197B9F710921204109290
S1132300110480911004882331F00E94970881E021
S113231003C080E001C080E00F900FBEDF91CF9139
S1132320089580910904882321F081E080931004AA
S11323300895109210042091140401C02150822F9A
S113234090E0FC01EE0FFF1FEE0FFF1FEE0FFF1FCB
S1132350E80FF91FE65BFB4F3081332379F3AC01BF
S1132360440F551F440F551F440F551F480F591F45
S1132370DF010180F281E02D0280F381E02D1296CD
S1132380FC93EE931197435B5B4FE417F50729F435
S113239042815381FD0152834183FC01EE0FFF1FF3
S11323A0EE0FFF1FEE0FFF1F8E0F9F1FFC01E65B5A
S11323B0FB4F0180F281E02D868197819093780410
S11323C0809377042093140408950F931F93CF935D
S11323D0DF93EC010FB6F8940F92892B21F4C0918E
S11323E07704D09178048E010E5F1F4FC8010E94BC
S11323F0CC078C899D89892B21F0CE010C960E94F3
S1132400CC07B80188E194E00E947A0780E00FC00D
S1132410282F082E000C330BFE01E20FF31F93A5A7
S1132420913021F4FE01E20FF31F13A68F5F1816FB
S11324307CF70F900FBE80911304882339F00FB6F8
S1132440F8940F920E940D0C0F900FBE80917704A8
S113245090917804C817D907A1F4809113048823B4
S113246019F00E9497080DC09091180480911704E8
S1132470981305C0109278041092770402C00E9449
S11324809111DF91CF911F910F910895CF93DF9315
S1132490EB016091770470917804645F7F4F0E9430
S11324A09B0761E0CE010E94A10DDF91CF910895B9
S11324B0CF93DF93DC011596ED91FC91169706807E
S11324C0F781E02DA489B589C685D785808991894E
S11324D09D838C83C089D189868597859B838A83D4
S11324E011968D919C9112979F01245F3F4F821703
S11324F0930731F48089918912969C938E93119756
S1132500158A148A8C9181508C93809109048111CD
S113251060C0A285B385C481D581868197819D835E
S11325208C83C681D781848195819B838A8311960C
S11325308D919C9112979F012E5F3F4F82179307B5
S113254031F48681978112969C938E93119713860A
S113255012868C9181508C938689909114049817DB
S113256010F48093140490E0DC01AA0FBB1FAA0F9F
S1132570BB1FAA0FBB1F8A0F9B1FDC01A65BBB4FAF
S113258011960D90BC91A02DB583A48314968D91C2
S11325909C911597978386831496CD91DC9115971A
S11325A03B832A8315963C932E931497A689B0E017
S11325B0CD01880F991F880F991F880F991FA80FA5
S11325C0B91FA65BBB4FB387A2878C918F5F8C9397
S11325D01CC04BE254E0DA011196CD91DC911297C4
S11325E0D787C6878C819D81918B808B8C819D81BF
S11325F0DC0113963C932E9312973D832C83558BC9
S1132600448BDA018C918F5F8C939689E0917704E7
S1132610F09178048689891720F481E0809310046E
S113262001C080E0DF91CF91089520910F04FC0157
S11326302083209115043091160432832183089558
S11326401F93CF93DF930FB6F8940F92E091150484
S1132650F0911604DC0111964D915C911297DF0103
S1132660A41BB50BEB01288139812F3FDFEF3D0718
S1132670F9F0EC011881C0910F041C1741F0E41724
S1132680F50728F0FB011182108281E012C0A21725
S1132690B30748F4FB012A1B3B0B318320830E94C0
S11326A0151380E006C0DB011D921C9281E001C07D
S11326B080E00F900FBEDF91CF911F91089581E0CC
S11326C08093100408950F931F93CF93DF93FC011D
S11326D0892B09F451C086A1815086A3268995A12E
S11326E0291709F44BC081114BC0EF018F010E5F14
S11326F01F4FC8010E94CC078DA18E8B25E030E0CE
S1132700281B31093D872C8790911404981710F4E5
S11327108093140490E0FC01EE0FFF1FEE0FFF1FE7
S1132720EE0FFF1F8E0F9F1FFC01E65BFB4F018026
S1132730F281E02DFD83EC83848195819F838E83D8
S1132740A481B58113961C930E9312971583048369
S1132750EE89F0E0CF01880F991F880F991F880F29
S1132760991FE80FF91FE65BFB4FFB87EA8780811F
S11327708F5F808381E005C080E003C080E001C0FA
S113278080E0DF91CF911F910F9108955058BB279E
S1132790AA270E94DE130C94C0140E94B21438F0CD
S11327A00E94B91420F039F49F3F19F426F40C94D4
S11327B0AF140EF4E095E7FB0C948014E92F0E940B
S11327C0D11458F3BA17620773078407950720F0EA
S11327D079F4A6F50C940B150EF4E0950B2EBA2F94
S11327E0A02D0B01B90190010C01CA01A001112413
S11327F0FF27591B99F0593F50F4503E68F11A16BF
S1132800F040A22F232F342F4427585FF3CF46954F
S113281037952795A795F0405395C9F77EF41F1671
S1132820BA0B620B730B840BBAF09150A1F0FF0F3B
S1132830BB1F661F771F881FC2F70EC0BA0F621F27
S1132840731F841F48F4879577956795B795F79517
S11328509E3F08F0B0CF9395880F08F09927EE0FAC
S11328609795879508950E943A146894B1110C9431
S11328700C1508950E94D91488F09F5798F0B92F29
S11328809927B751B0F0E1F0660F771F881F991FA1
S11328901AF0BA95C9F714C0B13091F00E940B1523
S11328A0B1E008950C940B15672F782F8827B85F33
S11328B039F0B93FCCF3869577956795B395D9F7F9
S11328C03EF490958095709561957F4F8F4F9F4F03
S11328D008950E94F31490F09F3748F4911116F074
S11328E00C940C1560E070E080E89FEB089526F4EA
S11328F01B16611D711D811D0C9486140C94A1146A
S113290097F99F6780E870E060E00895882371F488
S1132910772321F09850872B762F07C0662311F474
S113292099270DC09051862B70E060E02AF09A95AB
S1132930660F771F881FDAF7880F9695879597F9A2
S113294008959F3F31F0915020F4879577956795CE
S1132950B795880F911D9695879597F908959FEFE0
S113296080EC089500240A94161617061806090622
S1132970089500240A9412161306140605060895F1
S1132980092E0394000C11F4882352F0BB0F40F479
S1132990BF2B11F460FF04C06F5F7F4F8F4F9F4FB9
S11329A0089557FD9058440F551F59F05F3F71F03B
S11329B04795880F97FB991F61F09F3F79F08795A2
S11329C00895121613061406551FF2CF4695F1DF2B
S11329D008C0161617061806991FF1CF86957105BB
S11329E06105089408950E94D914A0F0BEE7B917B0
S11329F088F4BB279F3860F41616B11D672F782F13
S1132A008827985FF7CF869577956795B11D93953D
S1132A109639C8F30895E894BB2766277727CB0136
S1132A2097F908950E9425150C94C0140E94B214BD
S1132A3038F00E94B91420F0952311F00C948014FE
S1132A400C94AF1411240C940C150E94D11470F33F
S1132A50959FC1F3950F50E0551F629FF001729F3F
S1132A60BB27F00DB11D639FAA27F00DB11DAA1F4E
S1132A70649F6627B00DA11D661F829F2227B00D9B
S1132A80A11D621F739FB00DA11D621F839FA00D26
S1132A90611D221F749F3327A00D611D231F849F76
S1132AA0600D211D822F762F6A2F11249F575040CD
S1132AB09AF0F1F088234AF0EE0FFF1FBB1F661F48
S1132AC0771F881F91505040A9F79E3F510580F011
S1132AD00C9480140C940C155F3FE4F3983ED4F3EB
S1132AE0869577956795B795F795E7959F5FC1F7B5
S1132AF0FE2B880F911D9695879597F90895AA1B2B
S1132B00BB1B51E107C0AA1FBB1FA617B70710F0D4
S1132B10A61BB70B881F991F5A95A9F78095909506
S1132B20BC01CD010895A1E21A2EAA1BBB1BFD0115
S1132B300DC0AA1FBB1FEE1FFF1FA217B307E40798
S1132B40F50720F0A21BB30BE40BF50B661F771FF0
S1132B50881F991F1A9469F76095709580959095D0
S1132B609B01AC01BD01CF010895FB01DC0102C052
S1132B7001900D9241505040D8F70895DC0101C0F6
S1132B806D9341505040E0F70895AEE0B0E0EBECB7
S1132B90F5E10C9486180D891E8986E08C831A83CE
S1132BA009838FEF9FE79E838D83AE01475E5F4F5E
S1132BB06F89788DCE0101960E94E715EF81F88523
S1132BC0E00FF11F10822E96E4E00C94A218ABE003
S1132BD0B0E0EDEEF5E10C9478186C017B018A010C
S1132BE0FC0117821682838181FFCCC1CE0101963C
S1132BF03C01F6019381F70193FD859193FF819147
S1132C007F01882309F4BAC1853239F493FD859193
S1132C1093FF81917F01853229F4B60190E00E94EF
S1132C20DE17E7CF912C212C312CFFE1F315D8F0DE
S1132C308B3279F038F4803279F08332A1F4232D89
S1132C4020611DC08D3261F0803369F4232D216031
S1132C5016C0832D8260382EE32DE4603E2E2AC0F8
S1132C60F32DF8601DC037FC2DC020ED280F2A304D
S1132C7040F08E32B9F436FC81C1232D2064322E0B
S1132C8019C036FE06C08AE0989E200D1124922EAB
S1132C9011C0EAE02E9E200D1124222EF32DF062A5
S1132CA03F2E08C08C3621F4832D8068382E02C054
S1132CB0883641F4F70193FD859193FF81917F015B
S1132CC08111B3CF982F9F7D9554933028F40C5FD6
S1132CD01F4F9FE399830DC0833631F0833771F022
S1132CE0833509F059C021C0F801808189830E5FC2
S1132CF01F4F88248394912C530113C02801F2E0C0
S1132D004F0E511CF801A080B18036FE03C0692D1E
S1132D1070E002C06FEF7FEFC5010E94D3174C0132
S1132D208201F32DFF773F2E16C0280122E0420EC8
S1132D30511CF801A080B18036FE03C0692D70E0FB
S1132D4002C06FEF7FEFC5010E94C8174C01F32D3D
S1132D50F0683F2E820133FC1BC0822D90E0881660
S1132D609906B0F4B60180E290E00E94DE172A943E
S1132D70F4CFF50137FC859137FE81915F01B601EF
S1132D8090E00E94DE1721102A9421E0821A910813
S1132D908114910471F7E8C0843611F0893641F545
S1132DA0F80137FE07C060817181828193810C5FD5
S1132DB01F4F08C060817181072E000C880B990B8E
S1132DC00E5F1F4FF32DFF763F2E97FF09C090959E
S1132DD08095709561957F4F8F4F9F4FF0683F2E80
S1132DE02AE030E0A3010E941A18882E861845C0F4
S1132DF0853731F4232D2F7EB22E2AE030E025C012
S1132E00932D997FB92E8F36C1F018F4883579F057
S1132E10B5C0803719F0883721F0B0C0E92FE061E0
S1132E20BE2EB4FE0DC0FB2DF460BF2E09C034FECF
S1132E300AC0292F2660B22E06C028E030E005C063
S1132E4020E130E002C020E132E0F801B7FE07C023
S1132E5060817181828193810C5F1F4F06C0608104
S1132E60718180E090E00E5F1F4FA3010E941A1849
S1132E70882E8618FB2DFF773F2E36FE0DC0232D9E
S1132E802E7FA22E891458F434FE0BC032FC09C0E4
S1132E90832D8E7EA82E05C0B82CA32C03C0B82C7D
S1132EA001C0B92CA4FE0FC0FE01E80DF11D808104
S1132EB0803321F49A2D997EA92E09C0A2FE06C062
S1132EC0B394B39404C08A2D867809F0B394A3FC18
S1132ED011C0A0FE06C0B21488F4280C922C9B18D2
S1132EE00EC0B21460F4B60180E290E00E94DE17D6
S1132EF0B394F7CFB21418F42B1802C0982C212CD9
S1132F00A4FE10C0B60180E390E00E94DE17A2FE8A
S1132F1017C0A1FC03C088E790E002C088E590E0F8
S1132F20B6010CC08A2D867859F0A1FE02C08BE24E
S1132F3001C080E2A7FC8DE2B60190E00E94DE179A
S1132F40891438F4B60180E390E00E94DE179A9465
S1132F50F7CF8A94F301E80DF11D8081B60190E06A
S1132F600E94DE178110F5CF222009F442CEB6016B
S1132F7080E290E00E94DE172A94F6CFF601868163
S1132F80978102C08FEF9FEF2B96E2E10C94941887
S1132F90FC010590615070400110D8F78095909520
S1132FA08E0F9F1F0895FC01615070400190011025
S1132FB0D8F7809590958E0F9F1F08950F931F93B8
S1132FC0CF93DF93FB01238121FD03C08FEF9FEF9C
S1132FD02CC022FF16C046815781248135814217B7
S1132FE0530744F4A081B1819D012F5F3F4F31838A
S1132FF020838C93268137812F5F3F4F378326832D
S113300014C08B01EC01FB010084F185E02D0995CE
S1133010892BE1F6D80116968D919C91179701960C
S113302017969C938E931697CE01DF91CF911F91A3
S11330300F910895FA01AA27283051F1203181F126
S1133040E8946F936E7F6E5F7F4F8F4F9F4FAF4FAC
S1133050B1E03ED0B4E03CD0670F781F891F9A1FBF
S1133060A11D680F791F8A1F911DA11D6A0F711D73
S1133070811D911DA11D20D009F468943F912AE07F
S1133080269F11243019305D3193DEF6CF01089567
S1133090462F4770405D4193B3E00FD0C9F7F6CF98
S11330A0462F4F70405D4A3318F0495D31FD405260
S11330B0419302D0A9F7EACFB4E0A69597958795F6
S11330C077956795BA95C9F70097610571050895D5
S11330D09B01AC010A2E0694579547953795279581
S11330E0BA95C9F7620F731F841F951FA01D089519
S11330F02F923F924F925F926F927F928F929F9204
S1133100AF92BF92CF92DF92EF92FF920F931F93F1
S1133110CF93DF93CDB7DEB7CA1BDB0B0FB6F894A2
S1133120DEBF0FBECDBF09942A88398848885F84E2
S11331306E847D848C849B84AA84B984C884DF8053
S1133140EE80FD800C811B81AA81B981CE0FD11D37
S11331500FB6F894DEBF0FBECDBFED010895F8940D
S1053160FFCF9B
S1133162BA00BE00C500CA00010203041F030425FD
S1133172642E2564002E2E2E5245442E2E2E002E11
S11331822E2E59454C4C4F572E2E2E002E2E2E42AB
S11331924C55452E2E2E002E2E2E475245454E2E90
S11331A22E2E00726561645F627574746F6E006FB7
S11331B275747075745F6C656400524544005945BA
S11331C24C4C4F5700424C554500475245454E0022
S10931D249444C450000D5
S9030000FC
