:100000000C942A000C946F030C9496030C94BD037B
:100010000C9447000C9447000C9447000C94520732
:100020000C9447000C9447000C9447000C94470034
:100030000C9447000C94E4030C940B040C944700BC
:100040000C9447000C9447000C9447000C94470014
:100050000C94470011241FBECFE5D8E0DEBFCDBF12
:1000600010E0A0E6B0E0E4E4F3E202C005900D92F7
:10007000A437B107D9F724E0A4E7B0E001C01D928E
:10008000AF31B207E1F70E947B040C94A0110C94ED
:100090000000883008F05EC06932D1F44AB39DECAC
:1000A000899F912D1124969596959695990F292FB4
:1000B000220F220F920F891B21E030E0B90102C00C
:1000C000660F771F8A95E2F7CB01842B8ABB0895D0
:1000D0006832D9F44AB39DEC899F912D11249695ED
:1000E00096959695990F292F220F220F920F891B13
:1000F00021E030E0B90102C0660F771F8A95E2F770
:10010000CB01809584238ABB08956A3209F049C1E6
:100110004AB39DEC899F912D1124969596959695BD
:10012000990F292F220F220F920F891B21E030E017
:10013000B90102C0660F771F8A95E2F7CB01962FAF
:10014000909594239ABB90B79B7F90BF9BB3892BCC
:100150008BBB089596EF980F983008F05EC0693217
:10016000D1F447B39DEC899F912D112496959695D6
:100170009695990F292F220F220F920F891B21E0AC
:1001800030E0B90102C0660F771F8A95E2F7CB0114
:10019000842B87BB08956832D9F447B39DEC899FBF
:1001A000912D1124969596959695990F292F220FAA
:1001B000220F920F891B21E030E0B90102C0660FC7
:1001C000771F8A95E2F7CB018095842387BB08953A
:1001D0006A3209F0E6C047B39DEC899F912D112446
:1001E000969596959695990F292F220F220F920F8B
:1001F000891B21E030E0B90102C0660F771F8A95A4
:10020000E2F7CB01962F9095942397BB90B79B7FF5
:1002100090BF98B3892B88BB08959CEE980F9830B7
:1002200008F05EC06932D1F444B39DEC899F912DF2
:100230001124969596959695990F292F220F220FA6
:10024000920F891B21E030E0B90102C0660F771FD1
:100250008A95E2F7CB01842B84BB08956832D9F4E8
:1002600044B39DEC899F912D112496959695969572
:10027000990F292F220F220F920F891B21E030E0C6
:10028000B90102C0660F771F8A95E2F7CB0180950E
:10029000842384BB08956A3209F083C044B39DEC83
:1002A000899F912D1124969596959695990F292FB2
:1002B000220F220F920F891B21E030E0B90102C00A
:1002C000660F771F8A95E2F7CB01962F90959423BE
:1002D00094BB90B79B7F90BF95B3892B85BB089546
:1002E00092EE980F983008F05CC06932D1F441B3B7
:1002F0009DEC899F912D1124969596959695990F31
:10030000292F220F220F920F891B21E030E0B90123
:1003100002C0660F771F8A95E2F7CB01842B81BB61
:1003200008956832D9F441B39DEC899F912D112431
:10033000969596959695990F292F220F220F920F39
:10034000891B21E030E0B90102C0660F771F8A9552
:10035000E2F7CB018095842381BB08956A3209F5C9
:1003600041B39DEC899F912D112496959695969574
:10037000990F292F220F220F920F891B21E030E0C5
:10038000B90102C0660F771F8A95E2F7CB01962F5D
:100390009095942391BB90B79B7F90BF92B3892B8C
:1003A00082BB0895883008F046C09DEC699F912D6E
:1003B0001124969596959695990F292F220F220F25
:1003C000920F691B6130D1F44BB39DEC899F912D45
:1003D0001124969596959695990F292F220F220F05
:1003E000920F891B21E030E0B90102C0660F771F30
:1003F0008A95E2F7CB01842B8BBB08956111FBC07A
:100400004BB39DEC899F912D1124969596959695C9
:10041000990F292F220F220F920F891B21E030E024
:10042000B90102C0660F771F8A95E2F7CB0180956C
:1004300084238BBB089596EF980F983008F046C040
:100440009DEC699F912D1124969596959695990FFF
:10045000292F220F220F920F691B6130D1F448B36C
:100460009DEC899F912D1124969596959695990FBF
:10047000292F220F220F920F891B21E030E0B901B2
:1004800002C0660F771F8A95E2F7CB01842B88BBE9
:1004900008956111B0C048B39DEC899F912D11243E
:1004A000969596959695990F292F220F220F920FC8
:1004B000891B21E030E0B90102C0660F771F8A95E1
:1004C000E2F7CB018095842388BB08959CEE980FBA
:1004D000983008F046C09DEC699F912D11249695A7
:1004E00096959695990F292F220F220F920F691B2F
:1004F0006130D1F445B39DEC899F912D11249695DF
:1005000096959695990F292F220F220F920F891BEE
:1005100021E030E0B90102C0660F771F8A95E2F74B
:10052000CB01842B85BB0895611165C045B39DEC5B
:10053000899F912D1124969596959695990F292F1F
:10054000220F220F920F891B21E030E0B90102C077
:10055000660F771F8A95E2F7CB018095842385BBD0
:10056000089592EE980F983008F045C09DEC699F71
:10057000912D1124969596959695990F292F220FD6
:10058000220F920F691B6130D1F442B39DEC899F19
:10059000912D1124969596959695990F292F220FB6
:1005A000220F920F891B21E030E0B90102C0660FD3
:1005B000771F8A95E2F7CB01842B82BB08956111E6
:1005C0001AC042B39DEC899F912D11249695969562
:1005D0009695990F292F220F220F920F891B21E048
:1005E00030E0B90102C0660F771F8A95E2F7CB01B0
:1005F0008095842382BB08958830C8F429B39DEC8C
:10060000899F912D1124969596959695990F392F3E
:10061000330F330F930F891B30E002C035952795B8
:100620008A95E2F781E020FD59C080E0089596EFB9
:10063000980F9830C8F426B39DEC899F912D112412
:10064000969596959695990F392F330F330F930FF3
:10065000891B30E002C0359527958A95E2F781E045
:1006600020FD3CC080E008959CEE980F9830C8F4BF
:1006700023B39DEC899F912D11249695969596957F
:10068000990F392F330F330F930F891B30E002C0BE
:10069000359527958A95E2F781E020FD1FC080E01F
:1006A000089592EE980F9830C8F420B39DEC899F7E
:1006B000912D1124969596959695990F392F330F74
:1006C000330F930F891B30E002C0359527958A952B
:1006D000E2F781E020FD02C080E0089508951F92B6
:1006E0000F920FB60F9211242F933F934F935F9366
:1006F0006F937F938F939F93AF93BF93EF93FF93EA
:10070000E0917800F09179000995FF91EF91BF9108
:10071000AF919F918F917F916F915F914F913F9199
:100720002F910F900FBE0F901F9018951F920F9250
:100730000FB60F9211242F933F934F935F936F93B4
:100740007F938F939F93AF93BF93EF93FF93E0912A
:100750007600F09177000995FF91EF91BF91AF91ED
:100760009F918F917F916F915F914F913F912F91C9
:100770000F900FBE0F901F9018951F920F920FB6FB
:100780000F9211242F933F934F935F936F937F9317
:100790008F939F93AF93BF93EF93FF93E091740078
:1007A000F09175000995FF91EF91BF91AF919F91E5
:1007B0008F917F916F915F914F913F912F910F900A
:1007C0000FBE0F901F9018951F920F920FB60F92A9
:1007D00011242F933F934F935F936F937F938F9346
:1007E0009F93AF93BF93EF93FF93E0917C00F091C1
:1007F0007D000995FF91EF91BF91AF919F918F91EE
:100800007F916F915F914F913F912F910F900FBE0C
:100810000F901F9018951F920F920FB60F921124F0
:100820002F933F934F935F936F937F938F939F93F8
:10083000AF93BF93EF93FF93E0917A00F0917B0029
:100840000995FF91EF91BF91AF919F918F917F910A
:100850006F915F914F913F912F910F900FBE0F902D
:100860001F90189580E00E94FC02811113C08091B6
:10087000840081110FC081E08093840020E040E07B
:1008800050E060E070E080918200909183000E94CF
:10089000CF08E8CF80E00E94FC02882319F3809102
:1008A00084008130F9F610928400DCCF43E060E0F0
:1008B00081E00E948E0890938300809382006FEF06
:1008C0007FEF80918200909183000E946109809166
:1008D0008500811108C063E381E00E94D20181E0BC
:1008E00080938500ECCF813051F762E30E94D20102
:1008F00010928500E4CFEF92FF920F936AE280E0BE
:100900000E94490069E281E00E944900E090800075
:10091000F090810001E020E030E044E650E063E642
:1009200070E082E394E00E94300CE0907E00F09052
:100930007F0002E020E030E044E650E068E670E04E
:1009400086E594E00E94300C0E94840C80E090E0E8
:100950000F91FF90EF900895ABE8B0E0EFE8F0E082
:100960001196FC93EE9313961C921E921297A7E891
:10097000B0E08FE193E013969C938E9312971196BB
:100980001C921E9293838283B183A0830895EF9279
:10099000FF920F931F93CF93DF93EC010E94B00C53
:1009A00080918600811105C00E94AC0481E0809393
:1009B0008600209771F0CE010496C817D90738F445
:1009C00025968C179D0728F0C0E0D0E002C0C0E05B
:1009D000D0E0209709F45EC0209160003091610062
:1009E0002C173D0708F459C0E0918B00F0918C0062
:1009F000ABE8B0E002C0DF01FC01828193818C177B
:100A00009D0720F4808191810097A9F780E0E73865
:100A1000F80709F445C00D911C9111970C5F1F4F09
:100A2000808191818D939C93828193818C1B9D0BFE
:100A30008930910530F1BF016C0F7D1FDB011396EA
:100A40009C938E931297D383C28312964D915C919F
:100A500013970F2EFBE8EF2EF0E0FF2EF02D01C0D4
:100A60007D01E701A881B98112968D919C91139720
:100A700084179507A8F3EB01B983A883D7016D9379
:100A80007C9382819381281B390B309361002093E2
:100A9000600008C000E010E005C000E010E002C007
:100AA00000E010E00E94BA0DC801DF91CF911F91C4
:100AB0000F91FF90EF9008950F931F93CF93DF93C3
:100AC000009741F1EC018C01045011090E94B00C17
:100AD000F80142815381ABE8B0E001C0DF01ED9144
:100AE000FC9111972281338124173507B8F324979D
:100AF000F983E8830D931C938A819B812091600088
:100B000030916100820F931F909361008093600089
:100B10000E94BA0DDF91CF911F910F910895FC01B2
:100B20000396928381832FEF3FEF34832383968351
:100B300085839087878310820895FC011186108633
:100B40000895CF93DF93EB01488159814F3F2FEFF9
:100B5000520721F4FC01A781B0850DC0DC0113967A
:100B600001C0DF011296ED91FC9113972081318134
:100B700042175307B0F71296ED91FC911397FB8340
:100B8000EA83D583C483BD83AC831396DC93CE9371
:100B9000129799878887FC0120812F5F2083DF913E
:100BA000CF910895CF93DF93FC01A085B185C281D9
:100BB000D381848195819D838C83C481D5818281F9
:100BC00093819B838A8311968D919C911297E8174C
:100BD000F90731F48481958112969C938E93119735
:100BE000118610868C9181508C938C91DF91CF91DE
:100BF00008951BBC8CE78ABD8BE08EBD89B78061F0
:100C000089BF089531E1FC013083319722E22083CE
:100C10003197A3E3A0833197608331977083319735
:100C20001082319760E8608331971082319762E0DB
:100C30006083319763E06083319764E0608331972C
:100C400065E06083319766E06083319767E0608399
:100C5000319768E06083319769E06083319760E1A4
:100C6000608331973083319732E13083319733E1BC
:100C70003083319734E13083319735E130833197D8
:100C800036E13083319737E13083319738E1308373
:100C9000319739E13083319730E23083319731E257
:100CA000308331972083319723E22083319740832B
:100CB00031975083319726E22083319727E22083B2
:100CC000319728E22083319729E22083319720E36E
:100CD0002083319721E32083869708950E94F905A8
:100CE000A0911D04B0911E04CD91CDBFDD91DEBF5A
:100CF000FF91EF91DF91CF91BF91AF919F918F9134
:100D00007F916F915F914F913F912F911F910F9123
:100D1000FF90EF90DF90CF90BF90AF909F908F901B
:100D20007F906F905F904F903F902F901F900F900B
:100D30000FBE0F90089581E008950F920FB6F894BA
:100D40000F921F9211242F923F924F925F926F92B7
:100D50007F928F929F92AF92BF92CF92DF92EF924B
:100D6000FF920F931F932F933F934F935F936F9334
:100D70007F938F939F93AF93BF93CF93DF93EF9323
:100D8000FF93A0911D04B0911E040DB60D920EB6F6
:100D90000D920E948F0EA0911D04B0911E04CD9162
:100DA000CDBFDD91DEBFFF91EF91DF91CF91BF917C
:100DB000AF919F918F917F916F915F914F913F91F3
:100DC0002F911F910F91FF90EF90DF90CF90BF90E8
:100DD000AF909F908F907F906F905F904F903F90DB
:100DE0002F901F900F900FBE0F9008950F920FB687
:100DF000F8940F921F9211242F923F924F925F927C
:100E00006F927F928F929F92AF92BF92CF92DF921A
:100E1000EF92FF920F931F932F933F934F935F9304
:100E20006F937F938F939F93AF93BF93CF93DF93F2
:100E3000EF93FF93A0911D04B0911E040DB60D9287
:100E40000EB60D920E94B60C81110E948F0EA091D9
:100E50001D04B0911E04CD91CDBFDD91DEBFFF9189
:100E6000EF91DF91CF91BF91AF919F918F917F9142
:100E70006F915F914F913F912F911F910F91FF9033
:100E8000EF90DF90CF90BF90AF909F908F907F902A
:100E90006F905F904F903F902F901F900F900FBEDC
:100EA0000F9008950E94F6061895DC0151962C913A
:100EB0005197222341F05696ED91FC9157979081DE
:100EC00085E0891B089580E008950FB6F8940F928D
:100ED000FC01828D811102C081E001C080E00F9091
:100EE0000FBE08950FB6F8940F92FC01228D838DEA
:100EF000281302C081E001C080E00F900FBE08956A
:100F00000F931F93CF93DF93EC01042F1A8D4C8D19
:100F100041110CC088819981892B09F042C08C81D4
:100F20009D810E9494101D821C8242C0011117C035
:100F300050E08A819B810E9490112C8D8A819B8137
:100F4000820F911D9B838A832C813D818217930799
:100F500050F1888199819B838A8380E029C050E089
:100F60008E819F810E9490118C8D90E0919581954A
:100F700091092E813F81280F391F3F832E8348819D
:100F800059812417350730F42C813D81820F931F3E
:100F90009F838E83023049F4112349F0115080E081
:100FA00007C080E005C080E003C080E001C080E0B1
:100FB0001F5F1A8FDF91CF911F910F9108951F939B
:100FC000CF93DF93EC010FB6F8940F921E8D0BC0F8
:100FD0008989882351F0CE0141960E94F50E811136
:100FE0000E94FC0F115011169CF38FEF8E8F0F9003
:100FF0000FBE0FB6F8940F921D8D0BC08885882305
:1010000051F0CE0108960E94F50E81110E94FC0F4E
:10101000115011169CF38FEF8D8F0F900FBEDF9143
:10102000CF911F9108950F931F93CF93DF93FC01EE
:10103000362F892B09F44DC0238D222309F44BC090
:10104000022F10E08FEF9FEFB8010E947C11448DBA
:10105000842F90E06817790708F43FC0EF010FB6BE
:10106000F8940F9260817181FB01249FE00DF11DC6
:101070001124FD83EC831A8E7B836A83015011094E
:10108000809FA001819F500D909F500D1124CB0196
:10109000840F951F9F838E838FEF8D8F8E8F3111DD
:1010A0000CC08885882389F0CE0108960E94F50E31
:1010B000882359F00E949D0608C0CE0108960E9420
:1010C0008F05CE0141960E948F050F900FBE81E0E3
:1010D00005C080E003C080E001C080E0DF91CF91D7
:1010E0001F910F910895FF920F931F93CF93DF935A
:1010F000F22EE801611103C01983088302C05983ED
:1011000048838B8F6C8F61E0CE010E941308F8A298
:10111000DF91CF911F910F91FF900895DF92EF9291
:10112000FF920F931F93CF93DF93382FE62F8823DF
:1011300029F1682F70E08FEF9FEF0E947C118E2FB6
:1011400090E068177907E8F03E9FC00111248F3DB9
:101150002FEF9207C8F4D42EDE2FC32F81960E9462
:10116000C7047C01009791F08C012D2DAC014F5DDF
:101170005F4F6D2F8C2F0E94730808C0E12CF12C5B
:1011800005C0E12CF12C02C0E12CF12CC701DF914C
:10119000CF911F910F91FF90EF90DF900895CF9224
:1011A000DF92EF92FF920F931F93CF93DF9300D0C4
:1011B00000D01F92CDB7DEB78C017B015D834C83DD
:1011C000C22ED12C0FB6F8940F92F801928D838D18
:1011D000981718F0F2E0CF1219C04C2DB701C801D2
:1011E0000E948007F8019189992349F0C80141962E
:1011F0000E94F50E882331F00E949D0603C08111E4
:101200000E949D060F900FBE81E04DC08C819D8194
:10121000892B21F40F900FBE80E045C0D11006C08D
:10122000CE0101960E94B20FDD24D3940F900FBE21
:101230000E94B00C0FB6F8940F92F801858D8F3F85
:1012400009F4158EF801868D8F3F09F4168E0F90E4
:101250000FBEBE016C5F7F4FCE0101960E94BD0F95
:1012600081111BC0C8010E947207882381F06C8124
:101270007D81C80108960E94E30EC8010E94DF0725
:101280000E94BA0D81119ECF0E949D069BCFC8017E
:101290000E94DF070E94BA0D95CFC8010E94DF07A8
:1012A0000E94BA0D80E00F900F900F900F900F905A
:1012B000DF91CF911F910F91FF90EF90DF90CF9032
:1012C0000895EF92FF920F931F93CF93DF9300D077
:1012D00000D01F92CDB7DEB78C017D836C83E12CEB
:1012E000F12C0FB6F8940F92F801828D8823D1F07B
:1012F0008150828F80819181892B29F40E946A110B
:10130000F80195838483F8018085882339F0C8012A
:1013100008960E94F50E81110E949D060F900FBE47
:1013200081E074C08C819D81892B21F40F900FBEC8
:1013300080E06CC0F11006C0CE0101960E94B20F91
:10134000FF24F3940F900FBE0E94B00C0FB6F894D8
:101350000F92F801858D8F3F09F4158EF801868D67
:101360008F3F09F4168E0F900FBEBE016C5F7F4F4A
:10137000CE0101960E94BD0F81112AC0C8010E94B2
:1013800065078823F9F0F80180819181892B51F458
:101390000FB6F8940F92848195810E940010E82E78
:1013A0000F900FBE6C817D81C80141960E94E30EB3
:1013B000C8010E94DF070E94BA0D811192CF0E94DE
:1013C0009D068FCFC8010E94DF070E94BA0D89CF0A
:1013D000C8010E94DF070E94BA0DC8010E9465077C
:1013E000882309F47ECFEE2081F00FB6F8940F9297
:1013F000C8010E945507682FF801848195810E94D9
:10140000F7100F900FBE80E001C080E00F900F90AA
:101410000F900F900F90DF91CF911F910F91FF9040
:10142000EF900895E091DC03F091DD03808181115C
:1014300007C08FEF9FEF9093B3038093B20308959B
:10144000E091DC03F091DD030580F681E02D8081E1
:1014500091819093B3038093B2030895CF93DF9368
:10146000EC018F89988D0E945C05CE010E945C057D
:10147000DF91CF9108952F923F924F925F926F929A
:101480007F928F929F92AF92BF92CF92DF92EF9214
:101490000F931F93CF93DF93CDB7DEB71C014B01A2
:1014A00029013A01A90165EA70E0D50157968D91AD
:1014B0009C9158970E949911F5018789908DF1E0D0
:1014C0004F1A5108480E591E8114910489F417C00F
:1014D000822F90E0F401E80FF91F3081D501A80FA9
:1014E000B91F59963C938081882329F02F5F01C052
:1014F00020E02A3068F3D50192961C9202C0F501D3
:10150000118EF4E0FE1518F46894EE24E2F8D5018B
:101510005696EC9256979596EC92959796961C92C5
:10152000C50102960E949D05C5010C960E949D056D
:10153000F501B186A08685E090E08E199109958726
:101540008487B38AA28A84E0B796DF011D928A95C8
:10155000E9F7F50113A6A801B101C2010E94020634
:10156000D5018D939C93C114D10419F0F601B18279
:10157000A082DF91CF911F910F91EF90DF90CF90DC
:10158000BF90AF909F908F907F906F905F904F90A3
:101590003F902F900895CF93C0E010C08C2F90E023
:1015A0009C01220F331F220F331F220F331F820F84
:1015B000931F80519C4F0E948F05CF5FC53070F301
:1015C00087EE93E00E948F058EED93E00E948F05D9
:1015D00081ED93E00E948F0588EC93E00E948F05D7
:1015E0008EEB93E00E948F0587EE93E09093DD03EE
:1015F0008093DC038EED93E09093DB038093DA031A
:10160000CF910895CF93DF93EC010FB6F8940F922A
:101610008091BD038F5F8093BD0380911D049091E5
:101620001E04892B59F4D0931E04C0931D0480918D
:10163000BD03813099F40E94CB0A10C08091B90398
:1016400081110CC0E0911D04F0911E0496898E89D1
:10165000891720F0D0931E04C0931D048091B40319
:101660008F5F8093B4038BA38E899091BA039817F0
:1016700010F48093BA0390E0FC01EE0FFF1FEE0F11
:10168000FF1FEE0FFF1F8E0F9F1FFC01E051FC4F4D
:101690000180F281E02DFD83EC83848195819F831D
:1016A0008E83A481B581CE01029613969C938E936E
:1016B000129795838483EE89F0E0CF01880F991FFC
:1016C000880F991F880F991FE80FF91FE051FC4FF1
:1016D000FB87EA8780818F5F80830F900FBE8091A8
:1016E000B903882351F0E0911D04F0911E049689FE
:1016F0008E89981710F40E949D06DF91CF9108956E
:10170000CF93DF931CC00FB6F8940F92E091CD03F6
:10171000F091CE03C681D781CE0102960E94D205F8
:101720008091BD0381508093BD038091C703815098
:101730008093C7030F900FBECE010E942E0A8091A6
:10174000C7038111E0CFDF91CF9108950E94800BF4
:101750008091F0038230D0F30E949D06F7CFFF9274
:101760000F931F93CF93DF93EC01F62E0091BB03F1
:101770001091BC0380911D0490911E0402960E945A
:10178000D205CF3F8FEFD807B1F5FF20A1F1EEEBE7
:10179000F3E0A181B281C0911D04D0911E04BD83EC
:1017A000AC83C0911D04D0911E0414968D919C9120
:1017B00015979F838E831496CD91DC911597809118
:1017C0001D0490911E0402969B838A8380911D04C0
:1017D00090911E04029615969C938E931497A09157
:1017E0001D04B0911E041B96FC93EE931A97808102
:1017F0008F5F80832FC0C00FD11FE0911D04F09137
:101800001E04D383C283C017D10768F460911D04FE
:1018100070911E048091DA039091DB036E5F7F4F1D
:101820000E94A10517C060911D0470911E04809153
:10183000DC039091DD036E5F7F4F0E94A1058091D4
:10184000B2039091B303C817D90720F4D093B30320
:10185000C093B203DF91CF911F910F91FF90089534
:101860002F923F924F925F926F927F928F929F92B0
:10187000AF92BF92CF92DF92EF92FF920F931F939E
:10188000CF93DF933C011B015A012901CA010E9439
:10189000C7046C01892B71F08CE290E00E94C704B0
:1018A000EC01892B19F0D88ECF8A06C0C6010E94A0
:1018B0005C0502C0C0E0D0E0209791F0950140E0C7
:1018C00050E0812C912C5E016701E02E8201B10174
:1018D000C3010E943B0ACE010E94020B81E001C0BD
:1018E0008FEFDF91CF911F910F91FF90EF90DF90DD
:1018F000CF90BF90AF909F908F907F906F905F90B0
:101900004F903F902F900895EF92FF920F930F2EDC
:10191000F0EBEF2EF3E0FF2EF02D00E020E030E0C2
:1019200048EC50E06EE670E086EA9BE00E94300CE6
:10193000813081F4F8948FEF9FEF9093B3038093FD
:10194000B20381E08093B9031092BC031092BB03F1
:101950000E946E06809162000F91FF90EF900895B3
:101960008091AF038F5F8093AF0308950F931F9310
:10197000CF93DF938091AF038111EBC0C091BB0384
:10198000D091BC038E010F5F1F4F1093BC030093D7
:10199000BB0301151105B9F48091DC039091DD03BF
:1019A0002091DA033091DB033093DD032093DC03D5
:1019B0009093DB038093DA038091B5038F5F80936C
:1019C000B5030E94120A8091B2039091B3030817E5
:1019D000190720F480E0B8C081E001C080E0E09108
:1019E000DC03F091DD039081911107C02FEF3FEFF1
:1019F0003093B3032093B203A7C0E091DC03F091CE
:101A0000DD030580F681E02D0680F781E02D22813F
:101A100033810217130728F43093B3032093B203E2
:101A200093C0A285B3852481358146815781E90120
:101A30005D834C832681378144815581E9015B8335
:101A40004A8311962D913C911297AF014E5F5F4FE3
:101A50002417350731F42681378112963C932E9353
:101A60001197138612869C9191509C93A489B589F5
:101A7000109719F12685378560897189E9017D8381
:101A80006C832089318966857785E9017B836A8348
:101A900011966D917C9112979F01245F3F4F6217C1
:101AA000730731F42089318912963C932E93119754
:101AB000158A148A9C9191509C9326899091BA031F
:101AC000921710F42093BA0330E0D901AA0FBB1F7C
:101AD000AA0FBB1FAA0FBB1F2A0F3B1FD901A05182
:101AE000BC4F11960D90BC91A02DB583A483149684
:101AF0002D913C9115973783268314962D913C9117
:101B00001597E9015B834A8315965C934E9314976E
:101B1000A689B0E09D01220F331F220F331F220F31
:101B2000331FA20FB31FA051BC4FB387A2879C9154
:101B30009F5F9C932689E0911D04F0911E04968975
:101B4000291708F049CF4BCF9091B60391110CC0E3
:101B50000CC08091B7039091B80301969093B8039D
:101B60008093B70380E001C081E0DF91CF911F91A6
:101B70000F910895CF93DF930FB6F8940F92809151
:101B8000AF0381508093AF038091AF038111BFC039
:101B90008091BD03811196C0BDC0E091D603F09144
:101BA000D7030680F781E02DA489B589C685D7853E
:101BB000808991899D838C83C089D1898685978509
:101BC0009B838A8311962D913C911297CF010C969D
:101BD0002817390731F48089918912969C938E9346
:101BE0001197158A148A8C9181508C93A285B385A4
:101BF000C481D581868197819D838C83C681D7815D
:101C0000848195819B838A8311968D919C911297F3
:101C10009F012E5F3F4F8217930731F48681978192
:101C200012969C938E931197138612868C918150F5
:101C30008C9386899091BA03981710F48093BA0315
:101C400090E0DC01AA0FBB1FAA0FBB1FAA0FBB1F8E
:101C50008A0F9B1FDC01A051BC4F11960D90BC91C7
:101C6000A02DB583A48314968D919C91159797838D
:101C700086831496CD91DC9115973B832A83159624
:101C80003C932E931497A689B0E0CD01880F991F3D
:101C9000880F991F880F991FA80FB91FA051BC4F1B
:101CA000B387A2878C918F5F8C939689A0911D0436
:101CB000B0911E0456968C91981730F081E0809375
:101CC000B60302C0E0E0F0E08091D103811165CF5E
:101CD000EF2B11F00E94120AC091B703D091B80304
:101CE000209769F00E94B60C882319F081E0809358
:101CF000B6032197B9F71092B8031092B7038091F9
:101D0000B603882331F00E949D0681E003C080E085
:101D100001C080E00F900FBEDF91CF9108958091B8
:101D2000AF03882321F081E08093B60308951092D9
:101D3000B6032091BA0301C02150822F90E0FC012C
:101D4000EE0FFF1FEE0FFF1FEE0FFF1FE80FF91F33
:101D5000E051FC4F3081332379F3AC01440F551F20
:101D6000440F551F440F551F480F591FDF010180B5
:101D7000F281E02D0280F381E02D1296FC93EE9328
:101D800011974D505C4FE417F50729F442815381B8
:101D9000FD0152834183FC01EE0FFF1FEE0FFF1F79
:101DA000EE0FFF1F8E0F9F1FFC01E051FC4F0180C3
:101DB000F281E02D8681978190931E0480931D040B
:101DC0002093BA030895CF93DF93EB0160911D0434
:101DD00070911E04645F7F4F0E94A10561E0CE01F7
:101DE0000E94AF0BDF91CF910895CF93DF93DC0179
:101DF0001596ED91FC9116970680F781E02DA48948
:101E0000B589C685D785808991899D838C83C08952
:101E1000D189868597859B838A8311968D919C9124
:101E200012979F01245F3F4F8217930731F48089F7
:101E3000918912969C938E931197158A148A8C918E
:101E400081508C938091AF03811160C0A285B385CE
:101E5000C481D581868197819D838C83C681D781FA
:101E6000848195819B838A8311968D919C91129791
:101E70009F012E5F3F4F8217930731F48681978130
:101E800012969C938E931197138612868C91815093
:101E90008C9386899091BA03981710F48093BA03B3
:101EA00090E0DC01AA0FBB1FAA0FBB1FAA0FBB1F2C
:101EB0008A0F9B1FDC01A051BC4F11960D90BC9165
:101EC000A02DB583A48314968D919C91159797832B
:101ED00086831496CD91DC9115973B832A831596C2
:101EE0003C932E931497A689B0E0CD01880F991FDB
:101EF000880F991F880F991FA80FB91FA051BC4FB9
:101F0000B387A2878C918F5F8C931CC041ED53E007
:101F1000DA011196CD91DC911297D787C6878C8113
:101F20009D81918B808B8C819D81DC0113963C93EC
:101F30002E9312973D832C83558B448BDA018C9121
:101F40008F5F8C939689E0911D04F0911E04868921
:101F5000891720F481E08093B60301C080E0DF910F
:101F6000CF9108952091B503FC0120832091BB03FC
:101F70003091BC033283218308951F93CF93DF9365
:101F80000FB6F8940F92E091BB03F091BC03DC0113
:101F900011964D915C911297DF01A41BB50BEB01DB
:101FA000288139812F3FDFEF3D07F9F0EC011881DF
:101FB000C091B5031C1741F0E417F50728F0FB01A9
:101FC0001182108281E012C0A217B30748F4FB010E
:101FD0002A1B3B0B318320830E94B20F80E006C096
:101FE000DB011D921C9281E001C080E00F900FBECA
:101FF000DF91CF911F91089581E08093B6030895FA
:102000000F931F93CF93DF93FC01892B09F484C0B6
:102010002689A0911D04B0911E0456968C91281714
:1020200008F070C084859585992364F0A0911D0403
:10203000B0911E0456963C9185E090E0831B910977
:10204000958784878285938530E0A901440F551FC9
:10205000440F551F440F551F240F351F20513C4F6F
:102060008217930709F045C0EF018F010E5F1F4FE4
:10207000C8010E94D205E0911D04F0911E048689DA
:102080008E8B9091BA03981710F48093BA0390E066
:10209000FC01EE0FFF1FEE0FFF1FEE0FFF1F8E0F55
:1020A0009F1FFC01E051FC4F0180F281E02DFD8378
:1020B000EC83848195819F838E83A481B58113965F
:1020C0001C930E931297158304838E8990E0FC0174
:1020D000EE0FFF1FEE0FFF1FEE0FFF1FE80FF91FA0
:1020E000E051FC4FFB87EA8780818F5F808381E02E
:1020F00016C0A0911D04B0911E0456968C91868B3B
:1021000081E00DC095A1E0911D04F0911E04868927
:10211000981720F080E003C080E001C081E0DF91EB
:10212000CF911F910F9108950F931F93CF93DF933A
:10213000FC01892B09F451C086A1815086A3268910
:1021400095A1291709F44BC081114BC0EF018F01F4
:102150000E5F1F4FC8010E94D2058DA18E8B25E016
:1021600030E0281B31093D872C879091BA039817DE
:1021700010F48093BA0390E0FC01EE0FFF1FEE0F06
:10218000FF1FEE0FFF1F8E0F9F1FFC01E051FC4F42
:102190000180F281E02DFD83EC83848195819F8312
:1021A0008E83A481B58113961C930E931297158389
:1021B0000483EE89F0E0CF01880F991F880F991FE3
:1021C000880F991FE80FF91FE051FC4FFB87EA8742
:1021D00080818F5F808381E005C080E003C080E064
:1021E00001C080E0DF91CF911F910F9108950F936F
:1021F0001F93CF93DF93FC01892B09F466C095A14F
:10220000961708F4962F8689981709F45EC026A1C0
:10221000213009F05AC0968B24853585332334F05C
:1022200025E030E0291B3109358724872285338555
:1022300090E0AC01440F551F440F551F440F551F2C
:10224000840F951F80519C4F28173907F1F5EF0136
:102250008F010E5F1F4FC8010E94D2058E89909199
:10226000BA03981710F48093BA0390E0FC01EE0FC4
:10227000FF1FEE0FFF1FEE0FFF1F8E0F9F1FFC01B2
:10228000E051FC4F0180F281E02DFD83EC838481DD
:1022900095819F838E83A481B58113961C930E93A1
:1022A0001297158304838E8990E0FC01EE0FFF1FC7
:1022B000EE0FFF1FEE0FFF1FE80FF91FE051FC4F5D
:1022C000FB87EA8780818F5F8083DF91CF911F91A9
:1022D0000F91089580911D0490911E04892B39F06F
:1022E000E0911D04F0911E0486A18F5F86A380916A
:1022F0001D0490911E040895AA1BBB1B51E107C049
:10230000AA1FBB1FA617B70710F0A61BB70B881F85
:10231000991F5A95A9F780959095BC01CD01089514
:10232000FB01DC0102C001900D9241505040D8F7F2
:102330000895DC0101C06D9341505040E0F70895CD
:04234000F894FFCF3F
:102344001F03046F6D61720061686D656400494428
:042354004C450000F4
:00000001FF
