S0120000554152544472697665722E737265636A
S11300000C942A000C9434000C9434000C943400A6
S11300100C9434000C9434000C9434000C9434008C
S11300200C9434000C9434000C9434000C9434007C
S11300300C9434000C9434000C9434000C9434006C
S11300400C9434000C9434000C9434000C9434005C
S11300500C94340011241FBECFE5D8E0DEBFCDBF21
S11300600E9436000C9453000C94000080E895E242
S11300700E943E0083E60E944F00FFCF28E12AB988
S113008026E820BD803C22E1920731F08038954279
S113009029F483E389B9089587E689B908955D9BB6
S10D00A0FECF8CB90895F894FFCF49
S9030000FC
