:100000000C942A000C9434000C9434000C943400AA
:100010000C9434000C9434000C9434000C94340090
:100020000C9434000C9434000C9434000C94340080
:100030000C9434000C9434000C9434000C94340070
:100040000C9434000C9434000C9434000C94340060
:100050000C94340011241FBECFE5D8E0DEBFCDBF25
:100060000E9436000C944C000C940000D0988FEF46
:1000700081BB379A329A87B1807F87B93E9A3D9A81
:1000800087B1807F87B9369A86B183E08A95F1F788
:0C009000000085B182BBF4CFF894FFCFD4
:00000001FF
