S01400004B65797061644472697665722E7372656346
S11300000C942A000C943F000C943F000C943F0085
S11300100C943F000C943F000C943F000C943F0060
S11300200C943F000C943F000C943F000C943F0050
S11300300C943F000C943F000C943F000C943F0040
S11300400C943F000C943F000C943F000C943F0030
S11300500C943F0011241FBECFE5D8E0DEBFCDBF16
S113006010E0A0E6B0E0EEE9F4E002C005900D92E5
S1130070A037B107D9F70E9435020C944D020C94B5
S113008000008130F1F441110DC09AB321E030E059
S1130090062E02C0220F331F0A94E2F7209529236B
S11300A02ABB4AC0413009F047C09AB321E030E08E
S11300B0062E02C0220F331F0A94E2F7292B2ABB13
S11300C03BC08230E1F441110CC027B381E090E0E1
S11300D002C0880F991F6A95E2F78095822387BB37
S11300E00895413009F044C027B381E090E002C094
S11300F0880F991F6A95E2F7822B87BB0895833096
S1130100D9F441110CC024B381E090E002C0880FFF
S1130110991F6A95E2F78095822384BB0895413044
S113012039F524B381E090E002C0880F991F6A95E5
S1130130E2F7822B84BB08958430D1F441110CC0C2
S113014021B381E090E002C0880F991F6A95E2F71D
S11301508095822381BB0895413051F421B381E01D
S113016090E002C0880F991F6A95E2F7822B81BB49
S11301700895813049F4611102C01ABA1BC061307C
S1130180C9F49FEF9ABB16C0823049F4611102C0D2
S113019017BA08956130C1F48FEF87BB0895833097
S11301A049F4611102C014BA0895613069F48FEF03
S11301B084BB0895843041F4611102C011BA0895DA
S11301C0613011F48FEF81BB08958130E9F441303F
S11301D061F49BB321E030E0062E02C0220F331FEE
S11301E00A94E2F7292B2BBB49C0411147C09BB3AA
S11301F021E030E0062E02C0220F331F0A94E2F7FA
S1130200209529232BBB3AC08230D9F4413059F4CC
S113021028B381E090E002C0880F991F6A95E2F745
S1130220822B88BB0895411145C028B381E090E03A
S113023002C0880F991F6A95E2F78095822388BBD4
S113024008958330D9F4413059F425B381E090E026
S113025002C0880F991F6A95E2F7822B85BB089527
S1130260411128C025B381E090E002C0880F991F96
S11302706A95E2F78095822385BB08958430D1F492
S1130280413059F422B381E090E002C0880F991FF5
S11302906A95E2F7822B82BB089541110BC022B309
S11302A081E090E002C0880F991F6A95E2F780957B
S11302B0822382BB0895813069F4613019F49FEF81
S11302C09BBB26C0611102C01BBA22C0623000F180
S11302D06BBB1EC0823069F4613019F48FEF88BBA8
S11302E00895611102C018BA08956230F8F068BB2D
S11302F00895833069F4613019F48FEF85BB089554
S1130300611102C015BA0895623080F065BB08958A
S1130310843061F4613019F48FEF82BB0895611168
S113032002C012BA0895623008F062BB08958130A9
S113033049F489B390E002C0959587956A95E2F7F0
S113034081700895823049F486B390E002C0959597
S113035087956A95E2F781700895833049F483B3F1
S113036090E002C0959587956A95E2F781700895AB
S1130370843049F480B390E002C0959587956A95DE
S1130380E2F7817008958FEF089541E060E083E023
S11303900E94410041E061E083E00E94410041E0AD
S11303A062E083E00E94410041E063E083E00E9458
S11303B0410040E064E083E00E94410040E065E0E9
S11303C083E00E94410040E066E083E00E94410037
S11303D040E067E083E00E94410061E083E00E9426
S11303E05B010895DF92EF92FF920F931F93CF93D7
S11303F0DF930F2EF0E6EF2EF0E0FF2EF02DD0E08D
S1130400D12C40E06D2F83E00E94E5008701C4E019
S11304106C2F83E00E94970181110EC0F801D080F7
S11304206C2F83E00E9497018823D1F38FE39CE92A
S11304300197F1F700C00000CF5F0F5F1F4FC83076
S113044039F741E06D2F83E00E94E500DF5F94E01F
S1130450E90EF11CD430A9F68D2DDF91CF911F91B7
S11304600F91FF90EF90DF9008950E94C50161E025
S113047084E00E94B9000E94F201823331F441E029
S113048060E084E00E94E500F6CF8A32A1F741E003
S111049061E084E00E94E500EECFF894FFCF17
S113049E3738392F3435362A3132332D23303D2B2C
S9030000FC
