:100000000C942A000C9449000C9470000C949700F6
:100010000C9447000C9447000C9447000C94250561
:100020000C9447000C9447000C9447000C94470034
:100030000C9447000C94D1010C94F8010C944700E7
:100040000C9447000C9447000C9447000C94470014
:100050000C94470011241FBECFE5D8E0DEBFCDBF12
:1000600010E0A0E6B0E0EAEBFDE102C005900D92E1
:10007000A03BB107D9F724E0A0EBB0E001C01D928E
:10008000AD35B207E1F70E9452020C94DB0E0C94DE
:1000900000001F920F920FB60F9211242F933F93DF
:1000A0004F935F936F937F938F939F93AF93BF9380
:1000B000EF93FF93E091B400F091B5000995FF91A3
:1000C000EF91BF91AF919F918F917F916F915F91D0
:1000D0004F913F912F910F900FBE0F901F90189549
:1000E0001F920F920FB60F9211242F933F934F93AD
:1000F0005F936F937F938F939F93AF93BF93EF9390
:10010000FF93E091B200F091B3000995FF91EF9158
:10011000BF91AF919F918F917F916F915F914F911F
:100120003F912F910F900FBE0F901F9018951F9227
:100130000F920FB60F9211242F933F934F935F931B
:100140006F937F938F939F93AF93BF93EF93FF939F
:10015000E091B000F091B1000995FF91EF91BF914E
:10016000AF919F918F917F916F915F914F913F914F
:100170002F910F900FBE0F901F9018954F925F9286
:100180006F927F928F929F92AF92BF92CF92DF92A7
:10019000EF92FF92CF93DF93CDB7DEB760970FB6A4
:1001A000F894DEBF0FBECDBFDC01693239F5119680
:1001B0008C9111978F938C918F9386E690E09F930B
:1001C0008F93CE0101969F938F930E94F10B0F9016
:1001D0000F900F900F900F900F9080E090E004C070
:1001E0005D9BFECF2CB90196E1E0F0E0EC0FFD1F26
:1001F000E80FF91F20812111F3CF5FC0683209F0A9
:1002000046C0CD90DD90ED90FC90C701B6010E94F4
:10021000B20A2B013C019B01AC01C701B6010E944F
:100220000F0A4B015C01C301B2010E947C0AF62E49
:10023000E72E20E030E04AE754E4C501B4010E9413
:100240005B0B0E947C0A7F936F93EF92FF9283E691
:1002500090E09F938F93CE0101969F938F930E947E
:10026000F10B0FB6F894DEBF0FBECDBF80E090E07B
:1002700004C05D9BFECF2CB90196E1E0F0E0EC0FED
:10028000FD1FE80FF91F20812111F3CF16C06A323C
:1002900019F48C918CB911C06B3279F406C05D9B56
:1002A000FECF9CB92F5F3F4F02C020E030E0FD0140
:1002B000E20FF31F90819111F2CF60960FB6F89480
:1002C000DEBF0FBECDBFDF91CF91FF90EF90DF90EB
:1002D000CF90BF90AF909F908F907F906F905F90E6
:1002E0004F900895CF92DF92EF92FF92909358042F
:1002F00080935704092E000CAA0BBB0B880F991F83
:10030000AA1FBB1F880F991FAA1FBB1F9C01AD010D
:10031000220F331F441F551F220F331F441F551F29
:100320000F2EC12CF2E1DF2EFAE7EF2EF12CF02D8B
:10033000C701B6010E94C80BDA01C9010197A109E2
:10034000B109892F9A2FAB2FBB2780BD209157046D
:1003500030915804C901330FAA0BBB0B880F991FAA
:10036000AA1FBB1F880F991FAA1FBB1F9C01AD01AD
:10037000220F331F441F551F220F331F441F551FC9
:10038000C701B6010E94C80B215029B98AB1886102
:100390008AB980B5866880BDFF90EF90DF90CF90DE
:1003A00008951F920F920FB60F9211242F933F932F
:1003B0004F935F936F937F938F939F93AF93BF936D
:1003C000EF93FF93E091B800F091B9000995FF9188
:1003D000EF91BF91AF919F918F917F916F915F91BD
:1003E0004F913F912F910F900FBE0F901F90189536
:1003F0001F920F920FB60F9211242F933F934F939A
:100400005F936F937F938F939F93AF93BF93EF937C
:10041000FF93E091B600F091B7000995FF91EF913D
:10042000BF91AF919F918F917F916F915F914F910C
:100430003F912F910F900FBE0F901F9018950FB600
:10044000F8940F928091BC009091BD00019690931A
:10045000BD008093BC008091BA009091BB000196D2
:100460009093BB008093BA000F900FBEE8CF20910D
:10047000BC003091BD008091BA009091BB0028175C
:10048000390731F06BE289E690E00E94BE0005C0BA
:100490006BE283E890E00E94BE0082E390E00E945D
:1004A000A509E5CFEF92FF920F9380E895E20E94B5
:1004B0007201E0905904F0905A0401E020E030E02D
:1004C00042E350E063E970E08FE192E00E9446076A
:1004D000E0905B04F0905C0402E020E030E044E651
:1004E00050E06DE970E087E392E00E9446070E94C9
:1004F0009A0780E090E00F91FF90EF900895A3ECB1
:10050000B0E0E7ECF0E01196FC93EE9313961C92AA
:100510001E921297AFEBB0E08FE193E013969C939D
:100520008E93129711961C921E9293838283B183AD
:10053000A0830895EF92FF920F931F93CF93DF93C1
:10054000EC010E94C6078091BE00811105C00E9487
:100550007F0281E08093BE00209771F0CE01049667
:10056000C817D90738F425968C179D0728F0C0E0E6
:10057000D0E002C0C0E0D0E0209709F45EC0209136
:100580006000309161002C173D0708F459C0E091DC
:10059000C300F091C400A3ECB0E002C0DF01FC0195
:1005A000828193818C179D0720F48081918100972F
:1005B000A9F780E0EF3BF80709F445C00D911C91C5
:1005C00011970C5F1F4F808191818D939C93828145
:1005D00093818C1B9D0B8930910530F1BF016C0F0D
:1005E0007D1FDB0113969C938E931297D383C28356
:1005F00012964D915C9113970F2EF3ECEF2EF0E0D5
:10060000FF2EF02D01C07D01E701A881B98112966E
:100610008D919C91139784179507A8F3EB01B983EB
:10062000A883D7016D937C9382819381281B390B1A
:10063000309361002093600008C000E010E005C026
:1006400000E010E002C000E010E00E94D008C80105
:10065000DF91CF911F910F91FF90EF9008950F932D
:100660001F93CF93DF93009741F1EC018C0104506D
:1006700011090E94C607F80142815381A3ECB0E042
:1006800001C0DF01ED91FC91119722813381241784
:100690003507B8F32497F983E8830D931C938A8177
:1006A0009B812091600030916100820F931F909395
:1006B0006100809360000E94D008DF91CF911F916C
:1006C0000F910895FC010396928381832FEF3FEFF2
:1006D000348323839683858390878783108208954C
:1006E000FC01118610860895CF93DF93EB014881BA
:1006F00059814F3F2FEF520721F4FC01A781B085AC
:100700000DC0DC01139601C0DF011296ED91FC9142
:1007100013972081318142175307B0F71296ED915C
:10072000FC911397FB83EA83D583C483BD83AC8399
:100730001396DC93CE93129799878887FC012081CA
:100740002F5F2083DF91CF910895CF93DF93FC013A
:10075000A085B185C281D381848195819D838C835D
:10076000C481D581828193819B838A8311968D91E7
:100770009C911297E817F90731F4848195811296BC
:100780009C938E931197118610868C9181508C9337
:100790008C91DF91CF9108951BBC8CE78ABD8BE0D3
:1007A0008EBD89B7806189BF089531E1FC01308336
:1007B000319722E220833197A3E3A08331976083AE
:1007C0003197708331971082319760E86083319759
:1007D0001082319762E06083319763E060833197E4
:1007E00064E06083319765E06083319766E0608301
:1007F000319767E06083319768E06083319769E003
:100800006083319760E1608331973083319732E1C3
:100810003083319733E13083319734E1308331973E
:1008200035E13083319736E13083319737E13083DA
:10083000319738E13083319739E13083319730E2B5
:100840003083319731E2308331972083319723E22F
:1008500020833197408331975083319726E220835C
:10086000319727E22083319728E22083319729E2CC
:100870002083319720E32083319721E320838697DB
:1008800008950E94CC03A0915504B0915604CD91D7
:10089000CDBFDD91DEBFFF91EF91DF91CF91BF9191
:1008A000AF919F918F917F916F915F914F913F9108
:1008B0002F911F910F91FF90EF90DF90CF90BF90FD
:1008C000AF909F908F907F906F905F904F903F90F0
:1008D0002F901F900F900FBE0F90089581E0089504
:1008E0000F920FB6F8940F921F9211242F923F92FD
:1008F0004F925F926F927F928F929F92AF92BF9230
:10090000CF92DF92EF92FF920F931F932F933F931B
:100910004F935F936F937F938F939F93AF93BF9307
:10092000CF93DF93EF93FF93A0915504B0915604BA
:100930000DB60D920EB60D920E94BB09A091550402
:10094000B0915604CD91CDBFDD91DEBFFF91EF9107
:10095000DF91CF91BF91AF919F918F917F916F91D7
:100960005F914F913F912F911F910F91FF90EF90C9
:10097000DF90CF90BF90AF909F908F907F906F90BF
:100980005F904F903F902F901F900F900FBE0F9051
:1009900008950F920FB6F8940F921F9211242F9280
:1009A0003F924F925F926F927F928F929F92AF92FF
:1009B000BF92CF92DF92EF92FF920F931F932F93EC
:1009C0003F934F935F936F937F938F939F93AF93D7
:1009D000BF93CF93DF93EF93FF93A0915504B09112
:1009E00056040DB60D920EB60D920E94CC078111E1
:1009F0000E94BB09A0915504B0915604CD91CDBF82
:100A0000DD91DEBFFF91EF91DF91CF91BF91AF916B
:100A10009F918F917F916F915F914F913F912F9116
:100A20001F910F91FF90EF90DF90CF90BF90AF900C
:100A30009F908F907F906F905F904F903F902F90FE
:100A40001F900F900FBE0F9008950E94C904189533
:100A5000E0911404F09115048081811107C08FEF9B
:100A60009FEF9093EB038093EA030895E0911404C1
:100A7000F09115040580F681E02D8081918190939D
:100A8000EB038093EA030895CF93DF93EC018F8902
:100A9000988D0E942F03CE010E942F03DF91CF91EA
:100AA00008952F923F924F925F926F927F928F9212
:100AB0009F92AF92BF92CF92DF92EF920F931F93CC
:100AC000CF93DF93CDB7DEB71C014B0129013A016B
:100AD000A90165EA70E0D50157968D919C915897D0
:100AE0000E94EA0BF5018789908DF1E04F1A5108B9
:100AF000480E591E8114910489F417C0822F90E08A
:100B0000F401E80FF91F3081D501A80FB91F5996DC
:100B10003C938081882329F02F5F01C020E02A3098
:100B200068F3D50192961C9202C0F501118EF4E093
:100B3000FE1518F46894EE24E2F8D5015696EC926E
:100B400056979596EC92959796961C92C5010296AB
:100B50000E947003C5010C960E947003F501B186D6
:100B6000A08685E090E08E19910995878487B38AE5
:100B7000A28A84E0B796DF011D928A95E9F7F50114
:100B800013A6A801B101C2010E94D503D5018D931E
:100B90009C93C114D10419F0F601B182A082DF91B7
:100BA000CF911F910F91EF90DF90CF90BF90AF90BA
:100BB0009F908F907F906F905F904F903F902F907D
:100BC0000895CF93C0E010C08C2F90E09C01220FBD
:100BD000331F220F331F220F331F820F931F885D95
:100BE0009B4F0E946203CF5FC53070F38FE194E0AA
:100BF0000E94620386E194E00E94620389E094E02F
:100C00000E94620380E094E00E94620386EF93E01A
:100C10000E9462038FE194E0909315048093140482
:100C200086E194E09093130480931204CF91089589
:100C3000CF93DF93EC010FB6F8940F928091F503F8
:100C40008F5F8093F5038091550490915604892B12
:100C500059F4D0935604C09355048091F503813024
:100C600099F40E94E10510C08091F10381110CC03C
:100C7000E0915504F091560496898E89891720F0E9
:100C8000D0935604C09355048091EC038F5F8093FA
:100C9000EC038BA38E899091F203981710F4809344
:100CA000F20390E0FC01EE0FFF1FEE0FFF1FEE0FAF
:100CB000FF1F8E0F9F1FFC01E85DFB4F0180F2813B
:100CC000E02DFD83EC83848195819F838E83A481B5
:100CD000B581CE01029613969C938E9312979583BD
:100CE0008483EE89F0E0CF01880F991F880F991F48
:100CF000880F991FE80FF91FE85DFB4FFB87EA8714
:100D000080818F5F80830F900FBE8091F1038823D5
:100D100051F0E0915504F091560496898E89981708
:100D200010F40E947004DF91CF910895CF93DF9368
:100D30001CC00FB6F8940F92E0910504F0910604E0
:100D4000C681D781CE0102960E94A5038091F5034A
:100D500081508093F5038091FF0381508093FF03BE
:100D60000F900FBECE010E9444058091FF038111B8
:100D7000E0CFDF91CF9108950E94960680912804DC
:100D80008230D0F30E947004F7CFFF920F931F932D
:100D9000CF93DF93EC01F62E0091F3031091F4034F
:100DA000809155049091560402960E94A503CF3F6E
:100DB0008FEFD807B1F5FF20A1F1E6EFF3E0A181B5
:100DC000B281C0915504D0915604BD83AC83C091CB
:100DD0005504D091560414968D919C9115979F833C
:100DE0008E831496CD91DC91159780915504909146
:100DF000560402969B838A838091550490915604F1
:100E0000029615969C938E931497A0915504B091D9
:100E100056041B96FC93EE931A9780818F5F808314
:100E20002FC0C00FD11FE0915504F0915604D38319
:100E3000C283C017D10768F46091550470915604BD
:100E400080911204909113046E5F7F4F0E9474038F
:100E500017C06091550470915604809114049091CC
:100E600015046E5F7F4F0E9474038091EA03909196
:100E7000EB03C817D90720F4D093EB03C093EA0320
:100E8000DF91CF911F910F91FF9008952F923F9284
:100E90004F925F926F927F928F929F92AF92BF928A
:100EA000CF92DF92EF92FF920F931F93CF93DF9336
:100EB0003C011B015A012901CA010E949A026C01DE
:100EC000892B71F08CE290E00E949A02EC01892B50
:100ED00019F0D88ECF8A06C0C6010E942F0302C027
:100EE000C0E0D0E0209791F0950140E050E0812CE7
:100EF000912C5E016701E02E8201B101C3010E94C5
:100F00005105CE010E94180681E001C08FEFDF91EC
:100F1000CF911F910F91FF90EF90DF90CF90BF90F6
:100F2000AF909F908F907F906F905F904F903F9089
:100F30002F900895EF92FF920F930F2EF8EEEF2E61
:100F4000F3E0FF2EF02D00E020E030E048EC50E030
:100F50006AEA70E08CEB96E00E944607813081F4EB
:100F6000F8948FEF9FEF9093EB038093EA0381E077
:100F70008093F1031092F4031092F3030E94410452
:100F8000809162000F91FF90EF9008958091E703A8
:100F90008F5F8093E70308950F931F93CF93DF93A1
:100FA0008091E7038111EBC0C091F303D091F4036A
:100FB0008E010F5F1F4F1093F4030093F30301158D
:100FC0001105B9F480911404909115042091120434
:100FD0003091130430931504209314049093130458
:100FE000809312048091ED038F5F8093ED030E9444
:100FF00028058091EA039091EB030817190720F464
:1010000080E0B8C081E001C080E0E0911404F0917C
:1010100015049081911107C02FEF3FEF3093EB0340
:101020002093EA03A7C0E0911404F0911504058011
:10103000F681E02D0680F781E02D228133810217B1
:10104000130728F43093EB032093EA0393C0A2859F
:10105000B3852481358146815781E9015D834C83C5
:101060002681378144815581E9015B834A8311964A
:101070002D913C911297AF014E5F5F4F24173507BA
:1010800031F42681378112963C932E931197138663
:1010900012869C9191509C93A489B589109719F15F
:1010A0002685378560897189E9017D836C83208974
:1010B000318966857785E9017B836A8311966D9115
:1010C0007C9112979F01245F3F4F6217730731F4A1
:1010D0002089318912963C932E931197158A148A90
:1010E0009C9191509C9326899091F203921710F451
:1010F0002093F20330E0D901AA0FBB1FAA0FBB1F38
:10110000AA0FBB1F2A0F3B1FD901A85DBB4F119629
:101110000D90BC91A02DB583A48314962D913C9184
:1011200015973783268314962D913C911597E901E5
:101130005B834A8315965C934E931497A689B0E01F
:101140009D01220F331F220F331F220F331FA20FC7
:10115000B31FA85DBB4FB387A2879C919F5F9C93F1
:101160002689E0915504F09156049689291708F0D4
:1011700049CF4BCF9091EE0391110CC00CC08091E0
:10118000EF039091F00301969093F0038093EF03A7
:1011900080E001C081E0DF91CF911F910F91089510
:1011A000CF93DF930FB6F8940F928091E7038150AD
:1011B0008093E7038091E7038111BFC08091F5031D
:1011C000811196C0BDC0E0910E04F0910F0406801D
:1011D000F781E02DA489B589C685D7858089918955
:1011E0009D838C83C089D189868597859B838A83DB
:1011F00011962D913C911297CF010C962817390723
:1012000031F48089918912969C938E931197158A57
:10121000148A8C9181508C93A285B385C481D58129
:10122000868197819D838C83C681D78184819581B6
:101230009B838A8311968D919C9112979F012E5FBB
:101240003F4F8217930731F48681978112969C93C2
:101250008E931197138612868C9181508C93868978
:101260009091F203981710F48093F20390E0DC0160
:10127000AA0FBB1FAA0FBB1FAA0FBB1F8A0F9B1F62
:10128000DC01A85DBB4F11960D90BC91A02DB583DC
:10129000A48314968D919C911597978386831496B9
:1012A000CD91DC9115973B832A8315963C932E9321
:1012B0001497A689B0E0CD01880F991F880F991F58
:1012C000880F991FA80FB91FA85DBB4FB387A287CE
:1012D0008C918F5F8C939689A0915504B0915604A0
:1012E00056968C91981730F081E08093EE0302C0FF
:1012F000E0E0F0E080910904811165CFEF2B11F05F
:101300000E942805C091EF03D091F003209769F067
:101310000E94CC07882319F081E08093EE03219787
:10132000B9F71092F0031092EF038091EE03882337
:1013300031F00E94700481E003C080E001C080E0D1
:101340000F900FBEDF91CF910895CF93DF93EC0103
:10135000892B49F00E94C60760E0CE010E94C506B5
:101360000E94D00801C080E0811102C00E94700478
:10137000DF91CF9108958091E703882321F081E0E8
:101380008093EE0308951092EE032091F20301C0C2
:101390002150822F90E0FC01EE0FFF1FEE0FFF1F88
:1013A000EE0FFF1FE80FF91FE85DFB4F308133237D
:1013B00079F3AC01440F551F440F551F440F551FBF
:1013C000480F591FDF010180F281E02D0280F38177
:1013D000E02D1296FC93EE931197455D5B4FE41759
:1013E000F50729F442815381FD0152834183FC01B9
:1013F000EE0FFF1FEE0FFF1FEE0FFF1F8E0F9F1F41
:10140000FC01E85DFB4F0180F281E02D8681978130
:1014100090935604809355042093F20308955058F6
:10142000BB27AA270E94270A0C94090B0E94FB0ADB
:1014300038F00E94020B20F039F49F3F19F426F493
:101440000C94F80A0EF4E095E7FB0C94C90AE92F16
:101450000E941A0B58F3BA1762077307840795079F
:1014600020F079F4A6F50C94540B0EF4E0950B2EB5
:10147000BA2FA02D0B01B90190010C01CA01A001E6
:101480001124FF27591B99F0593F50F4503E68F141
:101490001A16F040A22F232F342F4427585FF3CF82
:1014A000469537952795A795F0405395C9F77EF453
:1014B0001F16BA0B620B730B840BBAF09150A1F09C
:1014C000FF0FBB1F661F771F881FC2F70EC0BA0F22
:1014D000621F731F841F48F4879577956795B795AA
:1014E000F7959E3F08F0B0CF9395880F08F09927A5
:1014F000EE0F9795879508950E94830A6894B1111D
:101500000C94550B08950E94220B88F09F5798F079
:10151000B92F9927B751B0F0E1F0660F771F881FF8
:10152000991F1AF0BA95C9F714C0B13091F00E9412
:10153000540BB1E008950C94540B672F782F882733
:10154000B85F39F0B93FCCF3869577956795B39539
:10155000D9F73EF490958095709561957F4F8F4FA8
:101560009F4F08950E943C0B90F09F3748F49111D3
:1015700016F00C94550B60E070E080E89FEB089546
:1015800026F41B16611D711D811D0C94CF0A0C944D
:10159000EA0A97F99F6780E870E060E00895882381
:1015A00071F4772321F09850872B762F07C066239C
:1015B00011F499270DC09051862B70E060E02AF05D
:1015C0009A95660F771F881FDAF7880F969587958B
:1015D00097F908959F3F31F0915020F487957795C2
:1015E0006795B795880F911D9695879597F90895FA
:1015F0009FEF80EC089500240A941616170618062B
:101600000906089500240A94121613061406050606
:101610000895092E0394000C11F4882352F0BB0F97
:1016200040F4BF2B11F460FF04C06F5F7F4F8F4FFA
:101630009F4F089557FD9058440F551F59F05F3F35
:1016400071F04795880F97FB991F61F09F3F79F0E4
:1016500087950895121613061406551FF2CF469566
:10166000F1DF08C0161617061806991FF1CF8695E8
:1016700071056105089408950E94220BA0F0BEE751
:10168000B91788F4BB279F3860F41616B11D672F71
:10169000782F8827985FF7CF869577956795B11D46
:1016A00093959639C8F30895E894BB276627772762
:1016B000CB0197F908950E946E0B0C94090B0E94C0
:1016C000FB0A38F00E94020B20F0952311F00C94D5
:1016D000C90A0C94F80A11240C94550B0E941A0B99
:1016E00070F3959FC1F3950F50E0551F629FF00175
:1016F000729FBB27F00DB11D639FAA27F00DB11D8E
:10170000AA1F649F6627B00DA11D661F829F222716
:10171000B00DA11D621F739FB00DA11D621F839F9D
:10172000A00D611D221F749F3327A00D611D231F73
:10173000849F600D211D822F762F6A2F11249F57C1
:1017400050409AF0F1F088234AF0EE0FFF1FBB1FC4
:10175000661F771F881F91505040A9F79E3F510583
:1017600080F00C94C90A0C94550B5F3FE4F3983E4B
:10177000D4F3869577956795B795F795E7959F5F2D
:10178000C1F7FE2B880F911D9695879597F90895BF
:10179000A1E21A2EAA1BBB1BFD010DC0AA1FBB1F75
:1017A000EE1FFF1FA217B307E407F50720F0A21BE7
:1017B000B30BE40BF50B661F771F881F991F1A9454
:1017C00069F760957095809590959B01AC01BD017E
:1017D000CF010895DC0101C06D9341505040E0F706
:1017E0000895AEE0B0E0E7EFFBE00C94B20E0D8997
:1017F0001E8986E08C831A8309838FEF9FE79E837F
:101800008D83AE01475E5F4F6F89788DCE01019663
:101810000E94130CEF81F885E00FF11F10822E96C5
:10182000E4E00C94CE0EABE0B0E0E9E1FCE00C9417
:10183000A40E6C017B018A01FC0117821682838150
:1018400081FFCCC1CE0101963C01F6019381F701E5
:1018500093FD859193FF81917F01882309F4BAC19B
:10186000853239F493FD859193FF81917F01853213
:1018700029F4B60190E00E940A0EE7CF912C212CAA
:10188000312CFFE1F315D8F08B3279F038F4803247
:1018900079F08332A1F4232D20611DC08D3261F0D7
:1018A000803369F4232D216016C0832D8260382E89
:1018B000E32DE4603E2E2AC0F32DF8601DC037FCF6
:1018C0002DC020ED280F2A3040F08E32B9F436FCBE
:1018D00081C1232D2064322E19C036FE06C08AE055
:1018E000989E200D1124922E11C0EAE02E9E200D0C
:1018F0001124222EF32DF0623F2E08C08C3621F4E5
:10190000832D8068382E02C0883641F4F70193FD9C
:10191000859193FF81917F018111B3CF982F9F7D96
:101920009554933028F40C5F1F4F9FE399830DC0AB
:10193000833631F0833771F0833509F059C021C007
:10194000F801808189830E5F1F4F88248394912C36
:10195000530113C02801F2E04F0E511CF801A08082
:10196000B18036FE03C0692D70E002C06FEF7FEFDB
:10197000C5010E94FF0D4C018201F32DFF773F2E20
:1019800016C0280122E0420E511CF801A080B1804F
:1019900036FE03C0692D70E002C06FEF7FEFC50116
:1019A0000E94F40D4C01F32DF0683F2E820133FCB0
:1019B0001BC0822D90E088169906B0F4B60180E233
:1019C00090E00E940A0E2A94F4CFF50137FC85912D
:1019D00037FE81915F01B60190E00E940A0E21104E
:1019E0002A9421E0821A91088114910471F7E8C0C9
:1019F000843611F0893641F5F80137FE07C0608161
:101A00007181828193810C5F1F4F08C06081718159
:101A1000072E000C880B990B0E5F1F4FF32DFF76DE
:101A20003F2E97FF09C090958095709561957F4FE7
:101A30008F4F9F4FF0683F2E2AE030E0A3010E94B5
:101A4000460E882E861845C0853731F4232D2F7E0B
:101A5000B22E2AE030E025C0932D997FB92E8F3623
:101A6000C1F018F4883579F0B5C0803719F088379F
:101A700021F0B0C0E92FE061BE2EB4FE0DC0FB2DF9
:101A8000F460BF2E09C034FE0AC0292F2660B22E92
:101A900006C028E030E005C020E130E002C020E1CF
:101AA00032E0F801B7FE07C06081718182819381C5
:101AB0000C5F1F4F06C06081718180E090E00E5F77
:101AC0001F4FA3010E94460E882E8618FB2DFF771C
:101AD0003F2E36FE0DC0232D2E7FA22E891458F4E2
:101AE00034FE0BC032FC09C0832D8E7EA82E05C0AB
:101AF000B82CA32C03C0B82C01C0B92CA4FE0FC075
:101B0000FE01E80DF11D8081803321F49A2D997E2C
:101B1000A92E09C0A2FE06C0B394B39404C08A2DB6
:101B2000867809F0B394A3FC11C0A0FE06C0B214DD
:101B300088F4280C922C9B180EC0B21460F4B601E5
:101B400080E290E00E940A0EB394F7CFB21418F42A
:101B50002B1802C0982C212CA4FE10C0B60180E3E3
:101B600090E00E940A0EA2FE17C0A1FC03C088E705
:101B700090E002C088E590E0B6010CC08A2D86781E
:101B800059F0A1FE02C08BE201C080E2A7FC8DE209
:101B9000B60190E00E940A0E891438F4B60180E381
:101BA00090E00E940A0E9A94F7CF8A94F301E80D10
:101BB000F11D8081B60190E00E940A0E8110F5CFE0
:101BC000222009F442CEB60180E290E00E940A0E83
:101BD0002A94F6CFF6018681978102C08FEF9FEF9E
:101BE0002B96E2E10C94C00EFC0105906150704010
:101BF0000110D8F7809590958E0F9F1F0895FC01D6
:101C00006150704001900110D8F7809590958E0F2B
:101C10009F1F08950F931F93CF93DF93FB012381A1
:101C200021FD03C08FEF9FEF2CC022FF16C046811D
:101C30005781248135814217530744F4A081B18133
:101C40009D012F5F3F4F318320838C932681378105
:101C50002F5F3F4F3783268314C08B01EC01FB01BC
:101C60000084F185E02D0995892BE1F6D8011696BF
:101C70008D919C911797019617969C938E9316972A
:101C8000CE01DF91CF911F910F910895FA01AA27FC
:101C9000283051F1203181F1E8946F936E7F6E5FAF
:101CA0007F4F8F4F9F4FAF4FB1E03ED0B4E03CD05D
:101CB000670F781F891F9A1FA11D680F791F8A1F40
:101CC000911DA11D6A0F711D811D911DA11D20D0A7
:101CD00009F468943F912AE0269F11243019305D61
:101CE0003193DEF6CF010895462F4770405D419352
:101CF000B3E00FD0C9F7F6CF462F4F70405D4A339F
:101D000018F0495D31FD4052419302D0A9F7EACF66
:101D1000B4E0A6959795879577956795BA95C9F795
:101D200000976105710508959B01AC010A2E069488
:101D30005795479537952795BA95C9F7620F731F41
:101D4000841F951FA01D08952F923F924F925F927E
:101D50006F927F928F929F92AF92BF92CF92DF92BB
:101D6000EF92FF920F931F93CF93DF93CDB7DEB720
:101D7000CA1BDB0B0FB6F894DEBF0FBECDBF0994B4
:101D80002A88398848885F846E847D848C849B840B
:101D9000AA84B984C884DF80EE80FD800C811B8119
:101DA000AA81B981CE0FD11D0FB6F894DEBF0FBE48
:0A1DB000CDBFED010895F894FFCFB8
:101DBA001F030425642E2564002E2E2E536861729B
:101DCA00656420646174612070726F626C656D2E47
:101DDA002E2E002E2E2E5820657175616C20592EDC
:101DEA002E2E007461736B5F6F6D61720074617384
:101DFA006B5F6C61736865656E0049444C45000011
:00000001FF
