:100000000C942A000C9434000C9434000C943400AA
:100010000C9434000C9434000C9434000C94340090
:100020000C9434000C9434000C9434000C94340080
:100030000C9434000C9434000C9434000C94340070
:100040000C9434000C9434000C9434000C94340060
:100050000C94340011241FBECFE5D8E0DEBFCDBF25
:100060000E9483000C948F000C940000959A00006D
:10007000000082B3807C82BB089517BA979A929849
:10008000C79B04C00E943600C799FCCF8FEF87BB87
:1000900008951F93182F0E943D0018BB82B38B77E1
:1000A00082BB0E94360018BA1F9108951F93182F23
:1000B0000E943D0018BB9798929A0E94360018BA89
:1000C0001F91089581B3816A81BB85EA9EE0019703
:1000D000F1F700C0000081E00E94490083EF91E049
:1000E0000197F1F700C0000088E30E94490090E109
:1000F0009A95F1F700C08EE00E94490080E18A9550
:10010000F1F700C008950E9462008EE40E9456003C
:100110008EE40E9456008EE40E945600FFCFF894B1
:02012000FFCF0F
:00000001FF
