S00C000052544F532E73726563D0
S11300000C942A000C94FC020C9423030C944A03D1
S11300100C9447000C9447000C9447000C94D708A8
S11300200C9447000C9447000C9447000C94470030
S11300300C9447000C9484040C94AB040C94470077
S11300400C9447000C9447000C9447000C94470010
S11300500C94470011241FBECFE5D8E0DEBFCDBF0E
S113006012E0A0E6B0E0E2EEF6E202C005900D92E6
S1130070A031B107D9F725E0A0E1B2E001C01D929B
S1130080AB3BB207E1F70E94EF050C946F130C949D
S11300900000883008F05EC06932D1F44AB39DECA8
S11300A0899F912D1124969596959695990F292FB0
S11300B0220F220F920F891B21E030E0B90102C008
S11300C0660F771F8A95E2F7CB01842B8ABB0895CC
S11300D06832D9F44AB39DEC899F912D11249695E9
S11300E096959695990F292F220F220F920F891B0F
S11300F021E030E0B90102C0660F771F8A95E2F76C
S1130100CB01809584238ABB08956A3209F049C1E2
S11301104AB39DEC899F912D1124969596959695B9
S1130120990F292F220F220F920F891B21E030E013
S1130130B90102C0660F771F8A95E2F7CB01962FAB
S1130140909594239ABB90B79B7F90BF9BB3892BC8
S11301508BBB089596EF980F983008F05EC0693213
S1130160D1F447B39DEC899F912D112496959695D2
S11301709695990F292F220F220F920F891B21E0A8
S113018030E0B90102C0660F771F8A95E2F7CB0110
S1130190842B87BB08956832D9F447B39DEC899FBB
S11301A0912D1124969596959695990F292F220FA6
S11301B0220F920F891B21E030E0B90102C0660FC3
S11301C0771F8A95E2F7CB018095842387BB089536
S11301D06A3209F0E6C047B39DEC899F912D112442
S11301E0969596959695990F292F220F220F920F87
S11301F0891B21E030E0B90102C0660F771F8A95A0
S1130200E2F7CB01962F9095942397BB90B79B7FF1
S113021090BF98B3892B88BB08959CEE980F9830B3
S113022008F05EC06932D1F444B39DEC899F912DEE
S11302301124969596959695990F292F220F220FA2
S1130240920F891B21E030E0B90102C0660F771FCD
S11302508A95E2F7CB01842B84BB08956832D9F4E4
S113026044B39DEC899F912D11249695969596956E
S1130270990F292F220F220F920F891B21E030E0C2
S1130280B90102C0660F771F8A95E2F7CB0180950A
S1130290842384BB08956A3209F083C044B39DEC7F
S11302A0899F912D1124969596959695990F292FAE
S11302B0220F220F920F891B21E030E0B90102C006
S11302C0660F771F8A95E2F7CB01962F90959423BA
S11302D094BB90B79B7F90BF95B3892B85BB089542
S11302E092EE980F983008F05CC06932D1F441B3B3
S11302F09DEC899F912D1124969596959695990F2D
S1130300292F220F220F920F891B21E030E0B9011F
S113031002C0660F771F8A95E2F7CB01842B81BB5D
S113032008956832D9F441B39DEC899F912D11242D
S1130330969596959695990F292F220F220F920F35
S1130340891B21E030E0B90102C0660F771F8A954E
S1130350E2F7CB018095842381BB08956A3209F5C5
S113036041B39DEC899F912D112496959695969570
S1130370990F292F220F220F920F891B21E030E0C1
S1130380B90102C0660F771F8A95E2F7CB01962F59
S11303909095942391BB90B79B7F90BF92B3892B88
S11303A082BB0895883008F046C09DEC699F912D6A
S11303B01124969596959695990F292F220F220F21
S11303C0920F691B6130D1F44BB39DEC899F912D41
S11303D01124969596959695990F292F220F220F01
S11303E0920F891B21E030E0B90102C0660F771F2C
S11303F08A95E2F7CB01842B8BBB08956111FBC076
S11304004BB39DEC899F912D1124969596959695C5
S1130410990F292F220F220F920F891B21E030E020
S1130420B90102C0660F771F8A95E2F7CB01809568
S113043084238BBB089596EF980F983008F046C03C
S11304409DEC699F912D1124969596959695990FFB
S1130450292F220F220F920F691B6130D1F448B368
S11304609DEC899F912D1124969596959695990FBB
S1130470292F220F220F920F891B21E030E0B901AE
S113048002C0660F771F8A95E2F7CB01842B88BBE5
S113049008956111B0C048B39DEC899F912D11243A
S11304A0969596959695990F292F220F220F920FC4
S11304B0891B21E030E0B90102C0660F771F8A95DD
S11304C0E2F7CB018095842388BB08959CEE980FB6
S11304D0983008F046C09DEC699F912D11249695A3
S11304E096959695990F292F220F220F920F691B2B
S11304F06130D1F445B39DEC899F912D11249695DB
S113050096959695990F292F220F220F920F891BEA
S113051021E030E0B90102C0660F771F8A95E2F747
S1130520CB01842B85BB0895611165C045B39DEC57
S1130530899F912D1124969596959695990F292F1B
S1130540220F220F920F891B21E030E0B90102C073
S1130550660F771F8A95E2F7CB018095842385BBCC
S1130560089592EE980F983008F045C09DEC699F6D
S1130570912D1124969596959695990F292F220FD2
S1130580220F920F691B6130D1F442B39DEC899F15
S1130590912D1124969596959695990F292F220FB2
S11305A0220F920F891B21E030E0B90102C0660FCF
S11305B0771F8A95E2F7CB01842B82BB08956111E2
S11305C01AC042B39DEC899F912D1124969596955E
S11305D09695990F292F220F220F920F891B21E044
S11305E030E0B90102C0660F771F8A95E2F7CB01AC
S11305F08095842382BB08951F920F920FB60F92A9
S113060011242F933F934F935F936F937F938F9313
S11306109F93AF93BF93EF93FF93E0911402F091F4
S113062015020995FF91EF91BF91AF919F918F9121
S11306307F916F915F914F913F912F910F900FBEDA
S11306400F901F9018951F920F920FB60F921124BE
S11306502F933F934F935F936F937F938F939F93C6
S1130660AF93BF93EF93FF93E0911202F0911302C3
S11306700995FF91EF91BF91AF919F918F917F91D8
S11306806F915F914F913F912F910F900FBE0F90FB
S11306901F9018951F920F920FB60F9211242F934B
S11306A03F934F935F936F937F938F939F93AF93F6
S11306B0BF93EF93FF93E0911002F091110209951B
S11306C0FF91EF91BF91AF919F918F917F916F9126
S11306D05F914F913F912F910F900FBE0F901F90FC
S11306E018954F925F926F927F928F929F92AF92E2
S11306F0BF92CF92DF92EF92FF92CF93DF93CDB769
S1130700DEB760970FB6F894DEBF0FBECDBFDC0135
S1130710693239F511968C9111978F938C918F933F
S113072086E690E09F938F93CE0101969F938F93DB
S11307300E9485100F900F900F900F900F900F90C4
S113074080E090E004C05D9BFECF2CB90196E1E00F
S1130750F0E0EC0FFD1FE80FF91F20812111F3CF0A
S11307605FC0683209F046C0CD90DD90ED90FC90FA
S1130770C701B6010E94460F2B013C019B01AC014D
S1130780C701B6010E94A30E4B015C01C301B20173
S11307900E94100FF62EE72E20E030E04AE754E4E2
S11307A0C501B4010E94EF0F0E94100F7F936F9355
S11307B0EF92FF9283E690E09F938F93CE01019690
S11307C09F938F930E9485100FB6F894DEBF0FBEDF
S11307D0CDBF80E090E004C05D9BFECF2CB90196B4
S11307E0E1E0F0E0EC0FFD1FE80FF91F208121117B
S11307F0F3CF16C06A3219F48C918CB911C06B32E4
S113080079F406C05D9BFECF9CB92F5F3F4F02C0B9
S113081020E030E0FD01E20FF31F90819111F2CF4F
S113082060960FB6F894DEBF0FBECDBFDF91CF91B7
S1130830FF90EF90DF90CF90BF90AF909F908F90FC
S11308407F906F905F904F900895CF92DF92EF92D8
S1130850FF929093BA058093B905092E000CAA0B58
S1130860BB0B880F991FAA1FBB1F880F991FAA1FB4
S1130870BB1F9C01AD01220F331F441F551F220FC4
S1130880331F441F551F0F2EC12CF2E1DF2EFAE750
S1130890EF2EF12CF02DC701B6010E945C10DA0195
S11308A0C9010197A109B109892F9A2FAB2FBB2741
S11308B080BD2091B9053091BA05C901330FAA0B47
S11308C0BB0B880F991FAA1FBB1F880F991FAA1F54
S11308D0BB1F9C01AD01220F331F441F551F220F64
S11308E0331F441F551FC701B6010E945C102150DD
S11308F029B98AB188618AB980B5866880BDFF90BC
S1130900EF90DF90CF9008951F920F920FB60F9241
S113091011242F933F934F935F936F937F938F9300
S11309209F93AF93BF93EF93FF93E0911802F091DD
S113093019020995FF91EF91BF91AF919F918F910A
S11309407F916F915F914F913F912F910F900FBEC7
S11309500F901F9018951F920F920FB60F921124AB
S11309602F933F934F935F936F937F938F939F93B3
S1130970AF93BF93EF93FF93E0911602F0911702A8
S11309800995FF91EF91BF91AF919F918F917F91C5
S11309906F915F914F913F912F910F900FBE0F90E8
S11309A01F901895CF93DF9300D0CDB7DEB769E2DF
S11309B080E00E9449000E94D70B9A83898310E04B
S11309C0111106C063E380E00E94D20111E005C06A
S11309D062E380E00E94D20110E064E670E0CE01A0
S11309E001960E94BA0DECCFCF93DF9300D0CDB720
S11309F0DEB769E281E00E9449000E94D70B9A8326
S1130A00898310E0111106C063E381E00E94D201E2
S1130A1011E005C062E381E00E94D20110E064EFBE
S1130A2071E0CE0101960E94BA0DECCFCF93DF9313
S1130A30CDB7DEB7E2970FB6F894DEBF0FBECDBFD9
S1130A400E94D70B9AAB89AB25E041E0BE016F5FF2
S1130A507F4F80911E0290911F020E94500E25E04C
S1130A6041E0BE016F5E7F4F80911C0290911D0298
S1130A700E94500E25E041E0BE016F5D7F4F80E093
S1130A8090E00E94500E6BE289E690E00E947103B0
S1130A9069E2CE010F960E9471036BE28EE791E04A
S1130AA00E9471038E81811106C06BE285E790E09C
S1130AB00E9471031FC0813031F46BE28DE890E035
S1130AC00E94710317C0823031F46BE283EA90E034
S1130AD00E9471030FC0833031F46BE28BEB90E022
S1130AE00E94710307C0843029F46BE285ED90E025
S1130AF00E9471036BE28DEE90E00E94710369E243
S1130B00CE014F960E9471036BE28EE791E00E9442
S1130B1071038E89811106C06BE289EF90E00E9417
S1130B2071031FC0813031F46BE281E191E00E94D6
S1130B30710317C0823031F46BE287E291E00E94C6
S1130B4071030FC0833031F46BE28FE391E00E94B4
S1130B50710307C0843029F46BE289E591E00E94B7
S1130B6071036BE281E791E00E94710369E2CE01B7
S1130B708F960E9471036BE28DE791E00E947103EE
S1130B808EA1811106C06BE282E891E00E9471039C
S1130B901FC0813031F46BE28AE991E00E94710355
S1130BA017C0823031F46BE280EB91E00E94710354
S1130BB00FC0833031F46BE288EC91E00E94710342
S1130BC007C0843029F46BE282EE91E00E94710345
S1130BD068EE73E0CE01C1960E94BA0D35CFEF9254
S1130BE0FF920F9380E895E20E9425040F2EFEE108
S1130BF0EF2EF2E0FF2EF02D02E020E030E042E3A1
S1130C0050E06AEF71E082ED94E00E94050B0F2E34
S1130C10FCE1EF2EF2E0FF2EF02D01E020E030E0C9
S1130C2042E350E060E072E084EF94E00E94050B40
S1130C300F2EFAE1EF2EF2E0FF2EF02D03E020E07C
S1130C4030E046E950E066E072E086E195E00E941B
S1130C50050B0E94A50B80E090E00F91FF90EF90B0
S1130C600895A5E2B2E0E9E2F2E01196FC93EE9376
S1130C7013961C921E921297A1E2B2E08FE193E0C8
S1130C8013969C938E93129711961C921E929383A3
S1130C908283B183A0830895EF92FF920F931F93F1
S1130CA0CF93DF93EC010E94D10B8091200281113C
S1130CB005C00E94310681E080932002209771F0E4
S1130CC0CE010496C817D90738F425968C179D07CA
S1130CD028F0C0E0D0E002C0C0E0D0E0209709F4E2
S1130CE05EC020916000309161002C173D0708F42C
S1130CF059C0E0912502F0912602A5E2B2E002C0BB
S1130D00DF01FC01828193818C179D0720F480818F
S1130D1091810097A9F782E0E132F80709F445C010
S1130D200D911C9111970C5F1F4F808191818D93C0
S1130D309C93828193818C1B9D0B8930910530F1AA
S1130D40BF016C0F7D1FDB0113969C938E9312974A
S1130D50D383C28312964D915C9113970F2EF5E2C3
S1130D60EF2EF2E0FF2EF02D01C07D01E701A881F6
S1130D70B98112968D919C91139784179507A8F3C6
S1130D80EB01B983A883D7016D937C93828193810E
S1130D90281B390B309361002093600008C000E0E9
S1130DA010E005C000E010E002C000E010E00E9486
S1130DB0E50CC801DF91CF911F910F91FF90EF9047
S1130DC008950F931F93CF93DF93009741F1EC01A4
S1130DD08C01045011090E94D10BF8014281538106
S1130DE0A5E2B2E001C0DF01ED91FC9111972281EF
S1130DF0338124173507B8F32497F983E8830D93D7
S1130E001C938A819B812091600030916100820F44
S1130E10931F90936100809360000E94E50CDF9122
S1130E20CF911F910F910895FC01039692838183C2
S1130E302FEF3FEF348323839683858390878783C3
S1130E4010820895FC01118610860895CF93DF93D4
S1130E50EB01488159814F3F2FEF520721F4FC01E8
S1130E60A781B0850DC0DC01139601C0DF01129685
S1130E70ED91FC9113972081318142175307B0F70C
S1130E801296ED91FC911397FB83EA83D583C48377
S1130E90BD83AC831396DC93CE931297998788878E
S1130EA0FC0120812F5F2083DF91CF910895CF93A0
S1130EB0DF93FC01A085B185C281D38184819581B2
S1130EC09D838C83C481D581828193819B838A8312
S1130ED011968D919C911297E817F90731F484814A
S1130EE0958112969C938E931197118610868C91FE
S1130EF081508C938C91DF91CF9108951BBC8CE72A
S1130F008ABD8BE08EBD89B7806189BF089531E1C8
S1130F10FC013083319722E220833197A3E3A0833D
S1130F20319760833197708331971082319760E8ED
S1130F30608331971082319762E06083319763E078
S1130F406083319764E06083319765E06083319713
S1130F5066E06083319767E06083319768E060837F
S1130F60319769E06083319760E160833197308322
S1130F70319732E13083319733E13083319734E173
S1130F803083319735E13083319736E130833197BF
S1130F9037E13083319738E13083319739E1308359
S1130FA0319730E23083319731E2308331972083B7
S1130FB0319723E2208331974083319750833197CF
S1130FC026E22083319727E22083319728E2208389
S1130FD0319729E22083319720E32083319721E35D
S1130FE02083869708950E947E07A091B705B0914B
S1130FF0B805CD91CDBFDD91DEBFFF91EF91DF91BB
S1131000CF91BF91AF919F918F917F916F915F919C
S11310104F913F912F911F910F91FF90EF90DF908F
S1131020CF90BF90AF909F908F907F906F905F9084
S11310304F903F902F901F900F900FBE0F900895E8
S113104081E008950F920FB6F8940F921F92112425
S11310502F923F924F925F926F927F928F929F92C4
S1131060AF92BF92CF92DF92EF92FF920F931F93B2
S11310702F933F934F935F936F937F938F939F939C
S1131080AF93BF93CF93DF93EF93FF93A091B705F3
S1131090B091B8050DB60D920EB60D920E94FC0DDE
S11310A0A091B705B091B805CD91CDBFDD91DEBF5C
S11310B0FF91EF91DF91CF91BF91AF919F918F916C
S11310C07F916F915F914F913F912F911F910F915C
S11310D0FF90EF90DF90CF90BF90AF909F908F9054
S11310E07F906F905F904F903F902F901F900F9044
S11310F00FBE0F9008950F920FB6F8940F921F929F
S113110011242F923F924F925F926F927F928F920F
S11311109F92AF92BF92CF92DF92EF92FF920F9382
S11311201F932F933F934F935F936F937F938F936B
S11311309F93AF93BF93CF93DF93EF93FF93A091CC
S1131140B705B091B8050DB60D920EB60D920E947A
S1131150E10B81110E94FC0DA091B705B091B80577
S1131160CD91CDBFDD91DEBFFF91EF91DF91CF91A6
S1131170BF91AF919F918F917F916F915F914F91AB
S11311803F912F911F910F91FF90EF90DF90CF909F
S1131190BF90AF909F908F907F906F905F904F9093
S11311A03F902F901F900F900FBE0F9008950E94B4
S11311B07B081895FC0180E090E0DC0104C03196C6
S11311C00196A11DB11D2081253AC9F30895E0912E
S11311D07605F09177058081811107C08FEF9FEF2D
S11311E090934D0580934C050895E0917605F09118
S11311F077050580F681E02D8081918190934D05DE
S113120080934C050895CF93DF93EC018F89988DDB
S11312100E94E106CE010E94E106DF91CF9108957C
S11312202F923F924F925F926F927F928F929F92F2
S1131230AF92BF92CF92DF92EF920F931F93CF930F
S1131240DF93CDB7DEB71C014B0129013A01A90197
S113125065EA70E0D50157968D919C9158970E944C
S11312607E10F5018789908DF1E04F1A5108480EE0
S1131270591E8114910489F417C0822F90E0F4015F
S1131280E80FF91F3081D501A80FB91F59963C9377
S11312908081882329F02F5F01C020E02A3068F381
S11312A0D50192961C9202C0F501118EF4E0FE1550
S11312B018F46894EE24E2F8D5015696EC92569709
S11312C09596EC92959796961C92C50102960E946B
S11312D02207C5010C960E942207F501B186A0865B
S11312E085E090E08E19910995878487B38AA28A54
S11312F084E0B796DF011D928A95E9F7F50113A6FC
S1131300A801B101C2010E948707D5018D939C9366
S1131310C114D10419F0F601B182A082DF91CF91FA
S11313201F910F91EF90DF90CF90BF90AF909F905F
S11313308F907F906F905F904F903F902F90089583
S1131340CF93C0E010C08C2F90E09C01220F331F7C
S1131350220F331F220F331F820F931F86579A4F7A
S11313600E941407CF5FC53070F381E895E00E94B6
S1131370140788E795E00E9414078BE695E00E9425
S1131380140782E695E00E94140788E595E00E9420
S1131390140781E895E0909377058093760588E7B4
S11313A095E09093750580937405CF910895CF933C
S11313B0DF93EC010FB6F8940F92809157058F5F7D
S11313C0809357058091B7059091B805892B59F4FE
S11313D0D093B805C093B70580915705813099F42F
S11313E00E94A00910C08091530581110CC0E091A6
S11313F0B705F091B80596898E89891720F0D093A6
S1131400B805C093B70580914E058F5F80934E0554
S11314108BA38E8990915405981710F480935405EA
S113142090E0FC01EE0FFF1FEE0FFF1FEE0FFF1FFA
S11314308E0F9F1FFC01E657FA4F0180F281E02DC9
S1131440FD83EC83848195819F838E83A481B58100
S1131450CE01029613969C938E9312979583848360
S1131460EE89F0E0CF01880F991F880F991F880F2C
S1131470991FE80FF91FE657FA4FFB87EA87808127
S11314808F5F80830F900FBE80915305882351F0A6
S1131490E091B705F091B80596898E89981710F4F4
S11314A00E942208DF91CF910895CF93DF931CC04F
S11314B00FB6F8940F92E0916705F0916805C68124
S11314C0D781CE0102960E9457078091570581501B
S11314D080935705809161058150809361050F9039
S11314E00FBECE010E940309809161058111E0CFF6
S11314F0DF91CF9108950E94550A80918A05823028
S1131500D0F30E942208F7CFFF920F931F93CF933B
S1131510DF93EC01F62E009155051091560580914C
S1131520B7059091B80502960E945707CF3F8FEFF9
S1131530D807B1F5FF20A1F1E8E5F5E0A181B2817A
S1131540C091B705D091B805BD83AC83C091B705F0
S1131550D091B80514968D919C9115979F838E8395
S11315601496CD91DC9115978091B7059091B805AB
S113157002969B838A838091B7059091B805029661
S113158015969C938E931497A091B705B091B805C6
S11315901B96FC93EE931A9780818F5F80832FC0F4
S11315A0C00FD11FE091B705F091B805D383C28372
S11315B0C017D10768F46091B7057091B8058091A0
S11315C07405909175056E5F7F4F0E94260717C0C2
S11315D06091B7057091B805809176059091770573
S11315E06E5F7F4F0E94260780914C0590914D05B8
S11315F0C817D90720F4D0934D05C0934C05DF914B
S1131600CF911F910F91FF9008952F923F924F9287
S11316105F926F927F928F929F92AF92BF92CF927E
S1131620DF92EF92FF920F931F93CF93DF933C01CE
S11316301B015A012901CA010E944C066C01892B25
S113164071F08CE290E00E944C06EC01892B19F0B9
S1131650D88ECF8A06C0C6010E94E10602C0C0E04F
S1131660D0E0209791F0950140E050E0812C912C3E
S11316705E016701E02E8201B101C3010E941009DD
S1131680CE010E94D70981E001C08FEFDF91CF9195
S11316901F910F91FF90EF90DF90CF90BF90AF908C
S11316A09F908F907F906F905F904F903F902F907E
S11316B008952091B7053091B8058217930709F46E
S11316C038C00FB6F8940F92FC01228533854091FF
S11316D076055091770560917405709175050F90AA
S11316E00FBE2417350739F12617370731F1F5E016
S11316F028353F07B1F4FC0124893589232B61F097
S113170082E00895FC01E20FF11D27FDFA9533A54F
S11317103130A9F02F5F01C020E012169CF783E05E
S11317200895F5E022363F0761F0232B61F484E04D
S1131730089580E0089582E0089582E0089582E0AB
S1131740089584E0089581E00895EF92FF920F9345
S11317500F2EFAE4EF2EF5E0FF2EF02D00E020E04E
S113176030E048EC50E06AE072E08BE79AE00E94D7
S1131770050B813081F4F8948FEF9FEF90934D0522
S113178080934C0581E08093530510925605109286
S113179055050E94F307809162000F91FF90EF902E
S11317A00895809149058F5F8093490508950FB688
S11317B0F8940F9280915505909156050F900FBEA5
S11317C008950F931F93CF93DF938091490581115F
S11317D0EBC0C0915505D09156058E010F5F1F4F88
S11317E0109356050093550501151105B9F4809120
S11317F076059091770520917405309175053093A5
S113180077052093760590937505809374058091F0
S11318104F058F5F80934F050E94E70880914C0528
S113182090914D050817190720F480E0B8C081E0B5
S113183001C080E0E0917605F091770590819111E7
S113184007C02FEF3FEF30934D0520934C05A7C001
S1131850E0917605F09177050580F681E02D06800C
S1131860F781E02D228133810217130728F4309386
S11318704D0520934C0593C0A285B3852481358101
S113188046815781E9015D834C83268137814481F8
S11318905581E9015B834A8311962D913C911297FE
S11318A0AF014E5F5F4F2417350731F4268137812E
S11318B012963C932E931197138612869C91915005
S11318C09C93A489B589109719F126853785608979
S11318D07189E9017D836C832089318966857785E7
S11318E0E9017B836A8311966D917C9112979F0124
S11318F0245F3F4F6217730731F4208931891296B0
S11319003C932E931197158A148A9C9191509C9321
S1131910268990915405921710F42093540530E0D1
S1131920D901AA0FBB1FAA0FBB1FAA0FBB1F2A0FE7
S11319303B1FD901A657BA4F11960D90BC91A02D0B
S1131940B583A48314962D913C91159737832683F0
S113195014962D913C911597E9015B834A83159662
S11319605C934E931497A689B0E09D01220F331F18
S1131970220F331F220F331FA20FB31FA657BA4FD4
S1131980B387A2879C919F5F9C932689E091B705BA
S1131990F091B8059689291708F049CF4BCF90915B
S11319A0500591110CC00CC08091510590915205C5
S11319B00196909352058093510580E001C081E027
S11319C0DF91CF911F910F910895CF93DF930FB6BD
S11319D0F8940F9280914905815080934905809134
S11319E049058111BFC080915705811196C0BDC0C2
S11319F0E0917005F09171050680F781E02DA489CE
S1131A00B589C685D785808991899D838C83C08952
S1131A10D189868597859B838A8311962D913C91E4
S1131A201297CF010C962817390731F480899189D0
S1131A3012969C938E931197158A148A8C918150D7
S1131A408C93A285B385C481D581868197819D833A
S1131A508C83C681D781848195819B838A831196E7
S1131A608D919C9112979F012E5F3F4F8217930790
S1131A7031F48681978112969C938E9311971386E5
S1131A8012868C9181508C93868990915405981775
S1131A9010F48093540590E0DC01AA0FBB1FAA0F39
S1131AA0BB1FAA0FBB1F8A0F9B1FDC01A657BA4F8F
S1131AB011960D90BC91A02DB583A48314968D919D
S1131AC09C911597978386831496CD91DC911597F5
S1131AD03B832A8315963C932E931497A689B0E0F2
S1131AE0CD01880F991F880F991F880F991FA80F80
S1131AF0B91FA657BA4FB387A2878C918F5F8C9377
S1131B009689A091B705B091B80556968C9198170F
S1131B1030F081E08093500502C0E0E0F0E0809175
S1131B206B05811165CFEF2B11F00E94E708C0917E
S1131B305105D0915205209769F00E94E10B88234A
S1131B4019F081E0809350052197B9F7109252055E
S1131B501092510580915005882331F00E9422088B
S1131B6081E003C080E001C080E00F900FBEDF91F0
S1131B70CF9108950F931F93CF93DF938C01EB01C3
S1131B800E94D10B4091550550915605F8012081D2
S1131B903181C9018C0F9D1F4217530740F48217EE
S1131BA0930768F44817590760F0C0E00FC0821724
S1131BB0930748F04817590740F0C0E007C0C0E059
S1131BC005C0C1E003C0C1E001C0C1E0F8019183D8
S1131BD08083CC2329F060E0841B950B0E94840A47
S1131BE00E94E50C811102C00E9422088C2FDF9113
S1131BF0CF911F910F91089580914905882321F079
S1131C0081E0809350050895109250052091540569
S1131C1001C02150822F90E0FC01EE0FFF1FEE0F58
S1131C20FF1FEE0FFF1FE80FF91FE657FA4F308131
S1131C30332379F3AC01440F551F440F551F440F50
S1131C40551F480F591FDF010180F281E02D0280EA
S1131C50F381E02D1296FC93EE93119743575A4F5C
S1131C60E417F50729F442815381FD01528341832E
S1131C70FC01EE0FFF1FEE0FFF1FEE0FFF1F8E0F75
S1131C809F1FFC01E657FA4F0180F281E02D868107
S1131C9097819093B8058093B705209354050895D0
S1131CA0FF920F931F93CF93DF938C01EB01F42EDC
S1131CB0892B21F40091B7051091B8051983088385
S1131CC0C80149969B838A83F80186898E83878914
S1131CD0908D9D878C8783A18C8385A18F831886A3
S1131CE019861A861B862530C1F08091B70590911C
S1131CF0B8050817190711F41D8213C02D8323306A
S1131D0081F40E94D10BF80184899589892B11F003
S1131D1082E08D830E94E50C04C0C8010E94590B27
S1131D208D83FF2041F0F8018789908D0E94DA08A5
S1131D309F878E8702C01F861E86DF91CF911F91D9
S1131D400F91FF9008955058BB27AA270E94BB0EFD
S1131D500C949D0F0E948F0F38F00E94960F20F074
S1131D6039F49F3F19F426F40C948C0F0EF4E0958B
S1131D70E7FB0C945D0FE92F0E94AE0F58F3BA17DE
S1131D80620773078407950720F079F4A6F50C948D
S1131D90E80F0EF4E0950B2EBA2FA02D0B01B9011C
S1131DA090010C01CA01A0011124FF27591B99F0CD
S1131DB0593F50F4503E68F11A16F040A22F232FD9
S1131DC0342F4427585FF3CF469537952795A79529
S1131DD0F0405395C9F77EF41F16BA0B620B730BD0
S1131DE0840BBAF09150A1F0FF0FBB1F661F771F41
S1131DF0881FC2F70EC0BA0F621F731F841F48F4F6
S1131E00879577956795B795F7959E3F08F0B0CF7E
S1131E109395880F08F09927EE0F97958795089565
S1131E200E94170F6894B1110C94E90F08950E9451
S1131E30B60F88F09F5798F0B92F9927B751B0F093
S1131E40E1F0660F771F881F991F1AF0BA95C9F73A
S1131E5014C0B13091F00E94E80FB1E008950C94E1
S1131E60E80F672F782F8827B85F39F0B93FCCF394
S1131E70869577956795B395D9F73EF490958095B7
S1131E80709561957F4F8F4F9F4F08950E94D00F9B
S1131E9090F09F3748F4911116F00C94E90F60E02C
S1131EA070E080E89FEB089526F41B16611D711DF8
S1131EB0811D0C94630F0C947E0F97F99F6780E843
S1131EC070E060E00895882371F4772321F098503E
S1131ED0872B762F07C0662311F499270DC09051E4
S1131EE0862B70E060E02AF09A95660F771F881FB2
S1131EF0DAF7880F9695879597F908959F3F31F003
S1131F00915020F4879577956795B795880F911D23
S1131F109695879597F908959FEF80EC089500248E
S1131F200A941616170618060906089500240A943A
S1131F3012161306140605060895092E0394000CC0
S1131F4011F4882352F0BB0F40F4BF2B11F460FF4F
S1131F5004C06F5F7F4F8F4F9F4F089557FD905878
S1131F60440F551F59F05F3F71F04795880F97FB59
S1131F70991F61F09F3F79F0879508951216130613
S1131F801406551FF2CF4695F1DF08C01616170642
S1131F901806991FF1CF8695710561050894089577
S1131FA00E94B60FA0F0BEE7B91788F4BB279F388C
S1131FB060F41616B11D672F782F8827985FF7CF26
S1131FC0869577956795B11D93959639C8F30895CD
S1131FD0E894BB2766277727CB0197F908950E94D9
S1131FE002100C949D0F0E948F0F38F00E94960FE0
S1131FF020F0952311F00C945D0F0C948C0F112498
S11320000C94E90F0E94AE0F70F3959FC1F3950FE6
S113201050E0551F629FF001729FBB27F00DB11D68
S1132020639FAA27F00DB11DAA1F649F6627B00DF8
S1132030A11D661F829F2227B00DA11D621F739FE1
S1132040B00DA11D621F839FA00D611D221F749FEF
S11320503327A00D611D231F849F600D211D822F36
S1132060762F6A2F11249F5750409AF0F1F088235D
S11320704AF0EE0FFF1FBB1F661F771F881F91508A
S11320805040A9F79E3F510580F00C945D0F0C94CD
S1132090E90F5F3FE4F3983ED4F38695779567950F
S11320A0B795F795E7959F5FC1F7FE2B880F911DB4
S11320B09695879597F90895A1E21A2EAA1BBB1B42
S11320C0FD010DC0AA1FBB1FEE1FFF1FA217B30700
S11320D0E407F50720F0A21BB30BE40BF50B661F16
S11320E0771F881F991F1A9469F7609570958095DA
S11320F090959B01AC01BD01CF010895DC0101C0A5
S11321006D9341505040E0F70895AEE0B0E0EBE845
S1132110F0E10C9446130D891E8986E08C831A83A2
S113212009838FEF9FE79E838D83AE01475E5F4FE8
S11321306F89788DCE0101960E94A710EF81F885F2
S1132140E00FF11F10822E96E4E00C946213ABE0D2
S1132150B0E0EDEAF0E10C9438136C017B018A01E4
S1132160FC0117821682838181FFCCC1CE010196C6
S11321703C01F6019381F70193FD859193FF8191D1
S11321807F01882309F4BAC1853239F493FD85911E
S113219093FF81917F01853229F4B60190E00E947A
S11321A09E12E7CF912C212C312CFFE1F315D8F0AE
S11321B08B3279F038F4803279F08332A1F4232D14
S11321C020611DC08D3261F0803369F4232D2160BC
S11321D016C0832D8260382EE32DE4603E2E2AC083
S11321E0F32DF8601DC037FC2DC020ED280F2A30D8
S11321F040F08E32B9F436FC81C1232D2064322E96
S113220019C036FE06C08AE0989E200D1124922E35
S113221011C0EAE02E9E200D1124222EF32DF0622F
S11322203F2E08C08C3621F4832D8068382E02C0DE
S1132230883641F4F70193FD859193FF81917F01E5
S11322408111B3CF982F9F7D9554933028F40C5F60
S11322501F4F9FE399830DC0833631F0833771F0AC
S1132260833509F059C021C0F801808189830E5F4C
S11322701F4F88248394912C530113C02801F2E04A
S11322804F0E511CF801A080B18036FE03C0692DA9
S113229070E002C06FEF7FEFC5010E9493124C0102
S11322A08201F32DFF773F2E16C0280122E0420E53
S11322B0511CF801A080B18036FE03C0692D70E086
S11322C002C06FEF7FEFC5010E9488124C01F32D0D
S11322D0F0683F2E820133FC1BC0822D90E08816EB
S11322E09906B0F4B60180E290E00E949E122A940E
S11322F0F4CFF50137FC859137FE81915F01B6017A
S113230090E00E949E1221102A9421E0821A9108E2
S11323108114910471F7E8C0843611F0893641F5CF
S1132320F80137FE07C060817181828193810C5F5F
S11323301F4F08C060817181072E000C880B990B18
S11323400E5F1F4FF32DFF763F2E97FF09C0909528
S11323508095709561957F4F8F4F9F4FF0683F2E0A
S11323602AE030E0A3010E94DA12882E861845C0C4
S1132370853731F4232D2F7EB22E2AE030E025C09C
S1132380932D997FB92E8F36C1F018F4883579F0E2
S1132390B5C0803719F0883721F0B0C0E92FE0616B
S11323A0BE2EB4FE0DC0FB2DF460BF2E09C034FE5A
S11323B00AC0292F2660B22E06C028E030E005C0EE
S11323C020E130E002C020E132E0F801B7FE07C0AE
S11323D060817181828193810C5F1F4F06C060818F
S11323E0718180E090E00E5F1F4FA3010E94DA121A
S11323F0882E8618FB2DFF773F2E36FE0DC0232D29
S11324002E7FA22E891458F434FE0BC032FC09C06E
S1132410832D8E7EA82E05C0B82CA32C03C0B82C07
S113242001C0B92CA4FE0FC0FE01E80DF11D80818E
S1132430803321F49A2D997EA92E09C0A2FE06C0EC
S1132440B394B39404C08A2D867809F0B394A3FCA2
S113245011C0A0FE06C0B21488F4280C922C9B185C
S11324600EC0B21460F4B60180E290E00E949E12A5
S1132470B394F7CFB21418F42B1802C0982C212C63
S1132480A4FE10C0B60180E390E00E949E12A2FE5A
S113249017C0A1FC03C088E790E002C088E590E083
S11324A0B6010CC08A2D867859F0A1FE02C08BE2D9
S11324B001C080E2A7FC8DE2B60190E00E949E126A
S11324C0891438F4B60180E390E00E949E129A9435
S11324D0F7CF8A94F301E80DF11D8081B60190E0F5
S11324E00E949E128110F5CF222009F442CEB6013B
S11324F080E290E00E949E122A94F6CFF601868133
S1132500978102C08FEF9FEF2B96E2E10C94541356
S1132510FC010590615070400110D8F780959095AA
S11325208E0F9F1F0895FC016150704001900110AF
S1132530D8F7809590958E0F9F1F08950F931F9342
S1132540CF93DF93FB01238121FD03C08FEF9FEF26
S11325502CC022FF16C04681578124813581421741
S1132560530744F4A081B1819D012F5F3F4F318314
S113257020838C93268137812F5F3F4F37832683B7
S113258014C08B01EC01FB010084F185E02D099559
S1132590892BE1F6D80116968D919C911797019697
S11325A017969C938E931697CE01DF91CF911F912E
S11325B00F910895FA01AA27283051F1203181F1B1
S11325C0E8946F936E7F6E5F7F4F8F4F9F4FAF4F37
S11325D0B1E03ED0B4E03CD0670F781F891F9A1F4A
S11325E0A11D680F791F8A1F911DA11D6A0F711DFE
S11325F0811D911DA11D20D009F468943F912AE00A
S1132600269F11243019305D3193DEF6CF010895F1
S1132610462F4770405D4193B3E00FD0C9F7F6CF22
S1132620462F4F70405D4A3318F0495D31FD4052EA
S1132630419302D0A9F7EACFB4E0A6959795879580
S113264077956795BA95C9F700976105710508955F
S11326509B01AC010A2E069457954795379527950B
S1132660BA95C9F7620F731F841F951FA01D0895A3
S11326702F923F924F925F926F927F928F929F928E
S1132680AF92BF92CF92DF92EF92FF920F931F937C
S1132690CF93DF93CDB7DEB7CA1BDB0B0FB6F8942D
S11326A0DEBF0FBECDBF09942A88398848885F846D
S11326B06E847D848C849B84AA84B984C884DF80DE
S11326C0EE80FD800C811B81AA81B981CE0FD11DC2
S11326D00FB6F894DEBF0FBECDBFED010895F89498
S10526E0FFCF26
S11326E21F030425642E2564002E2E2E5461736B61
S11326F25F313A20002E2E2E5461736B20312069F3
S1132702732072756E6E696E672E2E2E002E2E2E1B
S11327125461736B20312069732072656164792E70
S11327222E2E002E2E2E5461736B203120697320BD
S1132732626C6F636B65642E2E2E002E2E2E5461F6
S1132742736B20312069732073757370656E6465D1
S1132752642E2E2E002E2E2E5461736B203120698E
S1132762732064656C657465642E2E2E002E2E2EE5
S11327725461736B5F323A20002E2E2E5461736BB8
S113278220322069732072756E6E696E672E2E2E4A
S1132792002E2E2E5461736B2032206973207265D1
S11327A26164792E2E2E002E2E2E5461736B2032EC
S11327B220697320626C6F636B65642E2E2E002E6B
S11327C22E2E5461736B20322069732073757370DB
S11327D2656E6465642E2E2E002E2E2E5461736B4C
S11327E220322069732064656C657465642E2E2E14
S11327F2002E2E2E5461736B5F333A2000202E2E4E
S11328022E002E2E2E5461736B2033206973207296
S1132812756E6E696E672E2E2E002E2E2E546173E7
S11328226B20332069732072656164792E2E2E0029
S11328322E2E2E5461736B203320697320626C6FC9
S1132842636B65642E2E2E002E2E2E5461736B2024
S1132852332069732073757370656E6465642E2EFC
S11328622E002E2E2E5461736B2033206973206444
S1132872656C657465642E2E2E0041686D65640076
S1132882546172656B006C63640049444C450000FA
S9030000FC
