:100000000C942A000C9434000C9434000C943400AA
:100010000C9434000C9434000C9434000C94340090
:100020000C9434000C9434000C9434000C94340080
:100030000C9434000C9434000C9434000C94340070
:100040000C9434000C9434000C9434000C94340060
:100050000C94340011241FBECFE5D8E0DEBFCDBF25
:100060000E94DD010C94F3010C940000811103C087
:100070003F9A3E9A04C0813011F43F983E984A302E
:1000800011F43D9803C0483009F43D9A611106C04F
:10009000389839983A983B983C9837C0613031F499
:1000A000389A39983A983B983C982FC0623031F48E
:1000B0003898399A3A983B983C9827C0633031F485
:1000C000389A399A3A983B983C981FC0643031F47A
:1000D000389839983A9A3B983C9817C0653031F473
:1000E000389A39983A9A3B983C980FC0663031F468
:1000F0003898399A3A9A3B983C9807C0673029F467
:10010000389A399A3A9A3B983C98379A309A319A69
:10011000329A0895369A3699FECF8A3029F484B1FE
:1001200025B190E0922B0895883019F485B190E0C4
:10013000089580E090E00895813089F541110DC067
:100140009AB321E030E0062E02C0220F331F0A943A
:10015000E2F7209529232ABB81C0413061F49AB38C
:1001600021E030E0062E02C0220F331F0A94E2F78E
:10017000292B2ABB73C0423009F070C09AB321E02A
:1001800030E0062E02C0220F331F0A94E2F7322F0E
:10019000309593239ABB9BB3292B2BBB5FC0823036
:1001A00071F541110CC027B381E090E002C0880FC7
:1001B000991F6A95E2F78095822387BB08954130A5
:1001C00059F427B381E090E002C0880F991F6A9527
:1001D000E2F7822B87BB0895423009F06DC027B348
:1001E00081E090E002C0880F991F6A95E2F7982F8E
:1001F0009095922397BB98B3892B88BB0895833041
:1002000069F541110CC024B381E090E002C0880F71
:10021000991F6A95E2F78095822384BB0895413047
:1002200059F424B381E090E002C0880F991F6A95C9
:10023000E2F7822B84BB08954230F1F524B381E0CC
:1002400090E002C0880F991F6A95E2F7982F909569
:10025000922394BB95B3892B85BB0895843061F5B7
:1002600041110CC021B381E090E002C0880F991FBA
:100270006A95E2F78095822381BB0895413059F455
:1002800021B381E090E002C0880F991F6A95E2F7E0
:10029000822B81BB0895423079F421B381E090E054
:1002A00002C0880F991F6A95E2F7982F90959223C4
:1002B00091BB92B3892B82BB0895813079F461118F
:1002C00002C01ABA2DC0613019F49FEF9ABB28C042
:1002D000623031F51ABA9FEF9BBB22C0823079F4AD
:1002E000611102C017BA0895613019F48FEF87BB0E
:1002F0000895623029F517BA8FEF88BB08958330CF
:1003000079F4611102C014BA0895613019F48FEFC5
:1003100084BB08956230A1F414BA8FEF85BB0895B1
:10032000843071F4611102C011BA0895613019F47A
:100330008FEF81BB0895623019F411BA8FEF82BB41
:100340000895813069F4613019F49FEF9BBB26C09A
:10035000611102C01BBA22C0623000F16BBB1EC02B
:10036000823069F4613019F48FEF88BB0895611110
:1003700002C018BA08956230F8F068BB089583305F
:1003800069F4613019F48FEF85BB0895611102C0E3
:1003900015BA0895623080F065BB0895843061F429
:1003A000613019F48FEF82BB0895611102C012BA57
:1003B0000895623008F062BB089540E061E081E09A
:1003C0000E949C0061E083E00E945D014AE061E0E0
:1003D00081E00E9436008AE00E948A00682F83E054
:0A03E0000E94A101F8CFF894FFCFAE
:00000001FF
