:100000000C942A000C946F030C9496030C94BD037B
:100010000C9447000C9447000C9447000C949507EF
:100020000C9447000C9447000C9447000C94470034
:100030000C9447000C9447000C9447000C94470024
:100040000C9447000C9447000C9447000C94470014
:100050000C94470011241FBECFE5D8E0DEBFCDBF12
:1000600010E0A0E6B0E0E4EEFBE102C005900D92E6
:10007000A437B107D9F724E0A4E7B0E001C01D928E
:10008000A931B207E1F70E94B20D0C94F00D0C9467
:100090000000883008F05EC06932D1F44AB39DECAC
:1000A000899F912D1124969596959695990F292FB4
:1000B000220F220F920F891B21E030E0B90102C00C
:1000C000660F771F8A95E2F7CB01842B8ABB0895D0
:1000D0006832D9F44AB39DEC899F912D11249695ED
:1000E00096959695990F292F220F220F920F891B13
:1000F00021E030E0B90102C0660F771F8A95E2F770
:10010000CB01809584238ABB08956A3209F049C1E6
:100110004AB39DEC899F912D1124969596959695BD
:10012000990F292F220F220F920F891B21E030E017
:10013000B90102C0660F771F8A95E2F7CB01962FAF
:10014000909594239ABB90B79B7F90BF9BB3892BCC
:100150008BBB089596EF980F983008F05EC0693217
:10016000D1F447B39DEC899F912D112496959695D6
:100170009695990F292F220F220F920F891B21E0AC
:1001800030E0B90102C0660F771F8A95E2F7CB0114
:10019000842B87BB08956832D9F447B39DEC899FBF
:1001A000912D1124969596959695990F292F220FAA
:1001B000220F920F891B21E030E0B90102C0660FC7
:1001C000771F8A95E2F7CB018095842387BB08953A
:1001D0006A3209F0E6C047B39DEC899F912D112446
:1001E000969596959695990F292F220F220F920F8B
:1001F000891B21E030E0B90102C0660F771F8A95A4
:10020000E2F7CB01962F9095942397BB90B79B7FF5
:1002100090BF98B3892B88BB08959CEE980F9830B7
:1002200008F05EC06932D1F444B39DEC899F912DF2
:100230001124969596959695990F292F220F220FA6
:10024000920F891B21E030E0B90102C0660F771FD1
:100250008A95E2F7CB01842B84BB08956832D9F4E8
:1002600044B39DEC899F912D112496959695969572
:10027000990F292F220F220F920F891B21E030E0C6
:10028000B90102C0660F771F8A95E2F7CB0180950E
:10029000842384BB08956A3209F083C044B39DEC83
:1002A000899F912D1124969596959695990F292FB2
:1002B000220F220F920F891B21E030E0B90102C00A
:1002C000660F771F8A95E2F7CB01962F90959423BE
:1002D00094BB90B79B7F90BF95B3892B85BB089546
:1002E00092EE980F983008F05CC06932D1F441B3B7
:1002F0009DEC899F912D1124969596959695990F31
:10030000292F220F220F920F891B21E030E0B90123
:1003100002C0660F771F8A95E2F7CB01842B81BB61
:1003200008956832D9F441B39DEC899F912D112431
:10033000969596959695990F292F220F220F920F39
:10034000891B21E030E0B90102C0660F771F8A9552
:10035000E2F7CB018095842381BB08956A3209F5C9
:1003600041B39DEC899F912D112496959695969574
:10037000990F292F220F220F920F891B21E030E0C5
:10038000B90102C0660F771F8A95E2F7CB01962F5D
:100390009095942391BB90B79B7F90BF92B3892B8C
:1003A00082BB0895883008F046C09DEC699F912D6E
:1003B0001124969596959695990F292F220F220F25
:1003C000920F691B6130D1F44BB39DEC899F912D45
:1003D0001124969596959695990F292F220F220F05
:1003E000920F891B21E030E0B90102C0660F771F30
:1003F0008A95E2F7CB01842B8BBB08956111FBC07A
:100400004BB39DEC899F912D1124969596959695C9
:10041000990F292F220F220F920F891B21E030E024
:10042000B90102C0660F771F8A95E2F7CB0180956C
:1004300084238BBB089596EF980F983008F046C040
:100440009DEC699F912D1124969596959695990FFF
:10045000292F220F220F920F691B6130D1F448B36C
:100460009DEC899F912D1124969596959695990FBF
:10047000292F220F220F920F891B21E030E0B901B2
:1004800002C0660F771F8A95E2F7CB01842B88BBE9
:1004900008956111B0C048B39DEC899F912D11243E
:1004A000969596959695990F292F220F220F920FC8
:1004B000891B21E030E0B90102C0660F771F8A95E1
:1004C000E2F7CB018095842388BB08959CEE980FBA
:1004D000983008F046C09DEC699F912D11249695A7
:1004E00096959695990F292F220F220F920F691B2F
:1004F0006130D1F445B39DEC899F912D11249695DF
:1005000096959695990F292F220F220F920F891BEE
:1005100021E030E0B90102C0660F771F8A95E2F74B
:10052000CB01842B85BB0895611165C045B39DEC5B
:10053000899F912D1124969596959695990F292F1F
:10054000220F220F920F891B21E030E0B90102C077
:10055000660F771F8A95E2F7CB018095842385BBD0
:10056000089592EE980F983008F045C09DEC699F71
:10057000912D1124969596959695990F292F220FD6
:10058000220F920F691B6130D1F442B39DEC899F19
:10059000912D1124969596959695990F292F220FB6
:1005A000220F920F891B21E030E0B90102C0660FD3
:1005B000771F8A95E2F7CB01842B82BB08956111E6
:1005C0001AC042B39DEC899F912D11249695969562
:1005D0009695990F292F220F220F920F891B21E048
:1005E00030E0B90102C0660F771F8A95E2F7CB01B0
:1005F0008095842382BB08958830C8F429B39DEC8C
:10060000899F912D1124969596959695990F392F3E
:10061000330F330F930F891B30E002C035952795B8
:100620008A95E2F781E020FD59C080E0089596EFB9
:10063000980F9830C8F426B39DEC899F912D112412
:10064000969596959695990F392F330F330F930FF3
:10065000891B30E002C0359527958A95E2F781E045
:1006600020FD3CC080E008959CEE980F9830C8F4BF
:1006700023B39DEC899F912D11249695969596957F
:10068000990F392F330F330F930F891B30E002C0BE
:10069000359527958A95E2F781E020FD1FC080E01F
:1006A000089592EE980F9830C8F420B39DEC899F7E
:1006B000912D1124969596959695990F392F330F74
:1006C000330F930F891B30E002C0359527958A952B
:1006D000E2F781E020FD02C080E0089508951F92B6
:1006E0000F920FB60F9211242F933F934F935F9366
:1006F0006F937F938F939F93AF93BF93EF93FF93EA
:10070000E0917800F09179000995FF91EF91BF9108
:10071000AF919F918F917F916F915F914F913F9199
:100720002F910F900FBE0F901F9018951F920F9250
:100730000FB60F9211242F933F934F935F936F93B4
:100740007F938F939F93AF93BF93EF93FF93E0912A
:100750007600F09177000995FF91EF91BF91AF91ED
:100760009F918F917F916F915F914F913F912F91C9
:100770000F900FBE0F901F9018951F920F920FB6FB
:100780000F9211242F933F934F935F936F937F9317
:100790008F939F93AF93BF93EF93FF93E091740078
:1007A000F09175000995FF91EF91BF91AF919F91E5
:1007B0008F917F916F915F914F913F912F910F900A
:1007C0000FBE0F901F901895411106C06823792322
:1007D000672B49F480E008958623972368177907EB
:1007E00021F080E0089581E0089581E00895CF939D
:1007F000DF938CE090E00E940A05EC01009731F055
:10080000FC0111921192CF010E94D205CE01DF911D
:10081000CF910895AF92BF92CF92DF92EF92FF9265
:100820000F931F93CF93DF937C015B01C42ED22ED5
:100830000E94360AF701C081D1814D2DB501CE014C
:100840000E94E403882369F0CC2009F1C50180955A
:1008500090958C239D23F7019183808300E010E025
:1008600018C001151105A9F0C11003C060E070E0C7
:1008700002C060E071E0D11074606A297B29A80190
:10088000C70102960E94690CC0E0D0E002C000E0FF
:1008900010E00E94400B012B19F1811102C00E944F
:1008A000E0060E94550DEC0191FD19C00FB6F894B9
:1008B0000F92F701C081D1814D2DB501CE010E946B
:1008C000E403882351F0CC2041F0B5016095709588
:1008D0006C237D23F701718360830F900FBEDD27AA
:1008E000CE01DF91CF911F910F91FF90EF90DF909C
:1008F000CF90BF90AF900895FC010FB6F8940F927F
:1009000080819181609570956823792371836083DC
:100910000F900FBE0895CF92DF92EF92FF920F9348
:100920001F93CF93DF937C018B01EC0125960E94EE
:10093000360AD7011796ED91FC9118978D919C91ED
:100940001197082B192B0D931C9300E010E02DC07C
:10095000C280D380808191819C01332792FD09C0A0
:10096000D7014D915C9142235323452B61F440E024
:100970000DC0D7014D915C914223532324173507B5
:1009800021F040E003C041E001C041E0442359F0C0
:1009900090FF02C0022B132BD7016D917C917260E6
:1009A000CF010E94AF0CEC2DFD2DEC17FD0781F659
:1009B00000951095F70180819181082319231183F7
:1009C00000830E94400BD7018D919C91DF91CF91C4
:1009D0001F910F91FF90EF90DF90CF900895AFE7B8
:1009E000B0E0E3E8F0E01196FC93EE9313961C92CE
:1009F0001E921297ABE7B0E08FE193E013969C93C1
:100A00008E93129711961C921E9293838283B183C8
:100A1000A0830895EF92FF920F931F93CF93DF93DC
:100A2000EC010E94360A80917A00811105C00E9473
:100A3000EF0481E080937A00209771F0CE01049654
:100A4000C817D90738F425968C179D0728F0C0E001
:100A5000D0E002C0C0E0D0E0209709F45EC0209151
:100A60006000309161002C173D0708F459C0E091F7
:100A70007F00F0918000AFE7B0E002C0DF01FC0131
:100A8000828193818C179D0720F48081918100974A
:100A9000A9F780E0EB37F80709F445C00D911C91E8
:100AA00011970C5F1F4F808191818D939C93828160
:100AB00093818C1B9D0B8930910530F1BF016C0F28
:100AC0007D1FDB0113969C938E931297D383C28371
:100AD00012964D915C9113970F2EFFE7EF2EF0E0E9
:100AE000FF2EF02D01C07D01E701A881B98112968A
:100AF0008D919C91139784179507A8F3EB01B98307
:100B0000A883D7016D937C9382819381281B390B35
:100B1000309361002093600008C000E010E005C041
:100B200000E010E002C000E010E00E94400BC801AD
:100B3000DF91CF911F910F91FF90EF9008950F9348
:100B40001F93CF93DF93009741F1EC018C01045088
:100B500011090E94360AF80142815381AFE7B0E0E3
:100B600001C0DF01ED91FC9111972281338124179F
:100B70003507B8F32497F983E8830D931C938A8192
:100B80009B812091600030916100820F931F9093B0
:100B90006100809360000E94400BDF91CF911F9114
:100BA0000F910895FC010396928381832FEF3FEF0D
:100BB0003483238396838583908787831082089567
:100BC000FC01118610860895CF93DF93EB014881D5
:100BD00059814F3F2FEF520721F4FC01A781B085C7
:100BE0000DC0DC01139601C0DF011296ED91FC915E
:100BF00013972081318142175307B0F71296ED9178
:100C0000FC911397FB83EA83D583C483BD83AC83B4
:100C10001396DC93CE93129799878887FC012081E5
:100C20002F5F2083DF91CF910895CF93DF93FC0155
:100C3000A085B185C281D381848195819D838C8378
:100C4000C481D581828193819B838A8311968D9102
:100C50009C911297E817F90731F4848195811296D7
:100C60009C938E931197118610868C9181508C9352
:100C70008C91DF91CF9108951BBC8CE78ABD8BE0EE
:100C80008EBD89B7806189BF089531E1FC01308351
:100C9000319722E220833197A3E3A08331976083C9
:100CA0003197708331971082319760E86083319774
:100CB0001082319762E06083319763E060833197FF
:100CC00064E06083319765E06083319766E060831C
:100CD000319767E06083319768E06083319769E01E
:100CE0006083319760E1608331973083319732E1DF
:100CF0003083319733E13083319734E1308331975A
:100D000035E13083319736E13083319737E13083F5
:100D1000319738E13083319739E13083319730E2D0
:100D20003083319731E2308331972083319723E24A
:100D300020833197408331975083319726E2208377
:100D4000319727E22083319728E22083319729E2E7
:100D50002083319720E32083319721E320838697F6
:100D600008950E943C06A0911104B0911204CD9107
:100D7000CDBFDD91DEBFFF91EF91DF91CF91BF91AC
:100D8000AF919F918F917F916F915F914F913F9123
:100D90002F911F910F91FF90EF90DF90CF90BF9018
:100DA000AF909F908F907F906F905F904F903F900B
:100DB0002F901F900F900FBE0F90089581E008951F
:100DC0000F920FB6F8940F921F9211242F923F9218
:100DD0004F925F926F927F928F929F92AF92BF924B
:100DE000CF92DF92EF92FF920F931F932F933F9337
:100DF0004F935F936F937F938F939F93AF93BF9323
:100E0000CF93DF93EF93FF93A0911104B09112045D
:100E10000DB60D920EB60D920E94150CA091110404
:100E2000B0911204CD91CDBFDD91DEBFFF91EF9166
:100E3000DF91CF91BF91AF919F918F917F916F91F2
:100E40005F914F913F912F911F910F91FF90EF90E4
:100E5000DF90CF90BF90AF909F908F907F906F90DA
:100E60005F904F903F902F901F900F900FBE0F906C
:100E700008950F920FB6F8940F921F9211242F929B
:100E80003F924F925F926F927F928F929F92AF921A
:100E9000BF92CF92DF92EF92FF920F931F932F9307
:100EA0003F934F935F936F937F938F939F93AF93F2
:100EB000BF93CF93DF93EF93FF93A0911104B09171
:100EC00012040DB60D920EB60D920E943C0A8111CD
:100ED0000E94150CA0911104B0911204CD91CDBFC8
:100EE000DD91DEBFFF91EF91DF91CF91BF91AF9187
:100EF0009F918F917F916F915F914F913F912F9132
:100F00001F910F91FF90EF90DF90CF90BF90AF9027
:100F10009F908F907F906F905F904F903F902F9019
:100F20001F900F900FBE0F9008950E9439071895DB
:100F3000E091D003F091D1038081811107C08FEF40
:100F40009FEF9093A7038093A6030895E091D003A9
:100F5000F091D1030580F681E02D808191819093FD
:100F6000A7038093A6030895CF93DF93EC018F89A5
:100F7000988D0E949F05CE010E949F05DF91CF9121
:100F800008952F923F924F925F926F927F928F922D
:100F90009F92AF92BF92CF92DF92EF920F931F93E7
:100FA000CF93DF93CDB7DEB71C014B0129013A0186
:100FB000A90165EA70E0D50157968D919C915897EB
:100FC0000E94E90DF5018789908DF1E04F1A5108D3
:100FD000480E591E8114910489F417C0822F90E0A5
:100FE000F401E80FF91F3081D501A80FB91F5996F8
:100FF0003C938081882329F02F5F01C020E02A30B4
:1010000068F3D50192961C9202C0F501118EF4E0AE
:10101000FE1518F46894EE24E2F8D5015696EC9289
:1010200056979596EC92959796961C92C5010296C6
:101030000E94E005C5010C960E94E005F501B1860D
:10104000A08685E090E08E19910995878487B38A00
:10105000A28A84E0B796DF011D928A95E9F7F5012F
:1010600013A6A801B101C2010E944506D5018D93C6
:101070009C93C114D10419F0F601B182A082DF91D2
:10108000CF911F910F91EF90DF90CF90BF90AF90D5
:101090009F908F907F906F905F904F903F902F9098
:1010A0000895CF93C0E010C08C2F90E09C01220FD8
:1010B000331F220F331F220F331F820F931F8C51B8
:1010C0009C4F0E94D205CF5FC53070F38BED93E04B
:1010D0000E94D20582ED93E00E94D20585EC93E058
:1010E0000E94D2058CEB93E00E94D20582EB93E044
:1010F0000E94D2058BED93E09093D1038093D003AF
:1011000082ED93E09093CF038093CE03CF91089527
:10111000CF93DF93EC010FB6F8940F928091B10357
:101120008F5F8093B1038091110490911204892BF9
:1011300059F4D0931204C09311048091B10381300B
:1011400099F40E94510810C08091AD0381110CC028
:10115000E0911104F091120496898E89891720F08C
:10116000D0931204C09311048091A8038F5F8093E1
:10117000A8038BA38E899091AE03981710F48093E7
:10118000AE0390E0FC01EE0FFF1FEE0FFF1FEE0F0E
:10119000FF1F8E0F9F1FFC01EC51FC4F0180F2815D
:1011A000E02DFD83EC83848195819F838E83A481D0
:1011B000B581CE01029613969C938E9312979583D8
:1011C0008483EE89F0E0CF01880F991F880F991F63
:1011D000880F991FE80FF91FEC51FC4FFB87EA8736
:1011E00080818F5F80830F900FBE8091AD03882335
:1011F00051F0E0911104F091120496898E899817AC
:1012000010F40E94E006DF91CF910895CF93DF9311
:101210001CC00FB6F8940F92E091C103F091C20385
:10122000C681D781CE0102960E9415068091B10336
:1012300081508093B1038091BB0381508093BB03A5
:101240000F900FBECE010E94B4078091BB038111A5
:10125000E0CFDF91CF9108950E9406098091E403C9
:101260008230D0F30E94E006F7CFFF920F931F93D6
:10127000CF93DF93EC01F62E0091AF031091B003F2
:10128000809111049091120402960E941506CF3F9E
:101290008FEFD807B1F5FF20A1F1E2EBF3E0A181D8
:1012A000B281C0911104D0911204BD83AC83C0916E
:1012B0001104D091120414968D919C9115979F83DF
:1012C0008E831496CD91DC911597809111049091A5
:1012D000120402969B838A838091110490911204D8
:1012E000029615969C938E931497A0911104B09139
:1012F00012041B96FC93EE931A9780818F5F808374
:101300002FC0C00FD11FE0911104F0911204D383BC
:10131000C283C017D10768F4609111047091120460
:101320008091CE039091CF036E5F7F4F0E94E405C2
:1013300017C060911104709112048091D0039091B4
:10134000D1036E5F7F4F0E94E4058091A6039091C8
:10135000A703C817D90720F4D093A703C093A60307
:10136000DF91CF911F910F91FF9008952F923F929F
:101370004F925F926F927F928F929F92AF92BF92A5
:10138000CF92DF92EF92FF920F931F93CF93DF9351
:101390003C011B015A012901CA010E940A056C0186
:1013A000892B71F08CE290E00E940A05EC01892BF8
:1013B00019F0D88ECF8A06C0C6010E949F0502C0D0
:1013C000C0E0D0E0209791F0950140E050E0812C02
:1013D000912C5E016701E02E8201B101C3010E94E0
:1013E000C107CE010E94880881E001C08FEFDF9124
:1013F000CF911F910F91FF90EF90DF90CF90BF9012
:10140000AF909F908F907F906F905F904F903F90A4
:101410002F900895EF92FF920F930F2EF4EAEF2E84
:10142000F3E0FF2EF02D00E020E030E048EC50E04B
:1014300063E670E08CE299E00E94B609813081F4A5
:10144000F8948FEF9FEF9093A7038093A60381E01A
:101450008093AD031092B0031092AF030E94B106C7
:10146000809162000F91FF90EF9008958091A30307
:101470008F5F8093A30308950F931F93CF93DF9300
:101480008091A3038111EBC0C091AF03D091B00351
:101490008E010F5F1F4F1093B0030093AF03011530
:1014A0001105B9F48091D0039091D1032091CE031E
:1014B0003091CF033093D1032093D0039093CF0387
:1014C0008093CE038091A9038F5F8093A9030E942C
:1014D00098078091A6039091A7030817190720F495
:1014E00080E0B8C081E001C080E0E091D003F091DD
:1014F000D1039081911107C02FEF3FEF3093A703E5
:101500002093A603A7C0E091D003F091D1030580FA
:10151000F681E02D0680F781E02D228133810217CC
:10152000130728F43093A7032093A60393C0A28542
:10153000B3852481358146815781E9015D834C83E0
:101540002681378144815581E9015B834A83119665
:101550002D913C911297AF014E5F5F4F24173507D5
:1015600031F42681378112963C932E93119713867E
:1015700012869C9191509C93A489B589109719F17A
:101580002685378560897189E9017D836C8320898F
:10159000318966857785E9017B836A8311966D9130
:1015A0007C9112979F01245F3F4F6217730731F4BC
:1015B0002089318912963C932E931197158A148AAB
:1015C0009C9191509C9326899091AE03921710F4B0
:1015D0002093AE0330E0D901AA0FBB1FAA0FBB1F97
:1015E000AA0FBB1F2A0F3B1FD901AC51BC4F11964C
:1015F0000D90BC91A02DB583A48314962D913C91A0
:1016000015973783268314962D913C911597E90100
:101610005B834A8315965C934E931497A689B0E03A
:101620009D01220F331F220F331F220F331FA20FE2
:10163000B31FAC51BC4FB387A2879C919F5F9C9313
:101640002689E0911104F09112049689291708F077
:1016500049CF4BCF9091AA0391110CC00CC080913F
:10166000AB039091AC0301969093AC038093AB03D2
:1016700080E001C081E0DF91CF911F910F9108952B
:10168000CF93DF930FB6F8940F928091A30381500C
:101690008093A3038091A3038111BFC08091B10304
:1016A000811196C0BDC0E091CA03F091CB030680C2
:1016B000F781E02DA489B589C685D7858089918970
:1016C0009D838C83C089D189868597859B838A83F6
:1016D00011962D913C911297CF010C96281739073E
:1016E00031F48089918912969C938E931197158A73
:1016F000148A8C9181508C93A285B385C481D58145
:10170000868197819D838C83C681D78184819581D1
:101710009B838A8311968D919C9112979F012E5FD6
:101720003F4F8217930731F48681978112969C93DD
:101730008E931197138612868C9181508C93868993
:101740009091AE03981710F48093AE0390E0DC0103
:10175000AA0FBB1FAA0FBB1FAA0FBB1F8A0F9B1F7D
:10176000DC01AC51BC4F11960D90BC91A02DB583FE
:10177000A48314968D919C911597978386831496D4
:10178000CD91DC9115973B832A8315963C932E933C
:101790001497A689B0E0CD01880F991F880F991F73
:1017A000880F991FA80FB91FAC51BC4FB387A287F0
:1017B0008C918F5F8C939689A0911104B091120443
:1017C00056968C91981730F081E08093AA0302C05E
:1017D000E0E0F0E08091C503811165CFEF2B11F0BF
:1017E0000E949807C091AB03D091AC03209769F099
:1017F0000E943C0A882319F081E08093AA03219774
:10180000B9F71092AC031092AB038091AA0388231E
:1018100031F00E94E00681E003C080E001C080E07A
:101820000F900FBEDF91CF9108958091A30388237D
:1018300021F081E08093AA0308951092AA032091D9
:10184000AE0301C02150822F90E0FC01EE0FFF1F7C
:10185000EE0FFF1FEE0FFF1FE80FF91FEC51FC4FBB
:101860003081332379F3AC01440F551F440F551FCA
:10187000440F551F480F591FDF010180F281E02DF1
:101880000280F381E02D1296FC93EE93119749515B
:101890005C4FE417F50729F442815381FD0152831F
:1018A0004183FC01EE0FFF1FEE0FFF1FEE0FFF1F26
:1018B0008E0F9F1FFC01EC51FC4F0180F281E02D47
:1018C0008681978190931204809311042093AE0334
:1018D0000895CF93DF93FC01A0911104B0911204FD
:1018E00070681D967C936E931C97A181B281C09104
:1018F0001104D0911204BF87AE87C0911104D0911A
:10190000120414968D919C911597998B888B14963F
:10191000CD91DC9115972091110430911204245F30
:101920003F4F3B832A832091110430911204245F9E
:101930003F4F15963C932E931497A0911104B091AC
:1019400012045596FC93EE93549790819F5F908379
:1019500061E0CA010E943509DF91CF910895CF93CC
:10196000DF93DC01706811967C936E931696ED916F
:10197000FC91179718964D915C91199712968D913D
:101980009C91139714962D913C911597EC013D83F2
:101990002C8314968D919C91159712962D913C91C4
:1019A0001397EC013B832A83EA0189819A81A81766
:1019B000B90731F414968D919C9115979A83898378
:1019C00019961C921E921897DA018C9181508C9373
:1019D000A285B385C481D581868197819D838C83BF
:1019E000C681D781848195819B838A8311968D914D
:1019F0009C9112979F012E5F3F4F8217930731F4FE
:101A00008681978112969C938E93119713861286E6
:101A10008C9181508C9386899091AE03981710F425
:101A20008093AE0390E0DC01AA0FBB1FAA0FBB1F7F
:101A3000AA0FBB1F8A0F9B1FDC01AC51BC4F119634
:101A40000D90BC91A02DB583A48314968D919C918B
:101A50001597978386831496CD91DC9115973B83D8
:101A60002A8315963C932E931497A689B0E0CD0156
:101A7000880F991F880F991F880F991FA80FB91FEA
:101A8000AC51BC4FB387A2878C918F5F8C939689A2
:101A9000E0911104F09112048689891718F481E00D
:101AA0008093AA03DF91CF910895E0911104F09102
:101AB000120484859585E0911104F0911204A0919F
:101AC0001104B091120456964C9125E030E0241B8D
:101AD0003109358724870895C0E080E00E94FC0228
:101AE000811114C0C11112C061E070E0809117042F
:101AF000909118040E948B0462E070E080911704BA
:101B0000909118040E948B04C1E0E7CF80E00E940E
:101B1000FC02882311F3C13001F761E070E080918D
:101B20001704909118040E947C04C0E0D6CFC0E056
:101B30000FEF1FEF21E041E061E070E080911704BA
:101B4000909118040E940A04C11106C063E381E069
:101B50000E94D201C1E0ECCF62E381E00E94D20199
:101B6000C0E0E6CFEF92FF920F936AE280E00E941E
:101B7000490069E281E00E944900E0901504F0907C
:101B8000160401E020E030E042E350E068E670E057
:101B90008CE69DE00E94B609E0901304F0901404D6
:101BA00002E020E030E042E350E06EE670E087E9DA
:101BB0009DE00E94B6090E94F70390931804809359
:101BC00017040E940A0A80E090E00F91FF90EF90C6
:101BD0000895DC0101C06D9341505040E0F7089535
:041BE000F894FFCFA7
:101BE4001F030449444C450041686D6564004F6D12
:041BF400617200001A
:00000001FF
