:100000000C942A000C9445020C946C020C949302FC
:100010000C9447000C9447000C9447000C946F0715
:100020000C9447000C9447000C9447000C94470034
:100030000C9447000C94CD030C94F4030C944700EB
:100040000C9447000C9447000C9447000C94470014
:100050000C94470011241FBECFE5D8E0DEBFCDBF12
:1000600010E0A0E6B0E0E0E7FDE202C005900D92EE
:10007000A639B107D9F724E0A6E9B0E001C01D9286
:10008000A534B207E1F70E9491040C94B6160C94C3
:100090000000883008F05EC06932D1F44AB39DECAC
:1000A000899F912D1124969596959695990F292FB4
:1000B000220F220F920F891B21E030E0B90102C00C
:1000C000660F771F8A95E2F7CB01842B8ABB0895D0
:1000D0006832D9F44AB39DEC899F912D11249695ED
:1000E00096959695990F292F220F220F920F891B13
:1000F00021E030E0B90102C0660F771F8A95E2F770
:10010000CB01809584238ABB08956A3209F049C1E6
:100110004AB39DEC899F912D1124969596959695BD
:10012000990F292F220F220F920F891B21E030E017
:10013000B90102C0660F771F8A95E2F7CB01962FAF
:10014000909594239ABB90B79B7F90BF9BB3892BCC
:100150008BBB089596EF980F983008F05EC0693217
:10016000D1F447B39DEC899F912D112496959695D6
:100170009695990F292F220F220F920F891B21E0AC
:1001800030E0B90102C0660F771F8A95E2F7CB0114
:10019000842B87BB08956832D9F447B39DEC899FBF
:1001A000912D1124969596959695990F292F220FAA
:1001B000220F920F891B21E030E0B90102C0660FC7
:1001C000771F8A95E2F7CB018095842387BB08953A
:1001D0006A3209F0E6C047B39DEC899F912D112446
:1001E000969596959695990F292F220F220F920F8B
:1001F000891B21E030E0B90102C0660F771F8A95A4
:10020000E2F7CB01962F9095942397BB90B79B7FF5
:1002100090BF98B3892B88BB08959CEE980F9830B7
:1002200008F05EC06932D1F444B39DEC899F912DF2
:100230001124969596959695990F292F220F220FA6
:10024000920F891B21E030E0B90102C0660F771FD1
:100250008A95E2F7CB01842B84BB08956832D9F4E8
:1002600044B39DEC899F912D112496959695969572
:10027000990F292F220F220F920F891B21E030E0C6
:10028000B90102C0660F771F8A95E2F7CB0180950E
:10029000842384BB08956A3209F083C044B39DEC83
:1002A000899F912D1124969596959695990F292FB2
:1002B000220F220F920F891B21E030E0B90102C00A
:1002C000660F771F8A95E2F7CB01962F90959423BE
:1002D00094BB90B79B7F90BF95B3892B85BB089546
:1002E00092EE980F983008F05CC06932D1F441B3B7
:1002F0009DEC899F912D1124969596959695990F31
:10030000292F220F220F920F891B21E030E0B90123
:1003100002C0660F771F8A95E2F7CB01842B81BB61
:1003200008956832D9F441B39DEC899F912D112431
:10033000969596959695990F292F220F220F920F39
:10034000891B21E030E0B90102C0660F771F8A9552
:10035000E2F7CB018095842381BB08956A3209F5C9
:1003600041B39DEC899F912D112496959695969574
:10037000990F292F220F220F920F891B21E030E0C5
:10038000B90102C0660F771F8A95E2F7CB01962F5D
:100390009095942391BB90B79B7F90BF92B3892B8C
:1003A00082BB08958830C8F429B39DEC899F912DB4
:1003B0001124969596959695990F392F330F330FF3
:1003C000930F891B30E002C0359527958A95E2F797
:1003D00081E020FD59C080E0089596EF980F983095
:1003E000C8F426B39DEC899F912D1124969596957E
:1003F0009695990F392F330F330F930F891B30E0E8
:1004000002C0359527958A95E2F781E020FD3CC032
:1004100080E008959CEE980F9830C8F423B39DECCB
:10042000899F912D1124969596959695990F392F20
:10043000330F330F930F891B30E002C0359527959A
:100440008A95E2F781E020FD1FC080E0089592EEDA
:10045000980F9830C8F420B39DEC899F912D1124FA
:10046000969596959695990F392F330F330F930FD5
:10047000891B30E002C0359527958A95E2F781E027
:1004800020FD02C080E0089508951F920F920FB6DC
:100490000F9211242F933F934F935F936F937F930A
:1004A0008F939F93AF93BF93EF93FF93E0919A0045
:1004B000F0919B000995FF91EF91BF91AF919F91B2
:1004C0008F917F916F915F914F913F912F910F90FD
:1004D0000FBE0F901F9018951F920F920FB60F929C
:1004E00011242F933F934F935F936F937F938F9339
:1004F0009F93AF93BF93EF93FF93E0919800F09198
:1005000099000995FF91EF91BF91AF919F918F91C4
:100510007F916F915F914F913F912F910F900FBEFF
:100520000F901F9018951F920F920FB60F921124E3
:100530002F933F934F935F936F937F938F939F93EB
:10054000AF93BF93EF93FF93E0919600F0919700E4
:100550000995FF91EF91BF91AF919F918F917F91FD
:100560006F915F914F913F912F910F900FBE0F9020
:100570001F9018954F925F926F927F928F929F92E9
:10058000AF92BF92CF92DF92EF92FF92CF93DF9321
:10059000CDB7DEB760970FB6F894DEBF0FBECDBF04
:1005A000DC01693239F511968C9111978F938C91FA
:1005B0008F9386E690E09F938F93CE0101969F9351
:1005C0008F930E94CC130F900F900F900F900F906D
:1005D0000F9080E090E004C05D9BFECF2CB90196A7
:1005E000E1E0F0E0EC0FFD1FE80FF91F2081211181
:1005F000F3CF5FC0683209F046C0CD90DD90ED903A
:10060000FC90C701B6010E9470122B013C019B01B6
:10061000AC01C701B6010E94CD114B015C01C301C1
:10062000B2010E943A12F62EE72E20E030E04AE7AF
:1006300054E4C501B4010E9419130E943A127F9339
:100640006F93EF92FF9283E690E09F938F93CE019A
:1006500001969F938F930E94CC130FB6F894DEBF40
:100660000FBECDBF80E090E004C05D9BFECF2CB9F3
:100670000196E1E0F0E0EC0FFD1FE80FF91F20818B
:100680002111F3CF16C06A3219F48C918CB911C0C4
:100690006B3279F406C05D9BFECF9CB92F5F3F4F54
:1006A00002C020E030E0FD01E20FF31F90819111C4
:1006B000F2CF60960FB6F894DEBF0FBECDBFDF91CC
:1006C000CF91FF90EF90DF90CF90BF90AF909F9031
:1006D0008F907F906F905F904F900895CF92DF92B0
:1006E000EF92FF929093400480933F04092E000CF8
:1006F000AA0BBB0B880F991FAA1FBB1F880F991F3E
:10070000AA1FBB1F9C01AD01220F331F441F551FA1
:10071000220F331F441F551F0F2EC12CF2E1DF2E75
:10072000FAE7EF2EF12CF02DC701B6010E949A13C3
:10073000DA01C9010197A109B109892F9A2FAB2FBD
:10074000BB2780BD20913F0430914004C901330F85
:10075000AA0BBB0B880F991FAA1FBB1F880F991FDD
:10076000AA1FBB1F9C01AD01220F331F441F551F41
:10077000220F331F441F551FC701B6010E949A1351
:10078000215029B98AB188618AB980B5866880BD4F
:10079000FF90EF90DF90CF9008951F920F920FB6C9
:1007A0000F9211242F933F934F935F936F937F93F7
:1007B0008F939F93AF93BF93EF93FF93E0919E002E
:1007C000F0919F000995FF91EF91BF91AF919F919B
:1007D0008F917F916F915F914F913F912F910F90EA
:1007E0000FBE0F901F9018951F920F920FB60F9289
:1007F00011242F933F934F935F936F937F938F9326
:100800009F93AF93BF93EF93FF93E0919C00F09180
:100810009D000995FF91EF91BF91AF919F918F91AD
:100820007F916F915F914F913F912F910F900FBEEC
:100830000F901F9018956FEF7FEF8091A40090911B
:10084000A5000E949C0980E00E94D201811135C060
:100850008091A2009091A30001969093A3008093B1
:10086000A2002091A0003091A1002F5F3F4F309354
:10087000A1002093A0008217930759F484369105B4
:1008800041F41092A3001092A2001092A1001092C5
:10089000A00069E282EA90E00E94BA026BE28FE770
:1008A00090E00E94BA0269E280EA90E00E94BA02F7
:1008B0006BE28FE790E00E94BA0220E040E050E057
:1008C00060E070E08091A4009091A5000E94EC0887
:1008D000B2CF6FEF7FEF8091A4009091A5000E94AE
:1008E0009C092091A2003091A3008091A0009091DA
:1008F000A1002817390729F06BE289E690E00E94F1
:10090000BA0220E040E050E060E070E08091A40096
:100910009091A5000E94EC0885E090E00E94CA0E2C
:10092000D8CFEF92FF920F936AE280E00E944900D5
:1009300080E895E20E946E03E0904104F09042044A
:1009400001E020E030E046E950E063E870E08BE150
:1009500094E00E946B0CE0904304F090440402E0A9
:1009600020E030E046E950E069E870E089E694E094
:100970000E946B0C81E00E948E099093A5008093E9
:10098000A4000E94BF0C80E090E00F91FF90EF90D8
:100990000895ABEAB0E0EFEAF0E01196FC93EE9335
:1009A00013961C921E921297A7EAB0E08FE193E093
:1009B00013969C938E93129711961C921E9293837A
:1009C0008283B183A0830895EF92FF920F931F93C8
:1009D000CF93DF93EC010E94EB0C8091A600811174
:1009E00005C00E94C90481E08093A600209771F0A1
:1009F000CE010496C817D90738F425968C179D07A1
:100A000028F0C0E0D0E002C0C0E0D0E0209709F4B8
:100A10005EC020916000309161002C173D0708F402
:100A200059C0E091AB00F091AC00ABEAB0E002C07D
:100A3000DF01FC01828193818C179D0720F4808166
:100A400091810097A9F780E0E73AF80709F445C0DB
:100A50000D911C9111970C5F1F4F808191818D9397
:100A60009C93828193818C1B9D0B8930910530F181
:100A7000BF016C0F7D1FDB0113969C938E93129721
:100A8000D383C28312964D915C9113970F2EFBEA8C
:100A9000EF2EF0E0FF2EF02D01C07D01E701A881CF
:100AA000B98112968D919C91139784179507A8F39D
:100AB000EB01B983A883D7016D937C9382819381E5
:100AC000281B390B309361002093600008C000E0C0
:100AD00010E005C000E010E002C000E010E00E945D
:100AE000F50DC801DF91CF911F910F91FF90EF900D
:100AF00008950F931F93CF93DF93009741F1EC017B
:100B00008C01045011090E94EB0CF80142815381C1
:100B1000ABEAB0E001C0DF01ED91FC9111972281B9
:100B2000338124173507B8F32497F983E8830D93AD
:100B30001C938A819B812091600030916100820F1B
:100B4000931F90936100809360000E94F50DDF91E8
:100B5000CF911F910F910895FC0103969283818399
:100B60002FEF3FEF3483238396838583908787839A
:100B700010820895FC01118610860895CF93DF93AB
:100B8000EB01488159814F3F2FEF520721F4FC01BF
:100B9000A781B0850DC0DC01139601C0DF0112965C
:100BA000ED91FC9113972081318142175307B0F7E3
:100BB0001296ED91FC911397FB83EA83D583C4834E
:100BC000BD83AC831396DC93CE9312979987888765
:100BD000FC0120812F5F2083DF91CF910895CF9377
:100BE000DF93FC01A085B185C281D3818481958189
:100BF0009D838C83C481D581828193819B838A83E9
:100C000011968D919C911297E817F90731F4848120
:100C1000958112969C938E931197118610868C91D4
:100C200081508C938C91DF91CF9108951BBC8CE700
:100C30008ABD8BE08EBD89B7806189BF089531E19F
:100C4000FC013083319722E220833197A3E3A08314
:100C5000319760833197708331971082319760E8C4
:100C6000608331971082319762E06083319763E04F
:100C70006083319764E06083319765E060833197EA
:100C800066E06083319767E06083319768E0608356
:100C9000319769E06083319760E1608331973083F9
:100CA000319732E13083319733E13083319734E14A
:100CB0003083319735E13083319736E13083319796
:100CC00037E13083319738E13083319739E1308330
:100CD000319730E23083319731E23083319720838E
:100CE000319723E2208331974083319750833197A6
:100CF00026E22083319727E22083319728E2208360
:100D0000319729E22083319720E32083319721E333
:100D10002083869708950E941606A0913D04B09105
:100D20003E04CD91CDBFDD91DEBFFF91EF91DF910C
:100D3000CF91BF91AF919F918F917F916F915F9173
:100D40004F913F912F911F910F91FF90EF90DF9066
:100D5000CF90BF90AF909F908F907F906F905F905B
:100D60004F903F902F901F900F900FBE0F900895BF
:100D700081E008950F920FB6F8940F921F921124FC
:100D80002F923F924F925F926F927F928F929F929B
:100D9000AF92BF92CF92DF92EF92FF920F931F9389
:100DA0002F933F934F935F936F937F938F939F9373
:100DB000AF93BF93CF93DF93EF93FF93A0913D0445
:100DC000B0913E040DB60D920EB60D920E94E00E4B
:100DD000A0913D04B0913E04CD91CDBFDD91DEBF29
:100DE000FF91EF91DF91CF91BF91AF919F918F9143
:100DF0007F916F915F914F913F912F911F910F9133
:100E0000FF90EF90DF90CF90BF90AF909F908F902A
:100E10007F906F905F904F903F902F901F900F901A
:100E20000FBE0F9008950F920FB6F8940F921F9275
:100E300011242F923F924F925F926F927F928F92E6
:100E40009F92AF92BF92CF92DF92EF92FF920F9359
:100E50001F932F933F934F935F936F937F938F9342
:100E60009F93AF93BF93CF93DF93EF93FF93A091A3
:100E70003D04B0913E040DB60D920EB60D920E9447
:100E8000F10C81110E94E00EA0913D04B0913E044E
:100E9000CD91CDBFDD91DEBFFF91EF91DF91CF917D
:100EA000BF91AF919F918F917F916F915F914F9182
:100EB0003F912F911F910F91FF90EF90DF90CF9076
:100EC000BF90AF909F908F907F906F905F904F906A
:100ED0003F902F901F900F900FBE0F9008950E948B
:100EE00013071895DC0151962C915197222341F05C
:100EF0005696ED91FC915797908185E0891B089556
:100F000080E008950FB6F8940F92FC01828D811154
:100F100002C081E001C080E00F900FBE08950FB6BF
:100F2000F8940F92FC01228D838D281302C081E07A
:100F300001C080E00F900FBE08950F931F93CF93D1
:100F4000DF93EC01042F1A8D4C8D41110CC0888168
:100F50009981892B09F042C08C819D810E94E51006
:100F60001D821C8242C0011117C050E08A819B8102
:100F70000E94BC132C8D8A819B81820F911D9B83C3
:100F80008A832C813D818217930750F18881998152
:100F90009B838A8380E029C050E08E819F810E94DC
:100FA000BC138C8D90E09195819591092E813F81A4
:100FB000280F391F3F832E83488159812417350715
:100FC00030F42C813D81820F931F9F838E830230EA
:100FD00049F4112349F0115080E007C080E005C0BA
:100FE00080E003C080E001C080E01F5F1A8FDF91C6
:100FF000CF911F910F9108951F93CF93DF93EC0131
:101000000FB6F8940F921E8D0BC08989882351F07A
:10101000CE0141960E94460F81110E944D10115041
:1010200011169CF38FEF8E8F0F900FBE0FB6F894B2
:101030000F921D8D0BC08885882351F0CE01089634
:101040000E94460F81110E944D10115011169CF301
:101050008FEF8D8F0F900FBEDF91CF911F9108956D
:101060000F931F93CF93DF93FC01362F892B09F445
:101070004DC0238D222309F44BC0022F10E08FEFC7
:101080009FEFB8010E948613448D842F90E068176B
:10109000790708F43FC0EF010FB6F8940F92608112
:1010A0007181FB01249FE00DF11D1124FD83EC8370
:1010B0001A8E7B836A8301501109809FA001819F52
:1010C000500D909F500D1124CB01840F951F9F83CD
:1010D0008E838FEF8D8F8E8F31110CC08885882382
:1010E00089F0CE0108960E94460F882359F00E948D
:1010F000BA0608C0CE0108960E94AC05CE01419602
:101100000E94AC050F900FBE81E005C080E003C0D7
:1011100080E001C080E0DF91CF911F910F91089591
:10112000FF920F931F93CF93DF93F22EE80161118B
:1011300003C01983088302C0598348838B8F6C8F47
:1011400061E0CE010E943008F8A2DF91CF911F919B
:101150000F91FF900895DF92EF92FF920F931F93EC
:10116000CF93DF93382FE62F882329F1682F70E083
:101170008FEF9FEF0E9486138E2F90E068177907FC
:10118000E8F03E9FC00111248F3D2FEF9207C8F475
:10119000D42EDE2FC32F81960E94E4047C01009799
:1011A00091F08C012D2DAC014F5D5F4F6D2F8C2F79
:1011B0000E94900808C0E12CF12C05C0E12CF12C14
:1011C00002C0E12CF12CC701DF91CF911F910F914B
:1011D000FF90EF90DF900895CF92DF92EF92FF9211
:1011E0000F931F93CF93DF9300D000D01F92CDB702
:1011F000DEB78C017B015D834C83C22ED12C0FB6F0
:10120000F8940F92F801928D838D981718F0F2E000
:10121000CF1219C04C2DB701C8010E949D07F801DB
:101220009189992349F0C80141960E94460F88236D
:1012300031F00E94BA0603C081110E94BA060F90D5
:101240000FBE81E04DC08C819D81892B21F40F90D0
:101250000FBE80E045C0D11006C0CE0101960E94AD
:101260000310DD24D3940F900FBE0E94EB0C0FB639
:10127000F8940F92F801858D8F3F09F4158EF801CF
:10128000868D8F3F09F4168E0F900FBEBE016C5FE6
:101290007F4FCE0101960E940E1081111BC0C80124
:1012A0000E948F07882381F06C817D81C801089698
:1012B0000E94340FC8010E94FC070E94F50D8111A5
:1012C0009ECF0E94BA069BCFC8010E94FC070E94D5
:1012D000F50D95CFC8010E94FC070E94F50D80E036
:1012E0000F900F900F900F900F90DF91CF911F9163
:1012F0000F91FF90EF90DF90CF900895009769F0E5
:10130000FC011582148211821082168220E040E0D6
:1013100050E060E070E00E94EC080895CF93DF9306
:10132000482F60E081E00E94AB08EC010E947E093A
:10133000CE01DF91CF910895EF92FF920F931F930B
:10134000CF93DF9300D000D01F92CDB7DEB78C01D2
:101350007D836C83E12CF12C0FB6F8940F92F80189
:10136000828D8823D1F08150828F80819181892B59
:1013700029F40E94BB11F80195838483F8018085CC
:10138000882339F0C80108960E94460F81110E94F7
:10139000BA060F900FBE81E074C08C819D81892BAD
:1013A00021F40F900FBE80E06CC0F11006C0CE019A
:1013B00001960E940310FF24F3940F900FBE0E9429
:1013C000EB0C0FB6F8940F92F801858D8F3F09F45E
:1013D000158EF801868D8F3F09F4168E0F900FBE83
:1013E000BE016C5F7F4FCE0101960E940E108111ED
:1013F0002AC0C8010E9482078823F9F0F801808181
:101400009181892B51F40FB6F8940F9284819581C4
:101410000E945110E82E0F900FBE6C817D81C80193
:1014200041960E94340FC8010E94FC070E94F50DEE
:10143000811192CF0E94BA068FCFC8010E94FC078B
:101440000E94F50D89CFC8010E94FC070E94F50D8E
:10145000C8010E948207882309F47ECFEE2081F024
:101460000FB6F8940F92C8010E947207682FF80116
:10147000848195810E9448110F900FBE80E001C0C9
:1014800080E00F900F900F900F900F90DF91CF9111
:101490001F910F91FF90EF900895E091FC03F09160
:1014A000FD038081811107C08FEF9FEF9093D303DD
:1014B0008093D2030895E091FC03F091FD03058031
:1014C000F681E02D808191819093D3038093D203A4
:1014D0000895CF93DF93EC018F89988D0E94790551
:1014E000CE010E947905DF91CF9108952F923F920E
:1014F0004F925F926F927F928F929F92AF92BF9224
:10150000CF92DF92EF920F931F93CF93DF93CDB7DC
:10151000DEB71C014B0129013A01A90165EA70E01F
:10152000D50157968D919C9158970E94C513F5014E
:101530008789908DF1E04F1A5108480E591E811489
:10154000910489F417C0822F90E0F401E80FF91F8D
:101550003081D501A80FB91F59963C93808188230B
:1015600029F02F5F01C020E02A3068F3D501929660
:101570001C9202C0F501118EF4E0FE1518F4689477
:10158000EE24E2F8D5015696EC9256979596EC9299
:10159000959796961C92C50102960E94BA05C501C0
:1015A0000C960E94BA05F501B186A08685E090E010
:1015B0008E19910995878487B38AA28A84E0B796A9
:1015C000DF011D928A95E9F7F50113A6A801B10183
:1015D000C2010E941F06D5018D939C93C114D104B2
:1015E00019F0F601B182A082DF91CF911F910F9186
:1015F000EF90DF90CF90BF90AF909F908F907F90B3
:101600006F905F904F903F902F900895CF93C0E0E0
:1016100010C08C2F90E09C01220F331F220F331F2C
:10162000220F331F820F931F805F9B4F0E94AC05D8
:10163000CF5FC53070F387E094E00E94AC058EEF79
:1016400093E00E94AC0581EF93E00E94AC0588EE28
:1016500093E00E94AC058EED93E00E94AC0587E01C
:1016600094E09093FD038093FC038EEF93E09093BE
:10167000FB038093FA03CF910895CF93DF93EC019E
:101680000FB6F8940F928091DD038F5F8093DD0396
:1016900080913D0490913E04892B59F4D0933E04EF
:1016A000C0933D048091DD03813099F40E94060BC4
:1016B00010C08091D90381110CC0E0913D04F091DC
:1016C0003E0496898E89891720F0D0933E04C093FA
:1016D0003D048091D4038F5F8093D4038BA38E89C4
:1016E0009091DA03981710F48093DA0390E0FC01EC
:1016F000EE0FFF1FEE0FFF1FEE0FFF1F8E0F9F1F3E
:10170000FC01E05FFB4F0180F281E02DFD83EC8363
:10171000848195819F838E83A481B581CE010296B9
:1017200013969C938E93129795838483EE89F0E0B1
:10173000CF01880F991F880F991F880F991FE80FF5
:10174000F91FE05FFB4FFB87EA8780818F5F808313
:101750000F900FBE8091D903882351F0E0913D0492
:10176000F0913E0496898E89981710F40E94BA066B
:10177000DF91CF910895CF93DF931CC00FB6F894FB
:101780000F92E091ED03F091EE03C681D781CE0177
:1017900002960E94EF058091DD0381508093DD0366
:1017A0008091E70381508093E7030F900FBECE0135
:1017B0000E94690A8091E7038111E0CFDF91CF9108
:1017C00008950E94BB0B809110048230D0F30E94D8
:1017D000BA06F7CFFF920F931F93CF93DF93EC01DD
:1017E000F62E0091DB031091DC0380913D04909173
:1017F0003E0402960E94EF05CF3F8FEFD807B1F568
:10180000FF20A1F1EEEDF3E0A181B281C0913D0492
:10181000D0913E04BD83AC83C0913D04D0913E0481
:1018200014968D919C9115979F838E831496CD91DC
:10183000DC91159780913D0490913E0402969B8324
:101840008A8380913D0490913E04029615969C9364
:101850008E931497A0913D04B0913E041B96FC9387
:10186000EE931A9780818F5F80832FC0C00FD11FA6
:10187000E0913D04F0913E04D383C283C017D107A9
:1018800068F460913D0470913E048091FA03909158
:10189000FB036E5F7F4F0E94BE0517C060913D0441
:1018A00070913E048091FC039091FD036E5F7F4F29
:1018B0000E94BE058091D2039091D303C817D90727
:1018C00020F4D093D303C093D203DF91CF911F9123
:1018D0000F91FF9008952F923F924F925F926F92D7
:1018E0007F928F929F92AF92BF92CF92DF92EF92B0
:1018F000FF920F931F93CF93DF933C011B015A017B
:101900002901CA010E94E4046C01892B71F08CE268
:1019100090E00E94E404EC01892B19F0D88ECF8A64
:1019200006C0C6010E94790502C0C0E0D0E0209741
:1019300091F0950140E050E0812C912C5E0167010F
:10194000E02E8201B101C3010E94760ACE010E94FD
:101950003D0B81E001C08FEFDF91CF911F910F917F
:10196000FF90EF90DF90CF90BF90AF909F908F90BF
:101970007F906F905F904F903F902F900895EF92DF
:10198000FF920F930F2EF0EDEF2EF3E0FF2EF02DD0
:1019900000E020E030E048EC50E061E970E081EEEA
:1019A0009BE00E946B0C813081F4F8948FEF9FEFE5
:1019B0009093D3038093D20381E08093D903109254
:1019C000DC031092DB030E948B06809162000F9172
:1019D000FF90EF9008958091CF038F5F8093CF03A6
:1019E00008950F931F93CF93DF938091CF038111BD
:1019F000EBC0C091DB03D091DC038E010F5F1F4F62
:101A00001093DC030093DB0301151105B9F48091F9
:101A1000FC039091FD032091FA033091FB03309376
:101A2000FD032093FC039093FB038093FA038091C2
:101A3000D5038F5F8093D5030E944D0A8091D20316
:101A40009091D3030817190720F480E0B8C081E013
:101A500001C080E0E091FC03F091FD0390819111C1
:101A600007C02FEF3FEF3093D3032093D203A7C0DB
:101A7000E091FC03F091FD030580F681E02D0680E6
:101A8000F781E02D228133810217130728F4309368
:101A9000D3032093D20393C0A285B38524813581DB
:101AA00046815781E9015D834C83268137814481DA
:101AB0005581E9015B834A8311962D913C911297E0
:101AC000AF014E5F5F4F2417350731F42681378110
:101AD00012963C932E931197138612869C919150E7
:101AE0009C93A489B589109719F12685378560895B
:101AF0007189E9017D836C832089318966857785C9
:101B0000E9017B836A8311966D917C9112979F0105
:101B1000245F3F4F6217730731F420893189129691
:101B20003C932E931197158A148A9C9191509C9303
:101B300026899091DA03921710F42093DA0330E0AB
:101B4000D901AA0FBB1FAA0FBB1FAA0FBB1F2A0FC9
:101B50003B1FD901A05FBB4F11960D90BC91A02DEA
:101B6000B583A48314962D913C91159737832683D2
:101B700014962D913C911597E9015B834A83159644
:101B80005C934E931497A689B0E09D01220F331FFA
:101B9000220F331F220F331FA20FB31FA05FBB4FB3
:101BA000B387A2879C919F5F9C932689E0913D0417
:101BB000F0913E049689291708F049CF4BCF9091B8
:101BC000D60391110CC00CC08091D7039091D8031B
:101BD00001969093D8038093D70380E001C081E001
:101BE000DF91CF911F910F910895CF93DF930FB69F
:101BF000F8940F928091CF0381508093CF0380910E
:101C0000CF038111BFC08091DD03811196C0BDC09B
:101C1000E091F603F091F7030680F781E02DA489A7
:101C2000B589C685D785808991899D838C83C08934
:101C3000D189868597859B838A8311962D913C91C6
:101C40001297CF010C962817390731F480899189B2
:101C500012969C938E931197158A148A8C918150B9
:101C60008C93A285B385C481D581868197819D831C
:101C70008C83C681D781848195819B838A831196C9
:101C80008D919C9112979F012E5F3F4F8217930772
:101C900031F48681978112969C938E9311971386C7
:101CA00012868C9181508C9386899091DA039817D3
:101CB00010F48093DA0390E0DC01AA0FBB1FAA0F97
:101CC000BB1FAA0FBB1F8A0F9B1FDC01A05FBB4F6E
:101CD00011960D90BC91A02DB583A48314968D917F
:101CE0009C911597978386831496CD91DC911597D7
:101CF0003B832A8315963C932E931497A689B0E0D4
:101D0000CD01880F991F880F991F880F991FA80F61
:101D1000B91FA05FBB4FB387A2878C918F5F8C9355
:101D20009689A0913D04B0913E0456968C919817E7
:101D300030F081E08093D60302C0E0E0F0E08091D3
:101D4000F103811165CFEF2B11F00E944D0AC09174
:101D5000D703D091D803209769F00E94F10C882313
:101D600019F081E08093D6032197B9F71092D80338
:101D70001092D7038091D603882331F00E94BA06CF
:101D800081E003C080E001C080E00F900FBEDF91D2
:101D9000CF910895CF93DF93EC01892B49F00E94F6
:101DA000EB0C60E0CE010E94EA0B0E94F50D01C031
:101DB00080E0811102C00E94BA06DF91CF910895A0
:101DC0008091CF03882321F081E08093D60308958A
:101DD0001092D6032091DA0301C02150822F90E0A7
:101DE000FC01EE0FFF1FEE0FFF1FEE0FFF1FE80FAE
:101DF000F91FE05FFB4F3081332379F3AC01440FCF
:101E0000551F440F551F440F551F480F591FDF0121
:101E10000180F281E02D0280F381E02D1296FC9387
:101E2000EE9311974D5E5B4FE417F50729F442815D
:101E30005381FD0152834183FC01EE0FFF1FEE0F22
:101E4000FF1FEE0FFF1F8E0F9F1FFC01E05FFB4F78
:101E50000180F281E02D8681978190933E048093EA
:101E60003D042093DA030895CF93DF93EB01609153
:101E70003D0470913E04645F7F4F0E94BE0561E0A7
:101E8000CE010E94EA0BDF91CF910895CF93DF93AB
:101E9000DC011596ED91FC9116970680F781E02DF7
:101EA000A489B589C685D785808991899D838C83CE
:101EB000C089D189868597859B838A8311968D9168
:101EC0009C9112979F01245F3F4F8217930731F433
:101ED0008089918912969C938E931197158A148A02
:101EE0008C9181508C938091CF03811160C0A28529
:101EF000B385C481D581868197819D838C83C6817A
:101F0000D781848195819B838A8311968D919C9141
:101F100012979F012E5F3F4F8217930731F48681FE
:101F2000978112969C938E931197138612868C91AB
:101F300081508C9386899091DA03981710F48093DE
:101F4000DA0390E0DC01AA0FBB1FAA0FBB1FAA0F88
:101F5000BB1F8A0F9B1FDC01A05FBB4F11960D902A
:101F6000BC91A02DB583A48314968D919C91159757
:101F7000978386831496CD91DC9115973B832A83B2
:101F800015963C932E931497A689B0E0CD01880F47
:101F9000991F880F991F880F991FA80FB91FA05F5D
:101FA000BB4FB387A2878C918F5F8C931CC041EF8E
:101FB00053E0DA011196CD91DC911297D787C6874D
:101FC0008C819D81918B808B8C819D81DC0113960E
:101FD0003C932E9312973D832C83558B448BDA01CF
:101FE0008C918F5F8C939689E0913D04F0913E0433
:101FF0008689891720F481E08093D60301C080E0B0
:10200000DF91CF9108952091D503FC012083209189
:10201000DB033091DC033283218308951F93CF9338
:10202000DF930FB6F8940F92E091DB03F091DC039D
:10203000DC0111964D915C911297DF01A41BB50B49
:10204000EB01288139812F3FDFEF3D07F9F0EC01EB
:102050001881C091D5031C1741F0E417F50728F04B
:10206000FB011182108281E012C0A217B30748F46D
:10207000FB012A1B3B0B318320830E94031080E06D
:1020800006C0DB011D921C9281E001C080E00F9030
:102090000FBEDF91CF911F91089581E08093D60309
:1020A00008950F931F93CF93DF93FC01892B09F4BD
:1020B00084C02689A0913D04B0913E0456968C912F
:1020C000281708F070C084859585992364F0A09145
:1020D0003D04B0913E0456963C9185E090E0831B10
:1020E0009109958784878285938530E0A901440F03
:1020F000551F440F551F440F551F240F351F205FD8
:102100003B4F8217930709F045C0EF018F010E5F27
:102110001F4FC8010E94EF05E0913D04F0913E047D
:1021200086898E8B9091DA03981710F48093DA03E6
:1021300090E0FC01EE0FFF1FEE0FFF1FEE0FFF1FE1
:102140008E0F9F1FFC01E05FFB4F0180F281E02DAD
:10215000FD83EC83848195819F838E83A481B581E7
:1021600013961C930E931297158304838E8990E027
:10217000FC01EE0FFF1FEE0FFF1FEE0FFF1FE80F1A
:10218000F91FE05FFB4FFB87EA8780818F5F8083C9
:1021900081E016C0A0913D04B0913E0456968C910A
:1021A000868B81E00DC095A1E0913D04F0913E0445
:1021B0008689981720F080E003C080E001C081E0AC
:1021C000DF91CF911F910F9108950F931F93CF939C
:1021D000DF93FC01892B09F451C086A1815086A3AD
:1021E000268995A1291709F44BC081114BC0EF0135
:1021F0008F010E5F1F4FC8010E94EF058DA18E8BCE
:1022000025E030E0281B31093D872C879091DA03C7
:10221000981710F48093DA0390E0FC01EE0FFF1F93
:10222000EE0FFF1FEE0FFF1F8E0F9F1FFC01E05FE1
:10223000FB4F0180F281E02DFD83EC838481958149
:102240009F838E83A481B58113961C930E9312975E
:1022500015830483EE89F0E0CF01880F991F880F62
:10226000991F880F991FE80FF91FE05FFB4FFB874D
:10227000EA8780818F5F808381E005C080E003C0B2
:1022800080E001C080E0DF91CF911F910F91089510
:102290000F931F93CF93DF93FC01892B09F466C042
:1022A00095A1961708F4962F8689981709F45EC0B1
:1022B00026A1213009F05AC0968B24853585332319
:1022C00034F025E030E0291B310935872487228549
:1022D000338590E0AC01440F551F440F551F440F48
:1022E000551F840F951F805F9B4F28173907F1F505
:1022F000EF018F010E5F1F4FC8010E94EF058E890D
:102300009091DA03981710F48093DA0390E0FC01BF
:10231000EE0FFF1FEE0FFF1FEE0FFF1F8E0F9F1F11
:10232000FC01E05FFB4F0180F281E02DFD83EC8337
:10233000848195819F838E83A481B58113961C939C
:102340000E931297158304838E8990E0FC01EE0FA3
:10235000FF1FEE0FFF1FEE0FFF1FE80FF91FE05FDB
:10236000FB4FFB87EA8780818F5F8083DF91CF916E
:102370001F910F91089580913D0490913E04892B07
:1023800039F0E0913D04F0913E0486A18F5F86A371
:1023900080913D0490913E0408955058BB27AA2790
:1023A0000E94E5110C94C7120E94B91238F00E94E5
:1023B000C01220F039F49F3F19F426F40C94B612A1
:1023C0000EF4E095E7FB0C948712E92F0E94D812D7
:1023D00058F3BA17620773078407950720F079F45A
:1023E000A6F50C9412130EF4E0950B2EBA2FA02D27
:1023F0000B01B90190010C01CA01A0011124FF27B2
:10240000591B99F0593F50F4503E68F11A16F040AC
:10241000A22F232F342F4427585FF3CF46953795AB
:102420002795A795F0405395C9F77EF41F16BA0B70
:10243000620B730B840BBAF09150A1F0FF0FBB1F1E
:10244000661F771F881FC2F70EC0BA0F621F731F67
:10245000841F48F4879577956795B795F7959E3FC4
:1024600008F0B0CF9395880F08F09927EE0F979555
:10247000879508950E9441126894B1110C9413132A
:1024800008950E94E01288F09F5798F0B92F99277D
:10249000B751B0F0E1F0660F771F881F991F1AF04F
:1024A000BA95C9F714C0B13091F00E941213B1E08F
:1024B00008950C941213672F782F8827B85F39F08E
:1024C000B93FCCF3869577956795B395D9F73EF4E8
:1024D00090958095709561957F4F8F4F9F4F089590
:1024E0000E94FA1290F09F3748F4911116F00C9464
:1024F000131360E070E080E89FEB089526F41B164C
:10250000611D711D811D0C948D120C94A81297F9F8
:102510009F6780E870E060E00895882371F4772376
:1025200021F09850872B762F07C0662311F4992746
:102530000DC09051862B70E060E02AF09A95660FEE
:10254000771F881FDAF7880F9695879597F9089572
:102550009F3F31F0915020F4879577956795B79517
:10256000880F911D9695879597F908959FEF80ECB8
:10257000089500240A9416161706180609060895E9
:1025800000240A9412161306140605060895092E4F
:102590000394000C11F4882352F0BB0F40F4BF2BBE
:1025A00011F460FF04C06F5F7F4F8F4F9F4F0895FE
:1025B00057FD9058440F551F59F05F3F71F04795F4
:1025C000880F97FB991F61F09F3F79F087950895D9
:1025D000121613061406551FF2CF4695F1DF08C0F8
:1025E000161617061806991FF1CF86957105610515
:1025F000089408950E94E012A0F0BEE7B91788F48D
:10260000BB279F3860F41616B11D672F782F8827D7
:10261000985FF7CF869577956795B11D9395963915
:10262000C8F30895E894BB2766277727CB0197F96D
:1026300008950E942C130C94C7120E94B91238F00E
:102640000E94C01220F0952311F00C9487120C9474
:10265000B61211240C9413130E94D81270F3959F94
:10266000C1F3950F50E0551F629FF001729FBB2789
:10267000F00DB11D639FAA27F00DB11DAA1F649F25
:102680006627B00DA11D661F829F2227B00DA11DD8
:10269000621F739FB00DA11D621F839FA00D611D5E
:1026A000221F749F3327A00D611D231F849F600D7F
:1026B000211D822F762F6A2F11249F5750409AF0A8
:1026C000F1F088234AF0EE0FFF1FBB1F661F771F34
:1026D000881F91505040A9F79E3F510580F00C94FF
:1026E00087120C9413135F3FE4F3983ED4F386955E
:1026F00077956795B795F795E7959F5FC1F7FE2B9F
:10270000880F911D9695879597F90895AA1BBB1B75
:1027100051E107C0AA1FBB1FA617B70710F0A61BE1
:10272000B70B881F991F5A95A9F780959095BC0102
:10273000CD010895A1E21A2EAA1BBB1BFD010DC0FD
:10274000AA1FBB1FEE1FFF1FA217B307E407F50761
:1027500020F0A21BB30BE40BF50B661F771F881F3D
:10276000991F1A9469F760957095809590959B01D3
:10277000AC01BD01CF010895FB01DC0102C0019055
:102780000D9241505040D8F70895DC0101C06D937F
:1027900041505040E0F70895AEE0B0E0E2EDF3E1E3
:1027A0000C948D160D891E8986E08C831A8309830B
:1027B0008FEF9FE79E838D83AE01475E5F4F6F89EA
:1027C000788DCE0101960E94EE13EF81F885E00F1F
:1027D000F11F10822E96E4E00C94A916ABE0B0E055
:1027E000E4EFF3E10C947F166C017B018A01FC019C
:1027F00017821682838181FFCCC1CE0101963C01F4
:10280000F6019381F70193FD859193FF81917F01FB
:10281000882309F4BAC1853239F493FD859193FF79
:1028200081917F01853229F4B60190E00E94E5157F
:10283000E7CF912C212C312CFFE1F315D8F08B320E
:1028400079F038F4803279F08332A1F4232D2061BD
:102850001DC08D3261F0803369F4232D216016C0D4
:10286000832D8260382EE32DE4603E2E2AC0F32DA6
:10287000F8601DC037FC2DC020ED280F2A3040F035
:102880008E32B9F436FC81C1232D2064322E19C05A
:1028900036FE06C08AE0989E200D1124922E11C0AB
:1028A000EAE02E9E200D1124222EF32DF0623F2E01
:1028B00008C08C3621F4832D8068382E02C08836FB
:1028C00041F4F70193FD859193FF81917F0181117F
:1028D000B3CF982F9F7D9554933028F40C5F1F4FF2
:1028E0009FE399830DC0833631F0833771F08335D0
:1028F00009F059C021C0F801808189830E5F1F4F04
:1029000088248394912C530113C02801F2E04F0EC8
:10291000511CF801A080B18036FE03C0692D70E023
:1029200002C06FEF7FEFC5010E94DA154C018201F2
:10293000F32DFF773F2E16C0280122E0420E511CD6
:10294000F801A080B18036FE03C0692D70E002C09E
:102950006FEF7FEFC5010E94CF154C01F32DF0689A
:102960003F2E820133FC1BC0822D90E08816990611
:10297000B0F4B60180E290E00E94E5152A94F4CF0D
:10298000F50137FC859137FE81915F01B60190E03A
:102990000E94E51521102A9421E0821A91088114E1
:1029A000910471F7E8C0843611F0893641F5F801D9
:1029B00037FE07C060817181828193810C5F1F4F58
:1029C00008C060817181072E000C880B990B0E5F87
:1029D0001F4FF32DFF763F2E97FF09C090958095EE
:1029E000709561957F4F8F4F9F4FF0683F2E2AE083
:1029F00030E0A3010E942116882E861845C0853735
:102A000031F4232D2F7EB22E2AE030E025C0932D05
:102A1000997FB92E8F36C1F018F4883579F0B5C09A
:102A2000803719F0883721F0B0C0E92FE061BE2E61
:102A3000B4FE0DC0FB2DF460BF2E09C034FE0AC0E9
:102A4000292F2660B22E06C028E030E005C020E124
:102A500030E002C020E132E0F801B7FE07C060813B
:102A60007181828193810C5F1F4F06C060817181EB
:102A700080E090E00E5F1F4FA3010E942116882E78
:102A80008618FB2DFF773F2E36FE0DC0232D2E7F9F
:102A9000A22E891458F434FE0BC032FC09C0832DD9
:102AA0008E7EA82E05C0B82CA32C03C0B82C01C064
:102AB000B92CA4FE0FC0FE01E80DF11D808180330A
:102AC00021F49A2D997EA92E09C0A2FE06C0B394C6
:102AD000B39404C08A2D867809F0B394A3FC11C086
:102AE000A0FE06C0B21488F4280C922C9B180EC0CD
:102AF000B21460F4B60180E290E00E94E515B39450
:102B0000F7CFB21418F42B1802C0982C212CA4FE75
:102B100010C0B60180E390E00E94E515A2FE17C048
:102B2000A1FC03C088E790E002C088E590E0B60110
:102B30000CC08A2D867859F0A1FE02C08BE201C03C
:102B400080E2A7FC8DE2B60190E00E94E5158914B1
:102B500038F4B60180E390E00E94E5159A94F7CF2F
:102B60008A94F301E80DF11D8081B60190E00E9486
:102B7000E5158110F5CF222009F442CEB60180E29E
:102B800090E00E94E5152A94F6CFF60186819781A0
:102B900002C08FEF9FEF2B96E2E10C949B16FC0195
:102BA0000590615070400110D8F7809590958E0F78
:102BB0009F1F0895FC016150704001900110D8F7EB
:102BC000809590958E0F9F1F08950F931F93CF931D
:102BD000DF93FB01238121FD03C08FEF9FEF2CC00A
:102BE00022FF16C046815781248135814217530741
:102BF00044F4A081B1819D012F5F3F4F3183208339
:102C00008C93268137812F5F3F4F3783268314C0F3
:102C10008B01EC01FB010084F185E02D0995892BE6
:102C2000E1F6D80116968D919C911797019617960B
:102C30009C938E931697CE01DF91CF911F910F91A8
:102C40000895FA01AA27283051F1203181F1E89442
:102C50006F936E7F6E5F7F4F8F4F9F4FAF4FB1E08F
:102C60003ED0B4E03CD0670F781F891F9A1FA11D8A
:102C7000680F791F8A1F911DA11D6A0F711D811D8B
:102C8000911DA11D20D009F468943F912AE0269F50
:102C900011243019305D3193DEF6CF010895462FAF
:102CA0004770405D4193B3E00FD0C9F7F6CF462F90
:102CB0004F70405D4A3318F0495D31FD40524193F9
:102CC00002D0A9F7EACFB4E0A695979587957795B6
:102CD0006795BA95C9F700976105710508959B013D
:102CE000AC010A2E06945795479537952795BA95C6
:102CF000C9F7620F731F841F951FA01D08952F929F
:102D00003F924F925F926F927F928F929F92AF927B
:102D1000BF92CF92DF92EF92FF920F931F93CF93C8
:102D2000DF93CDB7DEB7CA1BDB0B0FB6F894DEBF5F
:102D30000FBECDBF09942A88398848885F846E8485
:102D40007D848C849B84AA84B984C884DF80EE80CF
:102D5000FD800C811B81AA81B981CE0FD11D0FB6D8
:102D6000F894DEBF0FBECDBFED010895F894FFCFFC
:102D70001F030425642E2564002E2E2E73686172B5
:102D8000656420446174612070726F626C656D2EA1
:102D90002E2E00544152454B004C41534845454E60
:062DA0000049444C45000F
:00000001FF
