:100000000C942A000C9434000C9434000C943400AA
:100010000C9434000C9434000C9434000C94340090
:100020000C9434000C9434000C9434000C94340080
:100030000C9434000C9434000C9434000C94340070
:100040000C9434000C9434000C9434000C94340060
:100050000C94340011241FBECFE5D8E0DEBFCDBF25
:100060000E9436000C9466000C9400000F931F93BE
:100070008FEF8ABB1BBAEBE3F0E0A1E068E873E125
:1000800049E150E0B3E017E00FE0A0839B01CA0113
:100090000197F1F721503040D1F7B0839B01CA019D
:1000A0000197F1F721503040D1F710839B01CA012D
:1000B0000197F1F721503040D1F700839B01CA012D
:1000C0000197F1F721503040D1F7DFCFF894FFCFFF
:00000001FF
